{
	"contracts/Voting.sol": {
		"Voting": {
			"abi": [
				{
					"inputs": [],
					"stateMutability": "nonpayable",
					"type": "constructor"
				},
				{
					"inputs": [
						{
							"internalType": "string",
							"name": "_name",
							"type": "string"
						}
					],
					"name": "addCandidate",
					"outputs": [],
					"stateMutability": "nonpayable",
					"type": "function"
				},
				{
					"inputs": [],
					"name": "admin",
					"outputs": [
						{
							"internalType": "address",
							"name": "",
							"type": "address"
						}
					],
					"stateMutability": "view",
					"type": "function"
				},
				{
					"inputs": [
						{
							"internalType": "uint256",
							"name": "",
							"type": "uint256"
						}
					],
					"name": "candidates",
					"outputs": [
						{
							"internalType": "string",
							"name": "name",
							"type": "string"
						},
						{
							"internalType": "uint256",
							"name": "voteCount",
							"type": "uint256"
						}
					],
					"stateMutability": "view",
					"type": "function"
				},
				{
					"inputs": [],
					"name": "getWinner",
					"outputs": [
						{
							"internalType": "string",
							"name": "",
							"type": "string"
						}
					],
					"stateMutability": "view",
					"type": "function"
				},
				{
					"inputs": [
						{
							"internalType": "address",
							"name": "",
							"type": "address"
						}
					],
					"name": "hasVoted",
					"outputs": [
						{
							"internalType": "bool",
							"name": "",
							"type": "bool"
						}
					],
					"stateMutability": "view",
					"type": "function"
				},
				{
					"inputs": [
						{
							"internalType": "uint256",
							"name": "_candidateIndex",
							"type": "uint256"
						}
					],
					"name": "vote",
					"outputs": [],
					"stateMutability": "nonpayable",
					"type": "function"
				}
			],
			"devdoc": {
				"kind": "dev",
				"methods": {},
				"version": 1
			},
			"evm": {
				"assembly": "    /* \"contracts/Voting.sol\":70:1262  contract Voting{... */\n  mstore(0x40, 0x80)\n    /* \"contracts/Voting.sol\":170:224  constructor(){... */\n  callvalue\n  dup1\n  iszero\n  tag_1\n  jumpi\n  0x00\n  dup1\n  revert\ntag_1:\n  pop\n    /* \"contracts/Voting.sol\":204:214  msg.sender */\n  caller\n    /* \"contracts/Voting.sol\":196:201  admin */\n  0x00\n  dup1\n    /* \"contracts/Voting.sol\":196:214  admin = msg.sender */\n  0x0100\n  exp\n  dup2\n  sload\n  dup2\n  0xffffffffffffffffffffffffffffffffffffffff\n  mul\n  not\n  and\n  swap1\n  dup4\n  0xffffffffffffffffffffffffffffffffffffffff\n  and\n  mul\n  or\n  swap1\n  sstore\n  pop\n    /* \"contracts/Voting.sol\":70:1262  contract Voting{... */\n  dataSize(sub_0)\n  dup1\n  dataOffset(sub_0)\n  0x00\n  codecopy\n  0x00\n  return\nstop\n\nsub_0: assembly {\n        /* \"contracts/Voting.sol\":70:1262  contract Voting{... */\n      mstore(0x40, 0x80)\n      callvalue\n      dup1\n      iszero\n      tag_1\n      jumpi\n      0x00\n      dup1\n      revert\n    tag_1:\n      pop\n      jumpi(tag_2, lt(calldatasize, 0x04))\n      shr(0xe0, calldataload(0x00))\n      dup1\n      0x0121b93f\n      eq\n      tag_3\n      jumpi\n      dup1\n      0x09eef43e\n      eq\n      tag_4\n      jumpi\n      dup1\n      0x3477ee2e\n      eq\n      tag_5\n      jumpi\n      dup1\n      0x462e91ec\n      eq\n      tag_6\n      jumpi\n      dup1\n      0x8e7ea5b2\n      eq\n      tag_7\n      jumpi\n      dup1\n      0xf851a440\n      eq\n      tag_8\n      jumpi\n    tag_2:\n      0x00\n      dup1\n      revert\n        /* \"contracts/Voting.sol\":532:822  function vote(uint _candidateIndex) public{... */\n    tag_3:\n      tag_9\n      0x04\n      dup1\n      calldatasize\n      sub\n      dup2\n      add\n      swap1\n      tag_10\n      swap2\n      swap1\n      tag_11\n      jump\t// in\n    tag_10:\n      tag_12\n      jump\t// in\n    tag_9:\n      stop\n        /* \"contracts/Voting.sol\":123:163  mapping(address => bool) public hasVoted */\n    tag_4:\n      tag_13\n      0x04\n      dup1\n      calldatasize\n      sub\n      dup2\n      add\n      swap1\n      tag_14\n      swap2\n      swap1\n      tag_15\n      jump\t// in\n    tag_14:\n      tag_16\n      jump\t// in\n    tag_13:\n      mload(0x40)\n      tag_17\n      swap2\n      swap1\n      tag_18\n      jump\t// in\n    tag_17:\n      mload(0x40)\n      dup1\n      swap2\n      sub\n      swap1\n      return\n        /* \"contracts/Voting.sol\":313:342  Candidate[] public candidates */\n    tag_5:\n      tag_19\n      0x04\n      dup1\n      calldatasize\n      sub\n      dup2\n      add\n      swap1\n      tag_20\n      swap2\n      swap1\n      tag_11\n      jump\t// in\n    tag_20:\n      tag_21\n      jump\t// in\n    tag_19:\n      mload(0x40)\n      tag_22\n      swap3\n      swap2\n      swap1\n      tag_23\n      jump\t// in\n    tag_22:\n      mload(0x40)\n      dup1\n      swap2\n      sub\n      swap1\n      return\n        /* \"contracts/Voting.sol\":351:519  function addCandidate(string memory _name)public {... */\n    tag_6:\n      tag_24\n      0x04\n      dup1\n      calldatasize\n      sub\n      dup2\n      add\n      swap1\n      tag_25\n      swap2\n      swap1\n      tag_26\n      jump\t// in\n    tag_25:\n      tag_27\n      jump\t// in\n    tag_24:\n      stop\n        /* \"contracts/Voting.sol\":830:1254  function getWinner() public view returns (string memory) {... */\n    tag_7:\n      tag_28\n      tag_29\n      jump\t// in\n    tag_28:\n      mload(0x40)\n      tag_30\n      swap2\n      swap1\n      tag_31\n      jump\t// in\n    tag_30:\n      mload(0x40)\n      dup1\n      swap2\n      sub\n      swap1\n      return\n        /* \"contracts/Voting.sol\":94:114  address public admin */\n    tag_8:\n      tag_32\n      tag_33\n      jump\t// in\n    tag_32:\n      mload(0x40)\n      tag_34\n      swap2\n      swap1\n      tag_35\n      jump\t// in\n    tag_34:\n      mload(0x40)\n      dup1\n      swap2\n      sub\n      swap1\n      return\n        /* \"contracts/Voting.sol\":532:822  function vote(uint _candidateIndex) public{... */\n    tag_12:\n        /* \"contracts/Voting.sol\":596:604  hasVoted */\n      0x01\n        /* \"contracts/Voting.sol\":596:616  hasVoted[msg.sender] */\n      0x00\n        /* \"contracts/Voting.sol\":605:615  msg.sender */\n      caller\n        /* \"contracts/Voting.sol\":596:616  hasVoted[msg.sender] */\n      0xffffffffffffffffffffffffffffffffffffffff\n      and\n      0xffffffffffffffffffffffffffffffffffffffff\n      and\n      dup2\n      mstore\n      0x20\n      add\n      swap1\n      dup2\n      mstore\n      0x20\n      add\n      0x00\n      keccak256\n      0x00\n      swap1\n      sload\n      swap1\n      0x0100\n      exp\n      swap1\n      div\n      0xff\n      and\n        /* \"contracts/Voting.sol\":595:616  !hasVoted[msg.sender] */\n      iszero\n        /* \"contracts/Voting.sol\":587:643  require(!hasVoted[msg.sender],\"You have already voted!\") */\n      tag_37\n      jumpi\n      mload(0x40)\n      0x08c379a000000000000000000000000000000000000000000000000000000000\n      dup2\n      mstore\n      0x04\n      add\n      tag_38\n      swap1\n      tag_39\n      jump\t// in\n    tag_38:\n      mload(0x40)\n      dup1\n      swap2\n      sub\n      swap1\n      revert\n    tag_37:\n        /* \"contracts/Voting.sol\":680:690  candidates */\n      0x02\n        /* \"contracts/Voting.sol\":680:697  candidates.length */\n      dup1\n      sload\n      swap1\n      pop\n        /* \"contracts/Voting.sol\":662:677  _candidateIndex */\n      dup2\n        /* \"contracts/Voting.sol\":662:697  _candidateIndex < candidates.length */\n      lt\n        /* \"contracts/Voting.sol\":654:725  require(_candidateIndex < candidates.length, \"Invalid candidate index\") */\n      tag_40\n      jumpi\n      mload(0x40)\n      0x08c379a000000000000000000000000000000000000000000000000000000000\n      dup2\n      mstore\n      0x04\n      add\n      tag_41\n      swap1\n      tag_42\n      jump\t// in\n    tag_41:\n      mload(0x40)\n      dup1\n      swap2\n      sub\n      swap1\n      revert\n    tag_40:\n        /* \"contracts/Voting.sol\":759:763  true */\n      0x01\n        /* \"contracts/Voting.sol\":738:746  hasVoted */\n      dup1\n        /* \"contracts/Voting.sol\":738:758  hasVoted[msg.sender] */\n      0x00\n        /* \"contracts/Voting.sol\":747:757  msg.sender */\n      caller\n        /* \"contracts/Voting.sol\":738:758  hasVoted[msg.sender] */\n      0xffffffffffffffffffffffffffffffffffffffff\n      and\n      0xffffffffffffffffffffffffffffffffffffffff\n      and\n      dup2\n      mstore\n      0x20\n      add\n      swap1\n      dup2\n      mstore\n      0x20\n      add\n      0x00\n      keccak256\n      0x00\n        /* \"contracts/Voting.sol\":738:763  hasVoted[msg.sender]=true */\n      0x0100\n      exp\n      dup2\n      sload\n      dup2\n      0xff\n      mul\n      not\n      and\n      swap1\n      dup4\n      iszero\n      iszero\n      mul\n      or\n      swap1\n      sstore\n      pop\n        /* \"contracts/Voting.sol\":813:814  1 */\n      0x01\n        /* \"contracts/Voting.sol\":774:784  candidates */\n      0x02\n        /* \"contracts/Voting.sol\":785:800  _candidateIndex */\n      dup3\n        /* \"contracts/Voting.sol\":774:801  candidates[_candidateIndex] */\n      dup2\n      sload\n      dup2\n      lt\n      tag_43\n      jumpi\n      tag_44\n      tag_45\n      jump\t// in\n    tag_44:\n    tag_43:\n      swap1\n      0x00\n      mstore\n      keccak256(0x00, 0x20)\n      swap1\n      0x02\n      mul\n      add\n        /* \"contracts/Voting.sol\":774:811  candidates[_candidateIndex].voteCount */\n      0x01\n      add\n      0x00\n        /* \"contracts/Voting.sol\":774:814  candidates[_candidateIndex].voteCount+=1 */\n      dup3\n      dup3\n      sload\n      tag_47\n      swap2\n      swap1\n      tag_48\n      jump\t// in\n    tag_47:\n      swap3\n      pop\n      pop\n      dup2\n      swap1\n      sstore\n      pop\n        /* \"contracts/Voting.sol\":532:822  function vote(uint _candidateIndex) public{... */\n      pop\n      jump\t// out\n        /* \"contracts/Voting.sol\":123:163  mapping(address => bool) public hasVoted */\n    tag_16:\n      mstore(0x20, 0x01)\n      dup1\n      0x00\n      mstore\n      keccak256(0x00, 0x40)\n      0x00\n      swap2\n      pop\n      sload\n      swap1\n      0x0100\n      exp\n      swap1\n      div\n      0xff\n      and\n      dup2\n      jump\t// out\n        /* \"contracts/Voting.sol\":313:342  Candidate[] public candidates */\n    tag_21:\n      0x02\n      dup2\n      dup2\n      sload\n      dup2\n      lt\n      tag_49\n      jumpi\n      0x00\n      dup1\n      revert\n    tag_49:\n      swap1\n      0x00\n      mstore\n      keccak256(0x00, 0x20)\n      swap1\n      0x02\n      mul\n      add\n      0x00\n      swap2\n      pop\n      swap1\n      pop\n      dup1\n      0x00\n      add\n      dup1\n      sload\n      tag_51\n      swap1\n      tag_52\n      jump\t// in\n    tag_51:\n      dup1\n      0x1f\n      add\n      0x20\n      dup1\n      swap2\n      div\n      mul\n      0x20\n      add\n      mload(0x40)\n      swap1\n      dup2\n      add\n      0x40\n      mstore\n      dup1\n      swap3\n      swap2\n      swap1\n      dup2\n      dup2\n      mstore\n      0x20\n      add\n      dup3\n      dup1\n      sload\n      tag_53\n      swap1\n      tag_52\n      jump\t// in\n    tag_53:\n      dup1\n      iszero\n      tag_54\n      jumpi\n      dup1\n      0x1f\n      lt\n      tag_55\n      jumpi\n      0x0100\n      dup1\n      dup4\n      sload\n      div\n      mul\n      dup4\n      mstore\n      swap2\n      0x20\n      add\n      swap2\n      jump(tag_54)\n    tag_55:\n      dup3\n      add\n      swap2\n      swap1\n      0x00\n      mstore\n      keccak256(0x00, 0x20)\n      swap1\n    tag_56:\n      dup2\n      sload\n      dup2\n      mstore\n      swap1\n      0x01\n      add\n      swap1\n      0x20\n      add\n      dup1\n      dup4\n      gt\n      tag_56\n      jumpi\n      dup3\n      swap1\n      sub\n      0x1f\n      and\n      dup3\n      add\n      swap2\n    tag_54:\n      pop\n      pop\n      pop\n      pop\n      pop\n      swap1\n      dup1\n      0x01\n      add\n      sload\n      swap1\n      pop\n      dup3\n      jump\t// out\n        /* \"contracts/Voting.sol\":351:519  function addCandidate(string memory _name)public {... */\n    tag_27:\n        /* \"contracts/Voting.sol\":435:440  admin */\n      0x00\n      dup1\n      sload\n      swap1\n      0x0100\n      exp\n      swap1\n      div\n      0xffffffffffffffffffffffffffffffffffffffff\n      and\n        /* \"contracts/Voting.sol\":421:440  msg.sender == admin */\n      0xffffffffffffffffffffffffffffffffffffffff\n      and\n        /* \"contracts/Voting.sol\":421:431  msg.sender */\n      caller\n        /* \"contracts/Voting.sol\":421:440  msg.sender == admin */\n      0xffffffffffffffffffffffffffffffffffffffff\n      and\n      eq\n        /* \"contracts/Voting.sol\":413:463  require(msg.sender == admin, \"only admin can add\") */\n      tag_58\n      jumpi\n      mload(0x40)\n      0x08c379a000000000000000000000000000000000000000000000000000000000\n      dup2\n      mstore\n      0x04\n      add\n      tag_59\n      swap1\n      tag_60\n      jump\t// in\n    tag_59:\n      mload(0x40)\n      dup1\n      swap2\n      sub\n      swap1\n      revert\n    tag_58:\n        /* \"contracts/Voting.sol\":474:484  candidates */\n      0x02\n        /* \"contracts/Voting.sol\":490:508  Candidate(_name,0) */\n      mload(0x40)\n      dup1\n      0x40\n      add\n      0x40\n      mstore\n      dup1\n        /* \"contracts/Voting.sol\":500:505  _name */\n      dup4\n        /* \"contracts/Voting.sol\":490:508  Candidate(_name,0) */\n      dup2\n      mstore\n      0x20\n      add\n        /* \"contracts/Voting.sol\":506:507  0 */\n      0x00\n        /* \"contracts/Voting.sol\":490:508  Candidate(_name,0) */\n      dup2\n      mstore\n      pop\n        /* \"contracts/Voting.sol\":474:509  candidates.push(Candidate(_name,0)) */\n      swap1\n      dup1\n      0x01\n      dup2\n      sload\n      add\n      dup1\n      dup3\n      sstore\n      dup1\n      swap2\n      pop\n      pop\n      0x01\n      swap1\n      sub\n      swap1\n      0x00\n      mstore\n      keccak256(0x00, 0x20)\n      swap1\n      0x02\n      mul\n      add\n      0x00\n      swap1\n      swap2\n      swap1\n      swap2\n      swap1\n      swap2\n      pop\n      0x00\n      dup3\n      add\n      mload\n      dup2\n      0x00\n      add\n      swap1\n      dup2\n      tag_62\n      swap2\n      swap1\n      tag_63\n      jump\t// in\n    tag_62:\n      pop\n      0x20\n      dup3\n      add\n      mload\n      dup2\n      0x01\n      add\n      sstore\n      pop\n      pop\n        /* \"contracts/Voting.sol\":351:519  function addCandidate(string memory _name)public {... */\n      pop\n      jump\t// out\n        /* \"contracts/Voting.sol\":830:1254  function getWinner() public view returns (string memory) {... */\n    tag_29:\n        /* \"contracts/Voting.sol\":872:885  string memory */\n      0x60\n        /* \"contracts/Voting.sol\":922:923  0 */\n      0x00\n        /* \"contracts/Voting.sol\":902:912  candidates */\n      0x02\n        /* \"contracts/Voting.sol\":902:919  candidates.length */\n      dup1\n      sload\n      swap1\n      pop\n        /* \"contracts/Voting.sol\":902:923  candidates.length > 0 */\n      gt\n        /* \"contracts/Voting.sol\":894:951  require(candidates.length > 0, \"No candidates available\") */\n      tag_65\n      jumpi\n      mload(0x40)\n      0x08c379a000000000000000000000000000000000000000000000000000000000\n      dup2\n      mstore\n      0x04\n      add\n      tag_66\n      swap1\n      tag_67\n      jump\t// in\n    tag_66:\n      mload(0x40)\n      dup1\n      swap2\n      sub\n      swap1\n      revert\n    tag_65:\n        /* \"contracts/Voting.sol\":960:976  uint winnerIndex */\n      0x00\n        /* \"contracts/Voting.sol\":987:1000  uint maxVotes */\n      dup1\n        /* \"contracts/Voting.sol\":1018:1024  uint i */\n      0x00\n        /* \"contracts/Voting.sol\":1013:1207  for (uint i = 0; i < candidates.length; i++) {... */\n    tag_68:\n        /* \"contracts/Voting.sol\":1034:1044  candidates */\n      0x02\n        /* \"contracts/Voting.sol\":1034:1051  candidates.length */\n      dup1\n      sload\n      swap1\n      pop\n        /* \"contracts/Voting.sol\":1030:1031  i */\n      dup2\n        /* \"contracts/Voting.sol\":1030:1051  i < candidates.length */\n      lt\n        /* \"contracts/Voting.sol\":1013:1207  for (uint i = 0; i < candidates.length; i++) {... */\n      iszero\n      tag_69\n      jumpi\n        /* \"contracts/Voting.sol\":1099:1107  maxVotes */\n      dup2\n        /* \"contracts/Voting.sol\":1073:1083  candidates */\n      0x02\n        /* \"contracts/Voting.sol\":1084:1085  i */\n      dup3\n        /* \"contracts/Voting.sol\":1073:1086  candidates[i] */\n      dup2\n      sload\n      dup2\n      lt\n      tag_71\n      jumpi\n      tag_72\n      tag_45\n      jump\t// in\n    tag_72:\n    tag_71:\n      swap1\n      0x00\n      mstore\n      keccak256(0x00, 0x20)\n      swap1\n      0x02\n      mul\n      add\n        /* \"contracts/Voting.sol\":1073:1096  candidates[i].voteCount */\n      0x01\n      add\n      sload\n        /* \"contracts/Voting.sol\":1073:1107  candidates[i].voteCount > maxVotes */\n      gt\n        /* \"contracts/Voting.sol\":1069:1200  if (candidates[i].voteCount > maxVotes) {... */\n      iszero\n      tag_74\n      jumpi\n        /* \"contracts/Voting.sol\":1135:1145  candidates */\n      0x02\n        /* \"contracts/Voting.sol\":1146:1147  i */\n      dup2\n        /* \"contracts/Voting.sol\":1135:1148  candidates[i] */\n      dup2\n      sload\n      dup2\n      lt\n      tag_75\n      jumpi\n      tag_76\n      tag_45\n      jump\t// in\n    tag_76:\n    tag_75:\n      swap1\n      0x00\n      mstore\n      keccak256(0x00, 0x20)\n      swap1\n      0x02\n      mul\n      add\n        /* \"contracts/Voting.sol\":1135:1158  candidates[i].voteCount */\n      0x01\n      add\n      sload\n        /* \"contracts/Voting.sol\":1124:1158  maxVotes = candidates[i].voteCount */\n      swap2\n      pop\n        /* \"contracts/Voting.sol\":1187:1188  i */\n      dup1\n        /* \"contracts/Voting.sol\":1173:1188  winnerIndex = i */\n      swap3\n      pop\n        /* \"contracts/Voting.sol\":1069:1200  if (candidates[i].voteCount > maxVotes) {... */\n    tag_74:\n        /* \"contracts/Voting.sol\":1053:1056  i++ */\n      dup1\n      dup1\n      0x01\n      add\n      swap2\n      pop\n      pop\n        /* \"contracts/Voting.sol\":1013:1207  for (uint i = 0; i < candidates.length; i++) {... */\n      jump(tag_68)\n    tag_69:\n      pop\n        /* \"contracts/Voting.sol\":1222:1232  candidates */\n      0x02\n        /* \"contracts/Voting.sol\":1233:1244  winnerIndex */\n      dup3\n        /* \"contracts/Voting.sol\":1222:1245  candidates[winnerIndex] */\n      dup2\n      sload\n      dup2\n      lt\n      tag_78\n      jumpi\n      tag_79\n      tag_45\n      jump\t// in\n    tag_79:\n    tag_78:\n      swap1\n      0x00\n      mstore\n      keccak256(0x00, 0x20)\n      swap1\n      0x02\n      mul\n      add\n        /* \"contracts/Voting.sol\":1222:1250  candidates[winnerIndex].name */\n      0x00\n      add\n        /* \"contracts/Voting.sol\":1215:1250  return candidates[winnerIndex].name */\n      dup1\n      sload\n      tag_81\n      swap1\n      tag_52\n      jump\t// in\n    tag_81:\n      dup1\n      0x1f\n      add\n      0x20\n      dup1\n      swap2\n      div\n      mul\n      0x20\n      add\n      mload(0x40)\n      swap1\n      dup2\n      add\n      0x40\n      mstore\n      dup1\n      swap3\n      swap2\n      swap1\n      dup2\n      dup2\n      mstore\n      0x20\n      add\n      dup3\n      dup1\n      sload\n      tag_82\n      swap1\n      tag_52\n      jump\t// in\n    tag_82:\n      dup1\n      iszero\n      tag_83\n      jumpi\n      dup1\n      0x1f\n      lt\n      tag_84\n      jumpi\n      0x0100\n      dup1\n      dup4\n      sload\n      div\n      mul\n      dup4\n      mstore\n      swap2\n      0x20\n      add\n      swap2\n      jump(tag_83)\n    tag_84:\n      dup3\n      add\n      swap2\n      swap1\n      0x00\n      mstore\n      keccak256(0x00, 0x20)\n      swap1\n    tag_85:\n      dup2\n      sload\n      dup2\n      mstore\n      swap1\n      0x01\n      add\n      swap1\n      0x20\n      add\n      dup1\n      dup4\n      gt\n      tag_85\n      jumpi\n      dup3\n      swap1\n      sub\n      0x1f\n      and\n      dup3\n      add\n      swap2\n    tag_83:\n      pop\n      pop\n      pop\n      pop\n      pop\n      swap3\n      pop\n      pop\n      pop\n        /* \"contracts/Voting.sol\":830:1254  function getWinner() public view returns (string memory) {... */\n      swap1\n      jump\t// out\n        /* \"contracts/Voting.sol\":94:114  address public admin */\n    tag_33:\n      0x00\n      dup1\n      sload\n      swap1\n      0x0100\n      exp\n      swap1\n      div\n      0xffffffffffffffffffffffffffffffffffffffff\n      and\n      dup2\n      jump\t// out\n        /* \"#utility.yul\":7:82   */\n    tag_86:\n        /* \"#utility.yul\":40:46   */\n      0x00\n        /* \"#utility.yul\":73:75   */\n      0x40\n        /* \"#utility.yul\":67:76   */\n      mload\n        /* \"#utility.yul\":57:76   */\n      swap1\n      pop\n        /* \"#utility.yul\":7:82   */\n      swap1\n      jump\t// out\n        /* \"#utility.yul\":88:205   */\n    tag_87:\n        /* \"#utility.yul\":197:198   */\n      0x00\n        /* \"#utility.yul\":194:195   */\n      dup1\n        /* \"#utility.yul\":187:199   */\n      revert\n        /* \"#utility.yul\":211:328   */\n    tag_88:\n        /* \"#utility.yul\":320:321   */\n      0x00\n        /* \"#utility.yul\":317:318   */\n      dup1\n        /* \"#utility.yul\":310:322   */\n      revert\n        /* \"#utility.yul\":334:411   */\n    tag_89:\n        /* \"#utility.yul\":371:378   */\n      0x00\n        /* \"#utility.yul\":400:405   */\n      dup2\n        /* \"#utility.yul\":389:405   */\n      swap1\n      pop\n        /* \"#utility.yul\":334:411   */\n      swap2\n      swap1\n      pop\n      jump\t// out\n        /* \"#utility.yul\":417:539   */\n    tag_90:\n        /* \"#utility.yul\":490:514   */\n      tag_145\n        /* \"#utility.yul\":508:513   */\n      dup2\n        /* \"#utility.yul\":490:514   */\n      tag_89\n      jump\t// in\n    tag_145:\n        /* \"#utility.yul\":483:488   */\n      dup2\n        /* \"#utility.yul\":480:515   */\n      eq\n        /* \"#utility.yul\":470:533   */\n      tag_146\n      jumpi\n        /* \"#utility.yul\":529:530   */\n      0x00\n        /* \"#utility.yul\":526:527   */\n      dup1\n        /* \"#utility.yul\":519:531   */\n      revert\n        /* \"#utility.yul\":470:533   */\n    tag_146:\n        /* \"#utility.yul\":417:539   */\n      pop\n      jump\t// out\n        /* \"#utility.yul\":545:684   */\n    tag_91:\n        /* \"#utility.yul\":591:596   */\n      0x00\n        /* \"#utility.yul\":629:635   */\n      dup2\n        /* \"#utility.yul\":616:636   */\n      calldataload\n        /* \"#utility.yul\":607:636   */\n      swap1\n      pop\n        /* \"#utility.yul\":645:678   */\n      tag_148\n        /* \"#utility.yul\":672:677   */\n      dup2\n        /* \"#utility.yul\":645:678   */\n      tag_90\n      jump\t// in\n    tag_148:\n        /* \"#utility.yul\":545:684   */\n      swap3\n      swap2\n      pop\n      pop\n      jump\t// out\n        /* \"#utility.yul\":690:1019   */\n    tag_11:\n        /* \"#utility.yul\":749:755   */\n      0x00\n        /* \"#utility.yul\":798:800   */\n      0x20\n        /* \"#utility.yul\":786:795   */\n      dup3\n        /* \"#utility.yul\":777:784   */\n      dup5\n        /* \"#utility.yul\":773:796   */\n      sub\n        /* \"#utility.yul\":769:801   */\n      slt\n        /* \"#utility.yul\":766:885   */\n      iszero\n      tag_150\n      jumpi\n        /* \"#utility.yul\":804:883   */\n      tag_151\n      tag_87\n      jump\t// in\n    tag_151:\n        /* \"#utility.yul\":766:885   */\n    tag_150:\n        /* \"#utility.yul\":924:925   */\n      0x00\n        /* \"#utility.yul\":949:1002   */\n      tag_152\n        /* \"#utility.yul\":994:1001   */\n      dup5\n        /* \"#utility.yul\":985:991   */\n      dup3\n        /* \"#utility.yul\":974:983   */\n      dup6\n        /* \"#utility.yul\":970:992   */\n      add\n        /* \"#utility.yul\":949:1002   */\n      tag_91\n      jump\t// in\n    tag_152:\n        /* \"#utility.yul\":939:1002   */\n      swap2\n      pop\n        /* \"#utility.yul\":895:1012   */\n      pop\n        /* \"#utility.yul\":690:1019   */\n      swap3\n      swap2\n      pop\n      pop\n      jump\t// out\n        /* \"#utility.yul\":1025:1151   */\n    tag_92:\n        /* \"#utility.yul\":1062:1069   */\n      0x00\n        /* \"#utility.yul\":1102:1144   */\n      0xffffffffffffffffffffffffffffffffffffffff\n        /* \"#utility.yul\":1095:1100   */\n      dup3\n        /* \"#utility.yul\":1091:1145   */\n      and\n        /* \"#utility.yul\":1080:1145   */\n      swap1\n      pop\n        /* \"#utility.yul\":1025:1151   */\n      swap2\n      swap1\n      pop\n      jump\t// out\n        /* \"#utility.yul\":1157:1253   */\n    tag_93:\n        /* \"#utility.yul\":1194:1201   */\n      0x00\n        /* \"#utility.yul\":1223:1247   */\n      tag_155\n        /* \"#utility.yul\":1241:1246   */\n      dup3\n        /* \"#utility.yul\":1223:1247   */\n      tag_92\n      jump\t// in\n    tag_155:\n        /* \"#utility.yul\":1212:1247   */\n      swap1\n      pop\n        /* \"#utility.yul\":1157:1253   */\n      swap2\n      swap1\n      pop\n      jump\t// out\n        /* \"#utility.yul\":1259:1381   */\n    tag_94:\n        /* \"#utility.yul\":1332:1356   */\n      tag_157\n        /* \"#utility.yul\":1350:1355   */\n      dup2\n        /* \"#utility.yul\":1332:1356   */\n      tag_93\n      jump\t// in\n    tag_157:\n        /* \"#utility.yul\":1325:1330   */\n      dup2\n        /* \"#utility.yul\":1322:1357   */\n      eq\n        /* \"#utility.yul\":1312:1375   */\n      tag_158\n      jumpi\n        /* \"#utility.yul\":1371:1372   */\n      0x00\n        /* \"#utility.yul\":1368:1369   */\n      dup1\n        /* \"#utility.yul\":1361:1373   */\n      revert\n        /* \"#utility.yul\":1312:1375   */\n    tag_158:\n        /* \"#utility.yul\":1259:1381   */\n      pop\n      jump\t// out\n        /* \"#utility.yul\":1387:1526   */\n    tag_95:\n        /* \"#utility.yul\":1433:1438   */\n      0x00\n        /* \"#utility.yul\":1471:1477   */\n      dup2\n        /* \"#utility.yul\":1458:1478   */\n      calldataload\n        /* \"#utility.yul\":1449:1478   */\n      swap1\n      pop\n        /* \"#utility.yul\":1487:1520   */\n      tag_160\n        /* \"#utility.yul\":1514:1519   */\n      dup2\n        /* \"#utility.yul\":1487:1520   */\n      tag_94\n      jump\t// in\n    tag_160:\n        /* \"#utility.yul\":1387:1526   */\n      swap3\n      swap2\n      pop\n      pop\n      jump\t// out\n        /* \"#utility.yul\":1532:1861   */\n    tag_15:\n        /* \"#utility.yul\":1591:1597   */\n      0x00\n        /* \"#utility.yul\":1640:1642   */\n      0x20\n        /* \"#utility.yul\":1628:1637   */\n      dup3\n        /* \"#utility.yul\":1619:1626   */\n      dup5\n        /* \"#utility.yul\":1615:1638   */\n      sub\n        /* \"#utility.yul\":1611:1643   */\n      slt\n        /* \"#utility.yul\":1608:1727   */\n      iszero\n      tag_162\n      jumpi\n        /* \"#utility.yul\":1646:1725   */\n      tag_163\n      tag_87\n      jump\t// in\n    tag_163:\n        /* \"#utility.yul\":1608:1727   */\n    tag_162:\n        /* \"#utility.yul\":1766:1767   */\n      0x00\n        /* \"#utility.yul\":1791:1844   */\n      tag_164\n        /* \"#utility.yul\":1836:1843   */\n      dup5\n        /* \"#utility.yul\":1827:1833   */\n      dup3\n        /* \"#utility.yul\":1816:1825   */\n      dup6\n        /* \"#utility.yul\":1812:1834   */\n      add\n        /* \"#utility.yul\":1791:1844   */\n      tag_95\n      jump\t// in\n    tag_164:\n        /* \"#utility.yul\":1781:1844   */\n      swap2\n      pop\n        /* \"#utility.yul\":1737:1854   */\n      pop\n        /* \"#utility.yul\":1532:1861   */\n      swap3\n      swap2\n      pop\n      pop\n      jump\t// out\n        /* \"#utility.yul\":1867:1957   */\n    tag_96:\n        /* \"#utility.yul\":1901:1908   */\n      0x00\n        /* \"#utility.yul\":1944:1949   */\n      dup2\n        /* \"#utility.yul\":1937:1950   */\n      iszero\n        /* \"#utility.yul\":1930:1951   */\n      iszero\n        /* \"#utility.yul\":1919:1951   */\n      swap1\n      pop\n        /* \"#utility.yul\":1867:1957   */\n      swap2\n      swap1\n      pop\n      jump\t// out\n        /* \"#utility.yul\":1963:2072   */\n    tag_97:\n        /* \"#utility.yul\":2044:2065   */\n      tag_167\n        /* \"#utility.yul\":2059:2064   */\n      dup2\n        /* \"#utility.yul\":2044:2065   */\n      tag_96\n      jump\t// in\n    tag_167:\n        /* \"#utility.yul\":2039:2042   */\n      dup3\n        /* \"#utility.yul\":2032:2066   */\n      mstore\n        /* \"#utility.yul\":1963:2072   */\n      pop\n      pop\n      jump\t// out\n        /* \"#utility.yul\":2078:2288   */\n    tag_18:\n        /* \"#utility.yul\":2165:2169   */\n      0x00\n        /* \"#utility.yul\":2203:2205   */\n      0x20\n        /* \"#utility.yul\":2192:2201   */\n      dup3\n        /* \"#utility.yul\":2188:2206   */\n      add\n        /* \"#utility.yul\":2180:2206   */\n      swap1\n      pop\n        /* \"#utility.yul\":2216:2281   */\n      tag_169\n        /* \"#utility.yul\":2278:2279   */\n      0x00\n        /* \"#utility.yul\":2267:2276   */\n      dup4\n        /* \"#utility.yul\":2263:2280   */\n      add\n        /* \"#utility.yul\":2254:2260   */\n      dup5\n        /* \"#utility.yul\":2216:2281   */\n      tag_97\n      jump\t// in\n    tag_169:\n        /* \"#utility.yul\":2078:2288   */\n      swap3\n      swap2\n      pop\n      pop\n      jump\t// out\n        /* \"#utility.yul\":2294:2393   */\n    tag_98:\n        /* \"#utility.yul\":2346:2352   */\n      0x00\n        /* \"#utility.yul\":2380:2385   */\n      dup2\n        /* \"#utility.yul\":2374:2386   */\n      mload\n        /* \"#utility.yul\":2364:2386   */\n      swap1\n      pop\n        /* \"#utility.yul\":2294:2393   */\n      swap2\n      swap1\n      pop\n      jump\t// out\n        /* \"#utility.yul\":2399:2568   */\n    tag_99:\n        /* \"#utility.yul\":2483:2494   */\n      0x00\n        /* \"#utility.yul\":2517:2523   */\n      dup3\n        /* \"#utility.yul\":2512:2515   */\n      dup3\n        /* \"#utility.yul\":2505:2524   */\n      mstore\n        /* \"#utility.yul\":2557:2561   */\n      0x20\n        /* \"#utility.yul\":2552:2555   */\n      dup3\n        /* \"#utility.yul\":2548:2562   */\n      add\n        /* \"#utility.yul\":2533:2562   */\n      swap1\n      pop\n        /* \"#utility.yul\":2399:2568   */\n      swap3\n      swap2\n      pop\n      pop\n      jump\t// out\n        /* \"#utility.yul\":2574:2713   */\n    tag_100:\n        /* \"#utility.yul\":2663:2669   */\n      dup3\n        /* \"#utility.yul\":2658:2661   */\n      dup2\n        /* \"#utility.yul\":2653:2656   */\n      dup4\n        /* \"#utility.yul\":2647:2670   */\n      mcopy\n        /* \"#utility.yul\":2704:2705   */\n      0x00\n        /* \"#utility.yul\":2695:2701   */\n      dup4\n        /* \"#utility.yul\":2690:2693   */\n      dup4\n        /* \"#utility.yul\":2686:2702   */\n      add\n        /* \"#utility.yul\":2679:2706   */\n      mstore\n        /* \"#utility.yul\":2574:2713   */\n      pop\n      pop\n      pop\n      jump\t// out\n        /* \"#utility.yul\":2719:2821   */\n    tag_101:\n        /* \"#utility.yul\":2760:2766   */\n      0x00\n        /* \"#utility.yul\":2811:2813   */\n      0x1f\n        /* \"#utility.yul\":2807:2814   */\n      not\n        /* \"#utility.yul\":2802:2804   */\n      0x1f\n        /* \"#utility.yul\":2795:2800   */\n      dup4\n        /* \"#utility.yul\":2791:2805   */\n      add\n        /* \"#utility.yul\":2787:2815   */\n      and\n        /* \"#utility.yul\":2777:2815   */\n      swap1\n      pop\n        /* \"#utility.yul\":2719:2821   */\n      swap2\n      swap1\n      pop\n      jump\t// out\n        /* \"#utility.yul\":2827:3204   */\n    tag_102:\n        /* \"#utility.yul\":2915:2918   */\n      0x00\n        /* \"#utility.yul\":2943:2982   */\n      tag_175\n        /* \"#utility.yul\":2976:2981   */\n      dup3\n        /* \"#utility.yul\":2943:2982   */\n      tag_98\n      jump\t// in\n    tag_175:\n        /* \"#utility.yul\":2998:3069   */\n      tag_176\n        /* \"#utility.yul\":3062:3068   */\n      dup2\n        /* \"#utility.yul\":3057:3060   */\n      dup6\n        /* \"#utility.yul\":2998:3069   */\n      tag_99\n      jump\t// in\n    tag_176:\n        /* \"#utility.yul\":2991:3069   */\n      swap4\n      pop\n        /* \"#utility.yul\":3078:3143   */\n      tag_177\n        /* \"#utility.yul\":3136:3142   */\n      dup2\n        /* \"#utility.yul\":3131:3134   */\n      dup6\n        /* \"#utility.yul\":3124:3128   */\n      0x20\n        /* \"#utility.yul\":3117:3122   */\n      dup7\n        /* \"#utility.yul\":3113:3129   */\n      add\n        /* \"#utility.yul\":3078:3143   */\n      tag_100\n      jump\t// in\n    tag_177:\n        /* \"#utility.yul\":3168:3197   */\n      tag_178\n        /* \"#utility.yul\":3190:3196   */\n      dup2\n        /* \"#utility.yul\":3168:3197   */\n      tag_101\n      jump\t// in\n    tag_178:\n        /* \"#utility.yul\":3163:3166   */\n      dup5\n        /* \"#utility.yul\":3159:3198   */\n      add\n        /* \"#utility.yul\":3152:3198   */\n      swap2\n      pop\n        /* \"#utility.yul\":2919:3204   */\n      pop\n        /* \"#utility.yul\":2827:3204   */\n      swap3\n      swap2\n      pop\n      pop\n      jump\t// out\n        /* \"#utility.yul\":3210:3328   */\n    tag_103:\n        /* \"#utility.yul\":3297:3321   */\n      tag_180\n        /* \"#utility.yul\":3315:3320   */\n      dup2\n        /* \"#utility.yul\":3297:3321   */\n      tag_89\n      jump\t// in\n    tag_180:\n        /* \"#utility.yul\":3292:3295   */\n      dup3\n        /* \"#utility.yul\":3285:3322   */\n      mstore\n        /* \"#utility.yul\":3210:3328   */\n      pop\n      pop\n      jump\t// out\n        /* \"#utility.yul\":3334:3757   */\n    tag_23:\n        /* \"#utility.yul\":3475:3479   */\n      0x00\n        /* \"#utility.yul\":3513:3515   */\n      0x40\n        /* \"#utility.yul\":3502:3511   */\n      dup3\n        /* \"#utility.yul\":3498:3516   */\n      add\n        /* \"#utility.yul\":3490:3516   */\n      swap1\n      pop\n        /* \"#utility.yul\":3562:3571   */\n      dup2\n        /* \"#utility.yul\":3556:3560   */\n      dup2\n        /* \"#utility.yul\":3552:3572   */\n      sub\n        /* \"#utility.yul\":3548:3549   */\n      0x00\n        /* \"#utility.yul\":3537:3546   */\n      dup4\n        /* \"#utility.yul\":3533:3550   */\n      add\n        /* \"#utility.yul\":3526:3573   */\n      mstore\n        /* \"#utility.yul\":3590:3668   */\n      tag_182\n        /* \"#utility.yul\":3663:3667   */\n      dup2\n        /* \"#utility.yul\":3654:3660   */\n      dup6\n        /* \"#utility.yul\":3590:3668   */\n      tag_102\n      jump\t// in\n    tag_182:\n        /* \"#utility.yul\":3582:3668   */\n      swap1\n      pop\n        /* \"#utility.yul\":3678:3750   */\n      tag_183\n        /* \"#utility.yul\":3746:3748   */\n      0x20\n        /* \"#utility.yul\":3735:3744   */\n      dup4\n        /* \"#utility.yul\":3731:3749   */\n      add\n        /* \"#utility.yul\":3722:3728   */\n      dup5\n        /* \"#utility.yul\":3678:3750   */\n      tag_103\n      jump\t// in\n    tag_183:\n        /* \"#utility.yul\":3334:3757   */\n      swap4\n      swap3\n      pop\n      pop\n      pop\n      jump\t// out\n        /* \"#utility.yul\":3763:3880   */\n    tag_104:\n        /* \"#utility.yul\":3872:3873   */\n      0x00\n        /* \"#utility.yul\":3869:3870   */\n      dup1\n        /* \"#utility.yul\":3862:3874   */\n      revert\n        /* \"#utility.yul\":3886:4003   */\n    tag_105:\n        /* \"#utility.yul\":3995:3996   */\n      0x00\n        /* \"#utility.yul\":3992:3993   */\n      dup1\n        /* \"#utility.yul\":3985:3997   */\n      revert\n        /* \"#utility.yul\":4009:4189   */\n    tag_106:\n        /* \"#utility.yul\":4057:4134   */\n      0x4e487b7100000000000000000000000000000000000000000000000000000000\n        /* \"#utility.yul\":4054:4055   */\n      0x00\n        /* \"#utility.yul\":4047:4135   */\n      mstore\n        /* \"#utility.yul\":4154:4158   */\n      0x41\n        /* \"#utility.yul\":4151:4152   */\n      0x04\n        /* \"#utility.yul\":4144:4159   */\n      mstore\n        /* \"#utility.yul\":4178:4182   */\n      0x24\n        /* \"#utility.yul\":4175:4176   */\n      0x00\n        /* \"#utility.yul\":4168:4183   */\n      revert\n        /* \"#utility.yul\":4195:4476   */\n    tag_107:\n        /* \"#utility.yul\":4278:4305   */\n      tag_188\n        /* \"#utility.yul\":4300:4304   */\n      dup3\n        /* \"#utility.yul\":4278:4305   */\n      tag_101\n      jump\t// in\n    tag_188:\n        /* \"#utility.yul\":4270:4276   */\n      dup2\n        /* \"#utility.yul\":4266:4306   */\n      add\n        /* \"#utility.yul\":4408:4414   */\n      dup2\n        /* \"#utility.yul\":4396:4406   */\n      dup2\n        /* \"#utility.yul\":4393:4415   */\n      lt\n        /* \"#utility.yul\":4372:4390   */\n      0xffffffffffffffff\n        /* \"#utility.yul\":4360:4370   */\n      dup3\n        /* \"#utility.yul\":4357:4391   */\n      gt\n        /* \"#utility.yul\":4354:4416   */\n      or\n        /* \"#utility.yul\":4351:4439   */\n      iszero\n      tag_189\n      jumpi\n        /* \"#utility.yul\":4419:4437   */\n      tag_190\n      tag_106\n      jump\t// in\n    tag_190:\n        /* \"#utility.yul\":4351:4439   */\n    tag_189:\n        /* \"#utility.yul\":4459:4469   */\n      dup1\n        /* \"#utility.yul\":4455:4457   */\n      0x40\n        /* \"#utility.yul\":4448:4470   */\n      mstore\n        /* \"#utility.yul\":4238:4476   */\n      pop\n        /* \"#utility.yul\":4195:4476   */\n      pop\n      pop\n      jump\t// out\n        /* \"#utility.yul\":4482:4611   */\n    tag_108:\n        /* \"#utility.yul\":4516:4522   */\n      0x00\n        /* \"#utility.yul\":4543:4563   */\n      tag_192\n      tag_86\n      jump\t// in\n    tag_192:\n        /* \"#utility.yul\":4533:4563   */\n      swap1\n      pop\n        /* \"#utility.yul\":4572:4605   */\n      tag_193\n        /* \"#utility.yul\":4600:4604   */\n      dup3\n        /* \"#utility.yul\":4592:4598   */\n      dup3\n        /* \"#utility.yul\":4572:4605   */\n      tag_107\n      jump\t// in\n    tag_193:\n        /* \"#utility.yul\":4482:4611   */\n      swap2\n      swap1\n      pop\n      jump\t// out\n        /* \"#utility.yul\":4617:4925   */\n    tag_109:\n        /* \"#utility.yul\":4679:4683   */\n      0x00\n        /* \"#utility.yul\":4769:4787   */\n      0xffffffffffffffff\n        /* \"#utility.yul\":4761:4767   */\n      dup3\n        /* \"#utility.yul\":4758:4788   */\n      gt\n        /* \"#utility.yul\":4755:4811   */\n      iszero\n      tag_195\n      jumpi\n        /* \"#utility.yul\":4791:4809   */\n      tag_196\n      tag_106\n      jump\t// in\n    tag_196:\n        /* \"#utility.yul\":4755:4811   */\n    tag_195:\n        /* \"#utility.yul\":4829:4858   */\n      tag_197\n        /* \"#utility.yul\":4851:4857   */\n      dup3\n        /* \"#utility.yul\":4829:4858   */\n      tag_101\n      jump\t// in\n    tag_197:\n        /* \"#utility.yul\":4821:4858   */\n      swap1\n      pop\n        /* \"#utility.yul\":4913:4917   */\n      0x20\n        /* \"#utility.yul\":4907:4911   */\n      dup2\n        /* \"#utility.yul\":4903:4918   */\n      add\n        /* \"#utility.yul\":4895:4918   */\n      swap1\n      pop\n        /* \"#utility.yul\":4617:4925   */\n      swap2\n      swap1\n      pop\n      jump\t// out\n        /* \"#utility.yul\":4931:5079   */\n    tag_110:\n        /* \"#utility.yul\":5029:5035   */\n      dup3\n        /* \"#utility.yul\":5024:5027   */\n      dup2\n        /* \"#utility.yul\":5019:5022   */\n      dup4\n        /* \"#utility.yul\":5006:5036   */\n      calldatacopy\n        /* \"#utility.yul\":5070:5071   */\n      0x00\n        /* \"#utility.yul\":5061:5067   */\n      dup4\n        /* \"#utility.yul\":5056:5059   */\n      dup4\n        /* \"#utility.yul\":5052:5068   */\n      add\n        /* \"#utility.yul\":5045:5072   */\n      mstore\n        /* \"#utility.yul\":4931:5079   */\n      pop\n      pop\n      pop\n      jump\t// out\n        /* \"#utility.yul\":5085:5510   */\n    tag_111:\n        /* \"#utility.yul\":5163:5168   */\n      0x00\n        /* \"#utility.yul\":5188:5254   */\n      tag_200\n        /* \"#utility.yul\":5204:5253   */\n      tag_201\n        /* \"#utility.yul\":5246:5252   */\n      dup5\n        /* \"#utility.yul\":5204:5253   */\n      tag_109\n      jump\t// in\n    tag_201:\n        /* \"#utility.yul\":5188:5254   */\n      tag_108\n      jump\t// in\n    tag_200:\n        /* \"#utility.yul\":5179:5254   */\n      swap1\n      pop\n        /* \"#utility.yul\":5277:5283   */\n      dup3\n        /* \"#utility.yul\":5270:5275   */\n      dup2\n        /* \"#utility.yul\":5263:5284   */\n      mstore\n        /* \"#utility.yul\":5315:5319   */\n      0x20\n        /* \"#utility.yul\":5308:5313   */\n      dup2\n        /* \"#utility.yul\":5304:5320   */\n      add\n        /* \"#utility.yul\":5353:5356   */\n      dup5\n        /* \"#utility.yul\":5344:5350   */\n      dup5\n        /* \"#utility.yul\":5339:5342   */\n      dup5\n        /* \"#utility.yul\":5335:5351   */\n      add\n        /* \"#utility.yul\":5332:5357   */\n      gt\n        /* \"#utility.yul\":5329:5441   */\n      iszero\n      tag_202\n      jumpi\n        /* \"#utility.yul\":5360:5439   */\n      tag_203\n      tag_105\n      jump\t// in\n    tag_203:\n        /* \"#utility.yul\":5329:5441   */\n    tag_202:\n        /* \"#utility.yul\":5450:5504   */\n      tag_204\n        /* \"#utility.yul\":5497:5503   */\n      dup5\n        /* \"#utility.yul\":5492:5495   */\n      dup3\n        /* \"#utility.yul\":5487:5490   */\n      dup6\n        /* \"#utility.yul\":5450:5504   */\n      tag_110\n      jump\t// in\n    tag_204:\n        /* \"#utility.yul\":5169:5510   */\n      pop\n        /* \"#utility.yul\":5085:5510   */\n      swap4\n      swap3\n      pop\n      pop\n      pop\n      jump\t// out\n        /* \"#utility.yul\":5530:5870   */\n    tag_112:\n        /* \"#utility.yul\":5586:5591   */\n      0x00\n        /* \"#utility.yul\":5635:5638   */\n      dup3\n        /* \"#utility.yul\":5628:5632   */\n      0x1f\n        /* \"#utility.yul\":5620:5626   */\n      dup4\n        /* \"#utility.yul\":5616:5633   */\n      add\n        /* \"#utility.yul\":5612:5639   */\n      slt\n        /* \"#utility.yul\":5602:5724   */\n      tag_206\n      jumpi\n        /* \"#utility.yul\":5643:5722   */\n      tag_207\n      tag_104\n      jump\t// in\n    tag_207:\n        /* \"#utility.yul\":5602:5724   */\n    tag_206:\n        /* \"#utility.yul\":5760:5766   */\n      dup2\n        /* \"#utility.yul\":5747:5767   */\n      calldataload\n        /* \"#utility.yul\":5785:5864   */\n      tag_208\n        /* \"#utility.yul\":5860:5863   */\n      dup5\n        /* \"#utility.yul\":5852:5858   */\n      dup3\n        /* \"#utility.yul\":5845:5849   */\n      0x20\n        /* \"#utility.yul\":5837:5843   */\n      dup7\n        /* \"#utility.yul\":5833:5850   */\n      add\n        /* \"#utility.yul\":5785:5864   */\n      tag_111\n      jump\t// in\n    tag_208:\n        /* \"#utility.yul\":5776:5864   */\n      swap2\n      pop\n        /* \"#utility.yul\":5592:5870   */\n      pop\n        /* \"#utility.yul\":5530:5870   */\n      swap3\n      swap2\n      pop\n      pop\n      jump\t// out\n        /* \"#utility.yul\":5876:6385   */\n    tag_26:\n        /* \"#utility.yul\":5945:5951   */\n      0x00\n        /* \"#utility.yul\":5994:5996   */\n      0x20\n        /* \"#utility.yul\":5982:5991   */\n      dup3\n        /* \"#utility.yul\":5973:5980   */\n      dup5\n        /* \"#utility.yul\":5969:5992   */\n      sub\n        /* \"#utility.yul\":5965:5997   */\n      slt\n        /* \"#utility.yul\":5962:6081   */\n      iszero\n      tag_210\n      jumpi\n        /* \"#utility.yul\":6000:6079   */\n      tag_211\n      tag_87\n      jump\t// in\n    tag_211:\n        /* \"#utility.yul\":5962:6081   */\n    tag_210:\n        /* \"#utility.yul\":6148:6149   */\n      0x00\n        /* \"#utility.yul\":6137:6146   */\n      dup3\n        /* \"#utility.yul\":6133:6150   */\n      add\n        /* \"#utility.yul\":6120:6151   */\n      calldataload\n        /* \"#utility.yul\":6178:6196   */\n      0xffffffffffffffff\n        /* \"#utility.yul\":6170:6176   */\n      dup2\n        /* \"#utility.yul\":6167:6197   */\n      gt\n        /* \"#utility.yul\":6164:6281   */\n      iszero\n      tag_212\n      jumpi\n        /* \"#utility.yul\":6200:6279   */\n      tag_213\n      tag_88\n      jump\t// in\n    tag_213:\n        /* \"#utility.yul\":6164:6281   */\n    tag_212:\n        /* \"#utility.yul\":6305:6368   */\n      tag_214\n        /* \"#utility.yul\":6360:6367   */\n      dup5\n        /* \"#utility.yul\":6351:6357   */\n      dup3\n        /* \"#utility.yul\":6340:6349   */\n      dup6\n        /* \"#utility.yul\":6336:6358   */\n      add\n        /* \"#utility.yul\":6305:6368   */\n      tag_112\n      jump\t// in\n    tag_214:\n        /* \"#utility.yul\":6295:6368   */\n      swap2\n      pop\n        /* \"#utility.yul\":6091:6378   */\n      pop\n        /* \"#utility.yul\":5876:6385   */\n      swap3\n      swap2\n      pop\n      pop\n      jump\t// out\n        /* \"#utility.yul\":6391:6704   */\n    tag_31:\n        /* \"#utility.yul\":6504:6508   */\n      0x00\n        /* \"#utility.yul\":6542:6544   */\n      0x20\n        /* \"#utility.yul\":6531:6540   */\n      dup3\n        /* \"#utility.yul\":6527:6545   */\n      add\n        /* \"#utility.yul\":6519:6545   */\n      swap1\n      pop\n        /* \"#utility.yul\":6591:6600   */\n      dup2\n        /* \"#utility.yul\":6585:6589   */\n      dup2\n        /* \"#utility.yul\":6581:6601   */\n      sub\n        /* \"#utility.yul\":6577:6578   */\n      0x00\n        /* \"#utility.yul\":6566:6575   */\n      dup4\n        /* \"#utility.yul\":6562:6579   */\n      add\n        /* \"#utility.yul\":6555:6602   */\n      mstore\n        /* \"#utility.yul\":6619:6697   */\n      tag_216\n        /* \"#utility.yul\":6692:6696   */\n      dup2\n        /* \"#utility.yul\":6683:6689   */\n      dup5\n        /* \"#utility.yul\":6619:6697   */\n      tag_102\n      jump\t// in\n    tag_216:\n        /* \"#utility.yul\":6611:6697   */\n      swap1\n      pop\n        /* \"#utility.yul\":6391:6704   */\n      swap3\n      swap2\n      pop\n      pop\n      jump\t// out\n        /* \"#utility.yul\":6710:6828   */\n    tag_113:\n        /* \"#utility.yul\":6797:6821   */\n      tag_218\n        /* \"#utility.yul\":6815:6820   */\n      dup2\n        /* \"#utility.yul\":6797:6821   */\n      tag_93\n      jump\t// in\n    tag_218:\n        /* \"#utility.yul\":6792:6795   */\n      dup3\n        /* \"#utility.yul\":6785:6822   */\n      mstore\n        /* \"#utility.yul\":6710:6828   */\n      pop\n      pop\n      jump\t// out\n        /* \"#utility.yul\":6834:7056   */\n    tag_35:\n        /* \"#utility.yul\":6927:6931   */\n      0x00\n        /* \"#utility.yul\":6965:6967   */\n      0x20\n        /* \"#utility.yul\":6954:6963   */\n      dup3\n        /* \"#utility.yul\":6950:6968   */\n      add\n        /* \"#utility.yul\":6942:6968   */\n      swap1\n      pop\n        /* \"#utility.yul\":6978:7049   */\n      tag_220\n        /* \"#utility.yul\":7046:7047   */\n      0x00\n        /* \"#utility.yul\":7035:7044   */\n      dup4\n        /* \"#utility.yul\":7031:7048   */\n      add\n        /* \"#utility.yul\":7022:7028   */\n      dup5\n        /* \"#utility.yul\":6978:7049   */\n      tag_113\n      jump\t// in\n    tag_220:\n        /* \"#utility.yul\":6834:7056   */\n      swap3\n      swap2\n      pop\n      pop\n      jump\t// out\n        /* \"#utility.yul\":7062:7235   */\n    tag_114:\n        /* \"#utility.yul\":7202:7227   */\n      0x596f75206861766520616c726561647920766f74656421000000000000000000\n        /* \"#utility.yul\":7198:7199   */\n      0x00\n        /* \"#utility.yul\":7190:7196   */\n      dup3\n        /* \"#utility.yul\":7186:7200   */\n      add\n        /* \"#utility.yul\":7179:7228   */\n      mstore\n        /* \"#utility.yul\":7062:7235   */\n      pop\n      jump\t// out\n        /* \"#utility.yul\":7241:7607   */\n    tag_115:\n        /* \"#utility.yul\":7383:7386   */\n      0x00\n        /* \"#utility.yul\":7404:7471   */\n      tag_223\n        /* \"#utility.yul\":7468:7470   */\n      0x17\n        /* \"#utility.yul\":7463:7466   */\n      dup4\n        /* \"#utility.yul\":7404:7471   */\n      tag_99\n      jump\t// in\n    tag_223:\n        /* \"#utility.yul\":7397:7471   */\n      swap2\n      pop\n        /* \"#utility.yul\":7480:7573   */\n      tag_224\n        /* \"#utility.yul\":7569:7572   */\n      dup3\n        /* \"#utility.yul\":7480:7573   */\n      tag_114\n      jump\t// in\n    tag_224:\n        /* \"#utility.yul\":7598:7600   */\n      0x20\n        /* \"#utility.yul\":7593:7596   */\n      dup3\n        /* \"#utility.yul\":7589:7601   */\n      add\n        /* \"#utility.yul\":7582:7601   */\n      swap1\n      pop\n        /* \"#utility.yul\":7241:7607   */\n      swap2\n      swap1\n      pop\n      jump\t// out\n        /* \"#utility.yul\":7613:8032   */\n    tag_39:\n        /* \"#utility.yul\":7779:7783   */\n      0x00\n        /* \"#utility.yul\":7817:7819   */\n      0x20\n        /* \"#utility.yul\":7806:7815   */\n      dup3\n        /* \"#utility.yul\":7802:7820   */\n      add\n        /* \"#utility.yul\":7794:7820   */\n      swap1\n      pop\n        /* \"#utility.yul\":7866:7875   */\n      dup2\n        /* \"#utility.yul\":7860:7864   */\n      dup2\n        /* \"#utility.yul\":7856:7876   */\n      sub\n        /* \"#utility.yul\":7852:7853   */\n      0x00\n        /* \"#utility.yul\":7841:7850   */\n      dup4\n        /* \"#utility.yul\":7837:7854   */\n      add\n        /* \"#utility.yul\":7830:7877   */\n      mstore\n        /* \"#utility.yul\":7894:8025   */\n      tag_226\n        /* \"#utility.yul\":8020:8024   */\n      dup2\n        /* \"#utility.yul\":7894:8025   */\n      tag_115\n      jump\t// in\n    tag_226:\n        /* \"#utility.yul\":7886:8025   */\n      swap1\n      pop\n        /* \"#utility.yul\":7613:8032   */\n      swap2\n      swap1\n      pop\n      jump\t// out\n        /* \"#utility.yul\":8038:8211   */\n    tag_116:\n        /* \"#utility.yul\":8178:8203   */\n      0x496e76616c69642063616e64696461746520696e646578000000000000000000\n        /* \"#utility.yul\":8174:8175   */\n      0x00\n        /* \"#utility.yul\":8166:8172   */\n      dup3\n        /* \"#utility.yul\":8162:8176   */\n      add\n        /* \"#utility.yul\":8155:8204   */\n      mstore\n        /* \"#utility.yul\":8038:8211   */\n      pop\n      jump\t// out\n        /* \"#utility.yul\":8217:8583   */\n    tag_117:\n        /* \"#utility.yul\":8359:8362   */\n      0x00\n        /* \"#utility.yul\":8380:8447   */\n      tag_229\n        /* \"#utility.yul\":8444:8446   */\n      0x17\n        /* \"#utility.yul\":8439:8442   */\n      dup4\n        /* \"#utility.yul\":8380:8447   */\n      tag_99\n      jump\t// in\n    tag_229:\n        /* \"#utility.yul\":8373:8447   */\n      swap2\n      pop\n        /* \"#utility.yul\":8456:8549   */\n      tag_230\n        /* \"#utility.yul\":8545:8548   */\n      dup3\n        /* \"#utility.yul\":8456:8549   */\n      tag_116\n      jump\t// in\n    tag_230:\n        /* \"#utility.yul\":8574:8576   */\n      0x20\n        /* \"#utility.yul\":8569:8572   */\n      dup3\n        /* \"#utility.yul\":8565:8577   */\n      add\n        /* \"#utility.yul\":8558:8577   */\n      swap1\n      pop\n        /* \"#utility.yul\":8217:8583   */\n      swap2\n      swap1\n      pop\n      jump\t// out\n        /* \"#utility.yul\":8589:9008   */\n    tag_42:\n        /* \"#utility.yul\":8755:8759   */\n      0x00\n        /* \"#utility.yul\":8793:8795   */\n      0x20\n        /* \"#utility.yul\":8782:8791   */\n      dup3\n        /* \"#utility.yul\":8778:8796   */\n      add\n        /* \"#utility.yul\":8770:8796   */\n      swap1\n      pop\n        /* \"#utility.yul\":8842:8851   */\n      dup2\n        /* \"#utility.yul\":8836:8840   */\n      dup2\n        /* \"#utility.yul\":8832:8852   */\n      sub\n        /* \"#utility.yul\":8828:8829   */\n      0x00\n        /* \"#utility.yul\":8817:8826   */\n      dup4\n        /* \"#utility.yul\":8813:8830   */\n      add\n        /* \"#utility.yul\":8806:8853   */\n      mstore\n        /* \"#utility.yul\":8870:9001   */\n      tag_232\n        /* \"#utility.yul\":8996:9000   */\n      dup2\n        /* \"#utility.yul\":8870:9001   */\n      tag_117\n      jump\t// in\n    tag_232:\n        /* \"#utility.yul\":8862:9001   */\n      swap1\n      pop\n        /* \"#utility.yul\":8589:9008   */\n      swap2\n      swap1\n      pop\n      jump\t// out\n        /* \"#utility.yul\":9014:9194   */\n    tag_45:\n        /* \"#utility.yul\":9062:9139   */\n      0x4e487b7100000000000000000000000000000000000000000000000000000000\n        /* \"#utility.yul\":9059:9060   */\n      0x00\n        /* \"#utility.yul\":9052:9140   */\n      mstore\n        /* \"#utility.yul\":9159:9163   */\n      0x32\n        /* \"#utility.yul\":9156:9157   */\n      0x04\n        /* \"#utility.yul\":9149:9164   */\n      mstore\n        /* \"#utility.yul\":9183:9187   */\n      0x24\n        /* \"#utility.yul\":9180:9181   */\n      0x00\n        /* \"#utility.yul\":9173:9188   */\n      revert\n        /* \"#utility.yul\":9200:9380   */\n    tag_118:\n        /* \"#utility.yul\":9248:9325   */\n      0x4e487b7100000000000000000000000000000000000000000000000000000000\n        /* \"#utility.yul\":9245:9246   */\n      0x00\n        /* \"#utility.yul\":9238:9326   */\n      mstore\n        /* \"#utility.yul\":9345:9349   */\n      0x11\n        /* \"#utility.yul\":9342:9343   */\n      0x04\n        /* \"#utility.yul\":9335:9350   */\n      mstore\n        /* \"#utility.yul\":9369:9373   */\n      0x24\n        /* \"#utility.yul\":9366:9367   */\n      0x00\n        /* \"#utility.yul\":9359:9374   */\n      revert\n        /* \"#utility.yul\":9386:9577   */\n    tag_48:\n        /* \"#utility.yul\":9426:9429   */\n      0x00\n        /* \"#utility.yul\":9445:9465   */\n      tag_236\n        /* \"#utility.yul\":9463:9464   */\n      dup3\n        /* \"#utility.yul\":9445:9465   */\n      tag_89\n      jump\t// in\n    tag_236:\n        /* \"#utility.yul\":9440:9465   */\n      swap2\n      pop\n        /* \"#utility.yul\":9479:9499   */\n      tag_237\n        /* \"#utility.yul\":9497:9498   */\n      dup4\n        /* \"#utility.yul\":9479:9499   */\n      tag_89\n      jump\t// in\n    tag_237:\n        /* \"#utility.yul\":9474:9499   */\n      swap3\n      pop\n        /* \"#utility.yul\":9522:9523   */\n      dup3\n        /* \"#utility.yul\":9519:9520   */\n      dup3\n        /* \"#utility.yul\":9515:9524   */\n      add\n        /* \"#utility.yul\":9508:9524   */\n      swap1\n      pop\n        /* \"#utility.yul\":9543:9546   */\n      dup1\n        /* \"#utility.yul\":9540:9541   */\n      dup3\n        /* \"#utility.yul\":9537:9547   */\n      gt\n        /* \"#utility.yul\":9534:9570   */\n      iszero\n      tag_238\n      jumpi\n        /* \"#utility.yul\":9550:9568   */\n      tag_239\n      tag_118\n      jump\t// in\n    tag_239:\n        /* \"#utility.yul\":9534:9570   */\n    tag_238:\n        /* \"#utility.yul\":9386:9577   */\n      swap3\n      swap2\n      pop\n      pop\n      jump\t// out\n        /* \"#utility.yul\":9583:9763   */\n    tag_119:\n        /* \"#utility.yul\":9631:9708   */\n      0x4e487b7100000000000000000000000000000000000000000000000000000000\n        /* \"#utility.yul\":9628:9629   */\n      0x00\n        /* \"#utility.yul\":9621:9709   */\n      mstore\n        /* \"#utility.yul\":9728:9732   */\n      0x22\n        /* \"#utility.yul\":9725:9726   */\n      0x04\n        /* \"#utility.yul\":9718:9733   */\n      mstore\n        /* \"#utility.yul\":9752:9756   */\n      0x24\n        /* \"#utility.yul\":9749:9750   */\n      0x00\n        /* \"#utility.yul\":9742:9757   */\n      revert\n        /* \"#utility.yul\":9769:10089   */\n    tag_52:\n        /* \"#utility.yul\":9813:9819   */\n      0x00\n        /* \"#utility.yul\":9850:9851   */\n      0x02\n        /* \"#utility.yul\":9844:9848   */\n      dup3\n        /* \"#utility.yul\":9840:9852   */\n      div\n        /* \"#utility.yul\":9830:9852   */\n      swap1\n      pop\n        /* \"#utility.yul\":9897:9898   */\n      0x01\n        /* \"#utility.yul\":9891:9895   */\n      dup3\n        /* \"#utility.yul\":9887:9899   */\n      and\n        /* \"#utility.yul\":9918:9936   */\n      dup1\n        /* \"#utility.yul\":9908:9989   */\n      tag_242\n      jumpi\n        /* \"#utility.yul\":9974:9978   */\n      0x7f\n        /* \"#utility.yul\":9966:9972   */\n      dup3\n        /* \"#utility.yul\":9962:9979   */\n      and\n        /* \"#utility.yul\":9952:9979   */\n      swap2\n      pop\n        /* \"#utility.yul\":9908:9989   */\n    tag_242:\n        /* \"#utility.yul\":10036:10038   */\n      0x20\n        /* \"#utility.yul\":10028:10034   */\n      dup3\n        /* \"#utility.yul\":10025:10039   */\n      lt\n        /* \"#utility.yul\":10005:10023   */\n      dup2\n        /* \"#utility.yul\":10002:10040   */\n      sub\n        /* \"#utility.yul\":9999:10083   */\n      tag_243\n      jumpi\n        /* \"#utility.yul\":10055:10073   */\n      tag_244\n      tag_119\n      jump\t// in\n    tag_244:\n        /* \"#utility.yul\":9999:10083   */\n    tag_243:\n        /* \"#utility.yul\":9820:10089   */\n      pop\n        /* \"#utility.yul\":9769:10089   */\n      swap2\n      swap1\n      pop\n      jump\t// out\n        /* \"#utility.yul\":10095:10263   */\n    tag_120:\n        /* \"#utility.yul\":10235:10255   */\n      0x6f6e6c792061646d696e2063616e206164640000000000000000000000000000\n        /* \"#utility.yul\":10231:10232   */\n      0x00\n        /* \"#utility.yul\":10223:10229   */\n      dup3\n        /* \"#utility.yul\":10219:10233   */\n      add\n        /* \"#utility.yul\":10212:10256   */\n      mstore\n        /* \"#utility.yul\":10095:10263   */\n      pop\n      jump\t// out\n        /* \"#utility.yul\":10269:10635   */\n    tag_121:\n        /* \"#utility.yul\":10411:10414   */\n      0x00\n        /* \"#utility.yul\":10432:10499   */\n      tag_247\n        /* \"#utility.yul\":10496:10498   */\n      0x12\n        /* \"#utility.yul\":10491:10494   */\n      dup4\n        /* \"#utility.yul\":10432:10499   */\n      tag_99\n      jump\t// in\n    tag_247:\n        /* \"#utility.yul\":10425:10499   */\n      swap2\n      pop\n        /* \"#utility.yul\":10508:10601   */\n      tag_248\n        /* \"#utility.yul\":10597:10600   */\n      dup3\n        /* \"#utility.yul\":10508:10601   */\n      tag_120\n      jump\t// in\n    tag_248:\n        /* \"#utility.yul\":10626:10628   */\n      0x20\n        /* \"#utility.yul\":10621:10624   */\n      dup3\n        /* \"#utility.yul\":10617:10629   */\n      add\n        /* \"#utility.yul\":10610:10629   */\n      swap1\n      pop\n        /* \"#utility.yul\":10269:10635   */\n      swap2\n      swap1\n      pop\n      jump\t// out\n        /* \"#utility.yul\":10641:11060   */\n    tag_60:\n        /* \"#utility.yul\":10807:10811   */\n      0x00\n        /* \"#utility.yul\":10845:10847   */\n      0x20\n        /* \"#utility.yul\":10834:10843   */\n      dup3\n        /* \"#utility.yul\":10830:10848   */\n      add\n        /* \"#utility.yul\":10822:10848   */\n      swap1\n      pop\n        /* \"#utility.yul\":10894:10903   */\n      dup2\n        /* \"#utility.yul\":10888:10892   */\n      dup2\n        /* \"#utility.yul\":10884:10904   */\n      sub\n        /* \"#utility.yul\":10880:10881   */\n      0x00\n        /* \"#utility.yul\":10869:10878   */\n      dup4\n        /* \"#utility.yul\":10865:10882   */\n      add\n        /* \"#utility.yul\":10858:10905   */\n      mstore\n        /* \"#utility.yul\":10922:11053   */\n      tag_250\n        /* \"#utility.yul\":11048:11052   */\n      dup2\n        /* \"#utility.yul\":10922:11053   */\n      tag_121\n      jump\t// in\n    tag_250:\n        /* \"#utility.yul\":10914:11053   */\n      swap1\n      pop\n        /* \"#utility.yul\":10641:11060   */\n      swap2\n      swap1\n      pop\n      jump\t// out\n        /* \"#utility.yul\":11066:11207   */\n    tag_122:\n        /* \"#utility.yul\":11115:11119   */\n      0x00\n        /* \"#utility.yul\":11138:11141   */\n      dup2\n        /* \"#utility.yul\":11130:11141   */\n      swap1\n      pop\n        /* \"#utility.yul\":11161:11164   */\n      dup2\n        /* \"#utility.yul\":11158:11159   */\n      0x00\n        /* \"#utility.yul\":11151:11165   */\n      mstore\n        /* \"#utility.yul\":11195:11199   */\n      0x20\n        /* \"#utility.yul\":11192:11193   */\n      0x00\n        /* \"#utility.yul\":11182:11200   */\n      keccak256\n        /* \"#utility.yul\":11174:11200   */\n      swap1\n      pop\n        /* \"#utility.yul\":11066:11207   */\n      swap2\n      swap1\n      pop\n      jump\t// out\n        /* \"#utility.yul\":11213:11306   */\n    tag_123:\n        /* \"#utility.yul\":11250:11256   */\n      0x00\n        /* \"#utility.yul\":11297:11299   */\n      0x20\n        /* \"#utility.yul\":11292:11294   */\n      0x1f\n        /* \"#utility.yul\":11285:11290   */\n      dup4\n        /* \"#utility.yul\":11281:11295   */\n      add\n        /* \"#utility.yul\":11277:11300   */\n      div\n        /* \"#utility.yul\":11267:11300   */\n      swap1\n      pop\n        /* \"#utility.yul\":11213:11306   */\n      swap2\n      swap1\n      pop\n      jump\t// out\n        /* \"#utility.yul\":11312:11419   */\n    tag_124:\n        /* \"#utility.yul\":11356:11364   */\n      0x00\n        /* \"#utility.yul\":11406:11411   */\n      dup3\n        /* \"#utility.yul\":11400:11404   */\n      dup3\n        /* \"#utility.yul\":11396:11412   */\n      shl\n        /* \"#utility.yul\":11375:11412   */\n      swap1\n      pop\n        /* \"#utility.yul\":11312:11419   */\n      swap3\n      swap2\n      pop\n      pop\n      jump\t// out\n        /* \"#utility.yul\":11425:11818   */\n    tag_125:\n        /* \"#utility.yul\":11494:11500   */\n      0x00\n        /* \"#utility.yul\":11544:11545   */\n      0x08\n        /* \"#utility.yul\":11532:11542   */\n      dup4\n        /* \"#utility.yul\":11528:11546   */\n      mul\n        /* \"#utility.yul\":11567:11664   */\n      tag_255\n        /* \"#utility.yul\":11597:11663   */\n      0xffffffffffffffffffffffffffffffffffffffffffffffffffffffffffffffff\n        /* \"#utility.yul\":11586:11595   */\n      dup3\n        /* \"#utility.yul\":11567:11664   */\n      tag_124\n      jump\t// in\n    tag_255:\n        /* \"#utility.yul\":11685:11724   */\n      tag_256\n        /* \"#utility.yul\":11715:11723   */\n      dup7\n        /* \"#utility.yul\":11704:11713   */\n      dup4\n        /* \"#utility.yul\":11685:11724   */\n      tag_124\n      jump\t// in\n    tag_256:\n        /* \"#utility.yul\":11673:11724   */\n      swap6\n      pop\n        /* \"#utility.yul\":11757:11761   */\n      dup1\n        /* \"#utility.yul\":11753:11762   */\n      not\n        /* \"#utility.yul\":11746:11751   */\n      dup5\n        /* \"#utility.yul\":11742:11763   */\n      and\n        /* \"#utility.yul\":11733:11763   */\n      swap4\n      pop\n        /* \"#utility.yul\":11806:11810   */\n      dup1\n        /* \"#utility.yul\":11796:11804   */\n      dup7\n        /* \"#utility.yul\":11792:11811   */\n      and\n        /* \"#utility.yul\":11785:11790   */\n      dup5\n        /* \"#utility.yul\":11782:11812   */\n      or\n        /* \"#utility.yul\":11772:11812   */\n      swap3\n      pop\n        /* \"#utility.yul\":11501:11818   */\n      pop\n      pop\n        /* \"#utility.yul\":11425:11818   */\n      swap4\n      swap3\n      pop\n      pop\n      pop\n      jump\t// out\n        /* \"#utility.yul\":11824:11884   */\n    tag_126:\n        /* \"#utility.yul\":11852:11855   */\n      0x00\n        /* \"#utility.yul\":11873:11878   */\n      dup2\n        /* \"#utility.yul\":11866:11878   */\n      swap1\n      pop\n        /* \"#utility.yul\":11824:11884   */\n      swap2\n      swap1\n      pop\n      jump\t// out\n        /* \"#utility.yul\":11890:12032   */\n    tag_127:\n        /* \"#utility.yul\":11940:11949   */\n      0x00\n        /* \"#utility.yul\":11973:12026   */\n      tag_259\n        /* \"#utility.yul\":11991:12025   */\n      tag_260\n        /* \"#utility.yul\":12000:12024   */\n      tag_261\n        /* \"#utility.yul\":12018:12023   */\n      dup5\n        /* \"#utility.yul\":12000:12024   */\n      tag_89\n      jump\t// in\n    tag_261:\n        /* \"#utility.yul\":11991:12025   */\n      tag_126\n      jump\t// in\n    tag_260:\n        /* \"#utility.yul\":11973:12026   */\n      tag_89\n      jump\t// in\n    tag_259:\n        /* \"#utility.yul\":11960:12026   */\n      swap1\n      pop\n        /* \"#utility.yul\":11890:12032   */\n      swap2\n      swap1\n      pop\n      jump\t// out\n        /* \"#utility.yul\":12038:12113   */\n    tag_128:\n        /* \"#utility.yul\":12081:12084   */\n      0x00\n        /* \"#utility.yul\":12102:12107   */\n      dup2\n        /* \"#utility.yul\":12095:12107   */\n      swap1\n      pop\n        /* \"#utility.yul\":12038:12113   */\n      swap2\n      swap1\n      pop\n      jump\t// out\n        /* \"#utility.yul\":12119:12388   */\n    tag_129:\n        /* \"#utility.yul\":12229:12268   */\n      tag_264\n        /* \"#utility.yul\":12260:12267   */\n      dup4\n        /* \"#utility.yul\":12229:12268   */\n      tag_127\n      jump\t// in\n    tag_264:\n        /* \"#utility.yul\":12290:12381   */\n      tag_265\n        /* \"#utility.yul\":12339:12380   */\n      tag_266\n        /* \"#utility.yul\":12363:12379   */\n      dup3\n        /* \"#utility.yul\":12339:12380   */\n      tag_128\n      jump\t// in\n    tag_266:\n        /* \"#utility.yul\":12331:12337   */\n      dup5\n        /* \"#utility.yul\":12324:12328   */\n      dup5\n        /* \"#utility.yul\":12318:12329   */\n      sload\n        /* \"#utility.yul\":12290:12381   */\n      tag_125\n      jump\t// in\n    tag_265:\n        /* \"#utility.yul\":12284:12288   */\n      dup3\n        /* \"#utility.yul\":12277:12382   */\n      sstore\n        /* \"#utility.yul\":12195:12388   */\n      pop\n        /* \"#utility.yul\":12119:12388   */\n      pop\n      pop\n      pop\n      jump\t// out\n        /* \"#utility.yul\":12394:12467   */\n    tag_130:\n        /* \"#utility.yul\":12439:12442   */\n      0x00\n        /* \"#utility.yul\":12394:12467   */\n      swap1\n      jump\t// out\n        /* \"#utility.yul\":12473:12662   */\n    tag_131:\n        /* \"#utility.yul\":12550:12582   */\n      tag_269\n      tag_130\n      jump\t// in\n    tag_269:\n        /* \"#utility.yul\":12591:12656   */\n      tag_270\n        /* \"#utility.yul\":12649:12655   */\n      dup2\n        /* \"#utility.yul\":12641:12647   */\n      dup5\n        /* \"#utility.yul\":12635:12639   */\n      dup5\n        /* \"#utility.yul\":12591:12656   */\n      tag_129\n      jump\t// in\n    tag_270:\n        /* \"#utility.yul\":12526:12662   */\n      pop\n        /* \"#utility.yul\":12473:12662   */\n      pop\n      pop\n      jump\t// out\n        /* \"#utility.yul\":12668:12854   */\n    tag_132:\n        /* \"#utility.yul\":12728:12848   */\n    tag_272:\n        /* \"#utility.yul\":12745:12748   */\n      dup2\n        /* \"#utility.yul\":12738:12743   */\n      dup2\n        /* \"#utility.yul\":12735:12749   */\n      lt\n        /* \"#utility.yul\":12728:12848   */\n      iszero\n      tag_274\n      jumpi\n        /* \"#utility.yul\":12799:12838   */\n      tag_275\n        /* \"#utility.yul\":12836:12837   */\n      0x00\n        /* \"#utility.yul\":12829:12834   */\n      dup3\n        /* \"#utility.yul\":12799:12838   */\n      tag_131\n      jump\t// in\n    tag_275:\n        /* \"#utility.yul\":12772:12773   */\n      0x01\n        /* \"#utility.yul\":12765:12770   */\n      dup2\n        /* \"#utility.yul\":12761:12774   */\n      add\n        /* \"#utility.yul\":12752:12774   */\n      swap1\n      pop\n        /* \"#utility.yul\":12728:12848   */\n      jump(tag_272)\n    tag_274:\n        /* \"#utility.yul\":12668:12854   */\n      pop\n      pop\n      jump\t// out\n        /* \"#utility.yul\":12860:13403   */\n    tag_133:\n        /* \"#utility.yul\":12961:12963   */\n      0x1f\n        /* \"#utility.yul\":12956:12959   */\n      dup3\n        /* \"#utility.yul\":12953:12964   */\n      gt\n        /* \"#utility.yul\":12950:13396   */\n      iszero\n      tag_277\n      jumpi\n        /* \"#utility.yul\":12995:13033   */\n      tag_278\n        /* \"#utility.yul\":13027:13032   */\n      dup2\n        /* \"#utility.yul\":12995:13033   */\n      tag_122\n      jump\t// in\n    tag_278:\n        /* \"#utility.yul\":13079:13108   */\n      tag_279\n        /* \"#utility.yul\":13097:13107   */\n      dup5\n        /* \"#utility.yul\":13079:13108   */\n      tag_123\n      jump\t// in\n    tag_279:\n        /* \"#utility.yul\":13069:13077   */\n      dup2\n        /* \"#utility.yul\":13065:13109   */\n      add\n        /* \"#utility.yul\":13262:13264   */\n      0x20\n        /* \"#utility.yul\":13250:13260   */\n      dup6\n        /* \"#utility.yul\":13247:13265   */\n      lt\n        /* \"#utility.yul\":13244:13293   */\n      iszero\n      tag_280\n      jumpi\n        /* \"#utility.yul\":13283:13291   */\n      dup2\n        /* \"#utility.yul\":13268:13291   */\n      swap1\n      pop\n        /* \"#utility.yul\":13244:13293   */\n    tag_280:\n        /* \"#utility.yul\":13306:13386   */\n      tag_281\n        /* \"#utility.yul\":13362:13384   */\n      tag_282\n        /* \"#utility.yul\":13380:13383   */\n      dup6\n        /* \"#utility.yul\":13362:13384   */\n      tag_123\n      jump\t// in\n    tag_282:\n        /* \"#utility.yul\":13352:13360   */\n      dup4\n        /* \"#utility.yul\":13348:13385   */\n      add\n        /* \"#utility.yul\":13335:13346   */\n      dup3\n        /* \"#utility.yul\":13306:13386   */\n      tag_132\n      jump\t// in\n    tag_281:\n        /* \"#utility.yul\":12965:13396   */\n      pop\n      pop\n        /* \"#utility.yul\":12950:13396   */\n    tag_277:\n        /* \"#utility.yul\":12860:13403   */\n      pop\n      pop\n      pop\n      jump\t// out\n        /* \"#utility.yul\":13409:13526   */\n    tag_134:\n        /* \"#utility.yul\":13463:13471   */\n      0x00\n        /* \"#utility.yul\":13513:13518   */\n      dup3\n        /* \"#utility.yul\":13507:13511   */\n      dup3\n        /* \"#utility.yul\":13503:13519   */\n      shr\n        /* \"#utility.yul\":13482:13519   */\n      swap1\n      pop\n        /* \"#utility.yul\":13409:13526   */\n      swap3\n      swap2\n      pop\n      pop\n      jump\t// out\n        /* \"#utility.yul\":13532:13701   */\n    tag_135:\n        /* \"#utility.yul\":13576:13582   */\n      0x00\n        /* \"#utility.yul\":13609:13660   */\n      tag_285\n        /* \"#utility.yul\":13657:13658   */\n      0x00\n        /* \"#utility.yul\":13653:13659   */\n      not\n        /* \"#utility.yul\":13645:13650   */\n      dup5\n        /* \"#utility.yul\":13642:13643   */\n      0x08\n        /* \"#utility.yul\":13638:13651   */\n      mul\n        /* \"#utility.yul\":13609:13660   */\n      tag_134\n      jump\t// in\n    tag_285:\n        /* \"#utility.yul\":13605:13661   */\n      not\n        /* \"#utility.yul\":13690:13694   */\n      dup1\n        /* \"#utility.yul\":13684:13688   */\n      dup4\n        /* \"#utility.yul\":13680:13695   */\n      and\n        /* \"#utility.yul\":13670:13695   */\n      swap2\n      pop\n        /* \"#utility.yul\":13583:13701   */\n      pop\n        /* \"#utility.yul\":13532:13701   */\n      swap3\n      swap2\n      pop\n      pop\n      jump\t// out\n        /* \"#utility.yul\":13706:14001   */\n    tag_136:\n        /* \"#utility.yul\":13782:13786   */\n      0x00\n        /* \"#utility.yul\":13928:13957   */\n      tag_287\n        /* \"#utility.yul\":13953:13956   */\n      dup4\n        /* \"#utility.yul\":13947:13951   */\n      dup4\n        /* \"#utility.yul\":13928:13957   */\n      tag_135\n      jump\t// in\n    tag_287:\n        /* \"#utility.yul\":13920:13957   */\n      swap2\n      pop\n        /* \"#utility.yul\":13990:13993   */\n      dup3\n        /* \"#utility.yul\":13987:13988   */\n      0x02\n        /* \"#utility.yul\":13983:13994   */\n      mul\n        /* \"#utility.yul\":13977:13981   */\n      dup3\n        /* \"#utility.yul\":13974:13995   */\n      or\n        /* \"#utility.yul\":13966:13995   */\n      swap1\n      pop\n        /* \"#utility.yul\":13706:14001   */\n      swap3\n      swap2\n      pop\n      pop\n      jump\t// out\n        /* \"#utility.yul\":14006:15401   */\n    tag_63:\n        /* \"#utility.yul\":14123:14160   */\n      tag_289\n        /* \"#utility.yul\":14156:14159   */\n      dup3\n        /* \"#utility.yul\":14123:14160   */\n      tag_98\n      jump\t// in\n    tag_289:\n        /* \"#utility.yul\":14225:14243   */\n      0xffffffffffffffff\n        /* \"#utility.yul\":14217:14223   */\n      dup2\n        /* \"#utility.yul\":14214:14244   */\n      gt\n        /* \"#utility.yul\":14211:14267   */\n      iszero\n      tag_290\n      jumpi\n        /* \"#utility.yul\":14247:14265   */\n      tag_291\n      tag_106\n      jump\t// in\n    tag_291:\n        /* \"#utility.yul\":14211:14267   */\n    tag_290:\n        /* \"#utility.yul\":14291:14329   */\n      tag_292\n        /* \"#utility.yul\":14323:14327   */\n      dup3\n        /* \"#utility.yul\":14317:14328   */\n      sload\n        /* \"#utility.yul\":14291:14329   */\n      tag_52\n      jump\t// in\n    tag_292:\n        /* \"#utility.yul\":14376:14443   */\n      tag_293\n        /* \"#utility.yul\":14436:14442   */\n      dup3\n        /* \"#utility.yul\":14428:14434   */\n      dup3\n        /* \"#utility.yul\":14422:14426   */\n      dup6\n        /* \"#utility.yul\":14376:14443   */\n      tag_133\n      jump\t// in\n    tag_293:\n        /* \"#utility.yul\":14470:14471   */\n      0x00\n        /* \"#utility.yul\":14494:14498   */\n      0x20\n        /* \"#utility.yul\":14481:14498   */\n      swap1\n      pop\n        /* \"#utility.yul\":14526:14528   */\n      0x1f\n        /* \"#utility.yul\":14518:14524   */\n      dup4\n        /* \"#utility.yul\":14515:14529   */\n      gt\n        /* \"#utility.yul\":14543:14544   */\n      0x01\n        /* \"#utility.yul\":14538:15156   */\n      dup2\n      eq\n      tag_295\n      jumpi\n        /* \"#utility.yul\":15200:15201   */\n      0x00\n        /* \"#utility.yul\":15217:15223   */\n      dup5\n        /* \"#utility.yul\":15214:15291   */\n      iszero\n      tag_296\n      jumpi\n        /* \"#utility.yul\":15266:15275   */\n      dup3\n        /* \"#utility.yul\":15261:15264   */\n      dup8\n        /* \"#utility.yul\":15257:15276   */\n      add\n        /* \"#utility.yul\":15251:15277   */\n      mload\n        /* \"#utility.yul\":15242:15277   */\n      swap1\n      pop\n        /* \"#utility.yul\":15214:15291   */\n    tag_296:\n        /* \"#utility.yul\":15317:15384   */\n      tag_297\n        /* \"#utility.yul\":15377:15383   */\n      dup6\n        /* \"#utility.yul\":15370:15375   */\n      dup3\n        /* \"#utility.yul\":15317:15384   */\n      tag_136\n      jump\t// in\n    tag_297:\n        /* \"#utility.yul\":15311:15315   */\n      dup7\n        /* \"#utility.yul\":15304:15385   */\n      sstore\n        /* \"#utility.yul\":15173:15395   */\n      pop\n        /* \"#utility.yul\":14508:15395   */\n      jump(tag_294)\n        /* \"#utility.yul\":14538:15156   */\n    tag_295:\n        /* \"#utility.yul\":14590:14594   */\n      0x1f\n        /* \"#utility.yul\":14586:14595   */\n      not\n        /* \"#utility.yul\":14578:14584   */\n      dup5\n        /* \"#utility.yul\":14574:14596   */\n      and\n        /* \"#utility.yul\":14624:14661   */\n      tag_298\n        /* \"#utility.yul\":14656:14660   */\n      dup7\n        /* \"#utility.yul\":14624:14661   */\n      tag_122\n      jump\t// in\n    tag_298:\n        /* \"#utility.yul\":14683:14684   */\n      0x00\n        /* \"#utility.yul\":14697:14905   */\n    tag_299:\n        /* \"#utility.yul\":14711:14718   */\n      dup3\n        /* \"#utility.yul\":14708:14709   */\n      dup2\n        /* \"#utility.yul\":14705:14719   */\n      lt\n        /* \"#utility.yul\":14697:14905   */\n      iszero\n      tag_301\n      jumpi\n        /* \"#utility.yul\":14790:14799   */\n      dup5\n        /* \"#utility.yul\":14785:14788   */\n      dup10\n        /* \"#utility.yul\":14781:14800   */\n      add\n        /* \"#utility.yul\":14775:14801   */\n      mload\n        /* \"#utility.yul\":14767:14773   */\n      dup3\n        /* \"#utility.yul\":14760:14802   */\n      sstore\n        /* \"#utility.yul\":14841:14842   */\n      0x01\n        /* \"#utility.yul\":14833:14839   */\n      dup3\n        /* \"#utility.yul\":14829:14843   */\n      add\n        /* \"#utility.yul\":14819:14843   */\n      swap2\n      pop\n        /* \"#utility.yul\":14888:14890   */\n      0x20\n        /* \"#utility.yul\":14877:14886   */\n      dup6\n        /* \"#utility.yul\":14873:14891   */\n      add\n        /* \"#utility.yul\":14860:14891   */\n      swap5\n      pop\n        /* \"#utility.yul\":14734:14738   */\n      0x20\n        /* \"#utility.yul\":14731:14732   */\n      dup2\n        /* \"#utility.yul\":14727:14739   */\n      add\n        /* \"#utility.yul\":14722:14739   */\n      swap1\n      pop\n        /* \"#utility.yul\":14697:14905   */\n      jump(tag_299)\n    tag_301:\n        /* \"#utility.yul\":14933:14939   */\n      dup7\n        /* \"#utility.yul\":14924:14931   */\n      dup4\n        /* \"#utility.yul\":14921:14940   */\n      lt\n        /* \"#utility.yul\":14918:15097   */\n      iszero\n      tag_302\n      jumpi\n        /* \"#utility.yul\":14991:15000   */\n      dup5\n        /* \"#utility.yul\":14986:14989   */\n      dup10\n        /* \"#utility.yul\":14982:15001   */\n      add\n        /* \"#utility.yul\":14976:15002   */\n      mload\n        /* \"#utility.yul\":15034:15082   */\n      tag_303\n        /* \"#utility.yul\":15076:15080   */\n      0x1f\n        /* \"#utility.yul\":15068:15074   */\n      dup10\n        /* \"#utility.yul\":15064:15081   */\n      and\n        /* \"#utility.yul\":15053:15062   */\n      dup3\n        /* \"#utility.yul\":15034:15082   */\n      tag_135\n      jump\t// in\n    tag_303:\n        /* \"#utility.yul\":15026:15032   */\n      dup4\n        /* \"#utility.yul\":15019:15083   */\n      sstore\n        /* \"#utility.yul\":14941:15097   */\n      pop\n        /* \"#utility.yul\":14918:15097   */\n    tag_302:\n        /* \"#utility.yul\":15143:15144   */\n      0x01\n        /* \"#utility.yul\":15139:15140   */\n      0x02\n        /* \"#utility.yul\":15131:15137   */\n      dup9\n        /* \"#utility.yul\":15127:15141   */\n      mul\n        /* \"#utility.yul\":15123:15145   */\n      add\n        /* \"#utility.yul\":15117:15121   */\n      dup9\n        /* \"#utility.yul\":15110:15146   */\n      sstore\n        /* \"#utility.yul\":14545:15156   */\n      pop\n      pop\n      pop\n        /* \"#utility.yul\":14508:15395   */\n    tag_294:\n      pop\n        /* \"#utility.yul\":14098:15401   */\n      pop\n      pop\n      pop\n        /* \"#utility.yul\":14006:15401   */\n      pop\n      pop\n      jump\t// out\n        /* \"#utility.yul\":15407:15580   */\n    tag_137:\n        /* \"#utility.yul\":15547:15572   */\n      0x4e6f2063616e6469646174657320617661696c61626c65000000000000000000\n        /* \"#utility.yul\":15543:15544   */\n      0x00\n        /* \"#utility.yul\":15535:15541   */\n      dup3\n        /* \"#utility.yul\":15531:15545   */\n      add\n        /* \"#utility.yul\":15524:15573   */\n      mstore\n        /* \"#utility.yul\":15407:15580   */\n      pop\n      jump\t// out\n        /* \"#utility.yul\":15586:15952   */\n    tag_138:\n        /* \"#utility.yul\":15728:15731   */\n      0x00\n        /* \"#utility.yul\":15749:15816   */\n      tag_306\n        /* \"#utility.yul\":15813:15815   */\n      0x17\n        /* \"#utility.yul\":15808:15811   */\n      dup4\n        /* \"#utility.yul\":15749:15816   */\n      tag_99\n      jump\t// in\n    tag_306:\n        /* \"#utility.yul\":15742:15816   */\n      swap2\n      pop\n        /* \"#utility.yul\":15825:15918   */\n      tag_307\n        /* \"#utility.yul\":15914:15917   */\n      dup3\n        /* \"#utility.yul\":15825:15918   */\n      tag_137\n      jump\t// in\n    tag_307:\n        /* \"#utility.yul\":15943:15945   */\n      0x20\n        /* \"#utility.yul\":15938:15941   */\n      dup3\n        /* \"#utility.yul\":15934:15946   */\n      add\n        /* \"#utility.yul\":15927:15946   */\n      swap1\n      pop\n        /* \"#utility.yul\":15586:15952   */\n      swap2\n      swap1\n      pop\n      jump\t// out\n        /* \"#utility.yul\":15958:16377   */\n    tag_67:\n        /* \"#utility.yul\":16124:16128   */\n      0x00\n        /* \"#utility.yul\":16162:16164   */\n      0x20\n        /* \"#utility.yul\":16151:16160   */\n      dup3\n        /* \"#utility.yul\":16147:16165   */\n      add\n        /* \"#utility.yul\":16139:16165   */\n      swap1\n      pop\n        /* \"#utility.yul\":16211:16220   */\n      dup2\n        /* \"#utility.yul\":16205:16209   */\n      dup2\n        /* \"#utility.yul\":16201:16221   */\n      sub\n        /* \"#utility.yul\":16197:16198   */\n      0x00\n        /* \"#utility.yul\":16186:16195   */\n      dup4\n        /* \"#utility.yul\":16182:16199   */\n      add\n        /* \"#utility.yul\":16175:16222   */\n      mstore\n        /* \"#utility.yul\":16239:16370   */\n      tag_309\n        /* \"#utility.yul\":16365:16369   */\n      dup2\n        /* \"#utility.yul\":16239:16370   */\n      tag_138\n      jump\t// in\n    tag_309:\n        /* \"#utility.yul\":16231:16370   */\n      swap1\n      pop\n        /* \"#utility.yul\":15958:16377   */\n      swap2\n      swap1\n      pop\n      jump\t// out\n\n    auxdata: 0xa2646970667358221220c31eadce4cb85103958ef8a498ec6de7b1b8ae81b6a8870782ad71a3148339f964736f6c634300081a0033\n}\n",
				"bytecode": {
					"linkReferences": {},
					"object": "6080604052348015600e575f80fd5b50335f806101000a81548173ffffffffffffffffffffffffffffffffffffffff021916908373ffffffffffffffffffffffffffffffffffffffff160217905550610ea58061005b5f395ff3fe608060405234801561000f575f80fd5b5060043610610060575f3560e01c80630121b93f1461006457806309eef43e146100805780633477ee2e146100b0578063462e91ec146100e15780638e7ea5b2146100fd578063f851a4401461011b575b5f80fd5b61007e6004803603810190610079919061062e565b610139565b005b61009a600480360381019061009591906106b3565b61029b565b6040516100a791906106f8565b60405180910390f35b6100ca60048036038101906100c5919061062e565b6102b8565b6040516100d8929190610790565b60405180910390f35b6100fb60048036038101906100f691906108ea565b61036d565b005b61010561045a565b6040516101129190610931565b60405180910390f35b6101236105c7565b6040516101309190610960565b60405180910390f35b60015f3373ffffffffffffffffffffffffffffffffffffffff1673ffffffffffffffffffffffffffffffffffffffff1681526020019081526020015f205f9054906101000a900460ff16156101c3576040517f08c379a00000000000000000000000000000000000000000000000000000000081526004016101ba906109c3565b60405180910390fd5b600280549050811061020a576040517f08c379a000000000000000000000000000000000000000000000000000000000815260040161020190610a2b565b60405180910390fd5b6001805f3373ffffffffffffffffffffffffffffffffffffffff1673ffffffffffffffffffffffffffffffffffffffff1681526020019081526020015f205f6101000a81548160ff02191690831515021790555060016002828154811061027457610273610a49565b5b905f5260205f2090600202016001015f8282546102919190610aa3565b9250508190555050565b6001602052805f5260405f205f915054906101000a900460ff1681565b600281815481106102c7575f80fd5b905f5260205f2090600202015f91509050805f0180546102e690610b03565b80601f016020809104026020016040519081016040528092919081815260200182805461031290610b03565b801561035d5780601f106103345761010080835404028352916020019161035d565b820191905f5260205f20905b81548152906001019060200180831161034057829003601f168201915b5050505050908060010154905082565b5f8054906101000a900473ffffffffffffffffffffffffffffffffffffffff1673ffffffffffffffffffffffffffffffffffffffff163373ffffffffffffffffffffffffffffffffffffffff16146103fa576040517f08c379a00000000000000000000000000000000000000000000000000000000081526004016103f190610b7d565b60405180910390fd5b600260405180604001604052808381526020015f815250908060018154018082558091505060019003905f5260205f2090600202015f909190919091505f820151815f01908161044a9190610d38565b5060208201518160010155505050565b60605f600280549050116104a3576040517f08c379a000000000000000000000000000000000000000000000000000000000815260040161049a90610e51565b60405180910390fd5b5f805f5b6002805490508110156105165781600282815481106104c9576104c8610a49565b5b905f5260205f20906002020160010154111561050957600281815481106104f3576104f2610a49565b5b905f5260205f2090600202016001015491508092505b80806001019150506104a7565b506002828154811061052b5761052a610a49565b5b905f5260205f2090600202015f01805461054490610b03565b80601f016020809104026020016040519081016040528092919081815260200182805461057090610b03565b80156105bb5780601f10610592576101008083540402835291602001916105bb565b820191905f5260205f20905b81548152906001019060200180831161059e57829003601f168201915b50505050509250505090565b5f8054906101000a900473ffffffffffffffffffffffffffffffffffffffff1681565b5f604051905090565b5f80fd5b5f80fd5b5f819050919050565b61060d816105fb565b8114610617575f80fd5b50565b5f8135905061062881610604565b92915050565b5f60208284031215610643576106426105f3565b5b5f6106508482850161061a565b91505092915050565b5f73ffffffffffffffffffffffffffffffffffffffff82169050919050565b5f61068282610659565b9050919050565b61069281610678565b811461069c575f80fd5b50565b5f813590506106ad81610689565b92915050565b5f602082840312156106c8576106c76105f3565b5b5f6106d58482850161069f565b91505092915050565b5f8115159050919050565b6106f2816106de565b82525050565b5f60208201905061070b5f8301846106e9565b92915050565b5f81519050919050565b5f82825260208201905092915050565b8281835e5f83830152505050565b5f601f19601f8301169050919050565b5f61075382610711565b61075d818561071b565b935061076d81856020860161072b565b61077681610739565b840191505092915050565b61078a816105fb565b82525050565b5f6040820190508181035f8301526107a88185610749565b90506107b76020830184610781565b9392505050565b5f80fd5b5f80fd5b7f4e487b71000000000000000000000000000000000000000000000000000000005f52604160045260245ffd5b6107fc82610739565b810181811067ffffffffffffffff8211171561081b5761081a6107c6565b5b80604052505050565b5f61082d6105ea565b905061083982826107f3565b919050565b5f67ffffffffffffffff821115610858576108576107c6565b5b61086182610739565b9050602081019050919050565b828183375f83830152505050565b5f61088e6108898461083e565b610824565b9050828152602081018484840111156108aa576108a96107c2565b5b6108b584828561086e565b509392505050565b5f82601f8301126108d1576108d06107be565b5b81356108e184826020860161087c565b91505092915050565b5f602082840312156108ff576108fe6105f3565b5b5f82013567ffffffffffffffff81111561091c5761091b6105f7565b5b610928848285016108bd565b91505092915050565b5f6020820190508181035f8301526109498184610749565b905092915050565b61095a81610678565b82525050565b5f6020820190506109735f830184610951565b92915050565b7f596f75206861766520616c726561647920766f746564210000000000000000005f82015250565b5f6109ad60178361071b565b91506109b882610979565b602082019050919050565b5f6020820190508181035f8301526109da816109a1565b9050919050565b7f496e76616c69642063616e64696461746520696e6465780000000000000000005f82015250565b5f610a1560178361071b565b9150610a20826109e1565b602082019050919050565b5f6020820190508181035f830152610a4281610a09565b9050919050565b7f4e487b71000000000000000000000000000000000000000000000000000000005f52603260045260245ffd5b7f4e487b71000000000000000000000000000000000000000000000000000000005f52601160045260245ffd5b5f610aad826105fb565b9150610ab8836105fb565b9250828201905080821115610ad057610acf610a76565b5b92915050565b7f4e487b71000000000000000000000000000000000000000000000000000000005f52602260045260245ffd5b5f6002820490506001821680610b1a57607f821691505b602082108103610b2d57610b2c610ad6565b5b50919050565b7f6f6e6c792061646d696e2063616e2061646400000000000000000000000000005f82015250565b5f610b6760128361071b565b9150610b7282610b33565b602082019050919050565b5f6020820190508181035f830152610b9481610b5b565b9050919050565b5f819050815f5260205f209050919050565b5f6020601f8301049050919050565b5f82821b905092915050565b5f60088302610bf77fffffffffffffffffffffffffffffffffffffffffffffffffffffffffffffffff82610bbc565b610c018683610bbc565b95508019841693508086168417925050509392505050565b5f819050919050565b5f610c3c610c37610c32846105fb565b610c19565b6105fb565b9050919050565b5f819050919050565b610c5583610c22565b610c69610c6182610c43565b848454610bc8565b825550505050565b5f90565b610c7d610c71565b610c88818484610c4c565b505050565b5b81811015610cab57610ca05f82610c75565b600181019050610c8e565b5050565b601f821115610cf057610cc181610b9b565b610cca84610bad565b81016020851015610cd9578190505b610ced610ce585610bad565b830182610c8d565b50505b505050565b5f82821c905092915050565b5f610d105f1984600802610cf5565b1980831691505092915050565b5f610d288383610d01565b9150826002028217905092915050565b610d4182610711565b67ffffffffffffffff811115610d5a57610d596107c6565b5b610d648254610b03565b610d6f828285610caf565b5f60209050601f831160018114610da0575f8415610d8e578287015190505b610d988582610d1d565b865550610dff565b601f198416610dae86610b9b565b5f5b82811015610dd557848901518255600182019150602085019450602081019050610db0565b86831015610df25784890151610dee601f891682610d01565b8355505b6001600288020188555050505b505050505050565b7f4e6f2063616e6469646174657320617661696c61626c650000000000000000005f82015250565b5f610e3b60178361071b565b9150610e4682610e07565b602082019050919050565b5f6020820190508181035f830152610e6881610e2f565b905091905056fea2646970667358221220c31eadce4cb85103958ef8a498ec6de7b1b8ae81b6a8870782ad71a3148339f964736f6c634300081a0033",
					"opcodes": "PUSH1 0x80 PUSH1 0x40 MSTORE CALLVALUE DUP1 ISZERO PUSH1 0xE JUMPI PUSH0 DUP1 REVERT JUMPDEST POP CALLER PUSH0 DUP1 PUSH2 0x100 EXP DUP2 SLOAD DUP2 PUSH20 0xFFFFFFFFFFFFFFFFFFFFFFFFFFFFFFFFFFFFFFFF MUL NOT AND SWAP1 DUP4 PUSH20 0xFFFFFFFFFFFFFFFFFFFFFFFFFFFFFFFFFFFFFFFF AND MUL OR SWAP1 SSTORE POP PUSH2 0xEA5 DUP1 PUSH2 0x5B PUSH0 CODECOPY PUSH0 RETURN INVALID PUSH1 0x80 PUSH1 0x40 MSTORE CALLVALUE DUP1 ISZERO PUSH2 0xF JUMPI PUSH0 DUP1 REVERT JUMPDEST POP PUSH1 0x4 CALLDATASIZE LT PUSH2 0x60 JUMPI PUSH0 CALLDATALOAD PUSH1 0xE0 SHR DUP1 PUSH4 0x121B93F EQ PUSH2 0x64 JUMPI DUP1 PUSH4 0x9EEF43E EQ PUSH2 0x80 JUMPI DUP1 PUSH4 0x3477EE2E EQ PUSH2 0xB0 JUMPI DUP1 PUSH4 0x462E91EC EQ PUSH2 0xE1 JUMPI DUP1 PUSH4 0x8E7EA5B2 EQ PUSH2 0xFD JUMPI DUP1 PUSH4 0xF851A440 EQ PUSH2 0x11B JUMPI JUMPDEST PUSH0 DUP1 REVERT JUMPDEST PUSH2 0x7E PUSH1 0x4 DUP1 CALLDATASIZE SUB DUP2 ADD SWAP1 PUSH2 0x79 SWAP2 SWAP1 PUSH2 0x62E JUMP JUMPDEST PUSH2 0x139 JUMP JUMPDEST STOP JUMPDEST PUSH2 0x9A PUSH1 0x4 DUP1 CALLDATASIZE SUB DUP2 ADD SWAP1 PUSH2 0x95 SWAP2 SWAP1 PUSH2 0x6B3 JUMP JUMPDEST PUSH2 0x29B JUMP JUMPDEST PUSH1 0x40 MLOAD PUSH2 0xA7 SWAP2 SWAP1 PUSH2 0x6F8 JUMP JUMPDEST PUSH1 0x40 MLOAD DUP1 SWAP2 SUB SWAP1 RETURN JUMPDEST PUSH2 0xCA PUSH1 0x4 DUP1 CALLDATASIZE SUB DUP2 ADD SWAP1 PUSH2 0xC5 SWAP2 SWAP1 PUSH2 0x62E JUMP JUMPDEST PUSH2 0x2B8 JUMP JUMPDEST PUSH1 0x40 MLOAD PUSH2 0xD8 SWAP3 SWAP2 SWAP1 PUSH2 0x790 JUMP JUMPDEST PUSH1 0x40 MLOAD DUP1 SWAP2 SUB SWAP1 RETURN JUMPDEST PUSH2 0xFB PUSH1 0x4 DUP1 CALLDATASIZE SUB DUP2 ADD SWAP1 PUSH2 0xF6 SWAP2 SWAP1 PUSH2 0x8EA JUMP JUMPDEST PUSH2 0x36D JUMP JUMPDEST STOP JUMPDEST PUSH2 0x105 PUSH2 0x45A JUMP JUMPDEST PUSH1 0x40 MLOAD PUSH2 0x112 SWAP2 SWAP1 PUSH2 0x931 JUMP JUMPDEST PUSH1 0x40 MLOAD DUP1 SWAP2 SUB SWAP1 RETURN JUMPDEST PUSH2 0x123 PUSH2 0x5C7 JUMP JUMPDEST PUSH1 0x40 MLOAD PUSH2 0x130 SWAP2 SWAP1 PUSH2 0x960 JUMP JUMPDEST PUSH1 0x40 MLOAD DUP1 SWAP2 SUB SWAP1 RETURN JUMPDEST PUSH1 0x1 PUSH0 CALLER PUSH20 0xFFFFFFFFFFFFFFFFFFFFFFFFFFFFFFFFFFFFFFFF AND PUSH20 0xFFFFFFFFFFFFFFFFFFFFFFFFFFFFFFFFFFFFFFFF AND DUP2 MSTORE PUSH1 0x20 ADD SWAP1 DUP2 MSTORE PUSH1 0x20 ADD PUSH0 KECCAK256 PUSH0 SWAP1 SLOAD SWAP1 PUSH2 0x100 EXP SWAP1 DIV PUSH1 0xFF AND ISZERO PUSH2 0x1C3 JUMPI PUSH1 0x40 MLOAD PUSH32 0x8C379A000000000000000000000000000000000000000000000000000000000 DUP2 MSTORE PUSH1 0x4 ADD PUSH2 0x1BA SWAP1 PUSH2 0x9C3 JUMP JUMPDEST PUSH1 0x40 MLOAD DUP1 SWAP2 SUB SWAP1 REVERT JUMPDEST PUSH1 0x2 DUP1 SLOAD SWAP1 POP DUP2 LT PUSH2 0x20A JUMPI PUSH1 0x40 MLOAD PUSH32 0x8C379A000000000000000000000000000000000000000000000000000000000 DUP2 MSTORE PUSH1 0x4 ADD PUSH2 0x201 SWAP1 PUSH2 0xA2B JUMP JUMPDEST PUSH1 0x40 MLOAD DUP1 SWAP2 SUB SWAP1 REVERT JUMPDEST PUSH1 0x1 DUP1 PUSH0 CALLER PUSH20 0xFFFFFFFFFFFFFFFFFFFFFFFFFFFFFFFFFFFFFFFF AND PUSH20 0xFFFFFFFFFFFFFFFFFFFFFFFFFFFFFFFFFFFFFFFF AND DUP2 MSTORE PUSH1 0x20 ADD SWAP1 DUP2 MSTORE PUSH1 0x20 ADD PUSH0 KECCAK256 PUSH0 PUSH2 0x100 EXP DUP2 SLOAD DUP2 PUSH1 0xFF MUL NOT AND SWAP1 DUP4 ISZERO ISZERO MUL OR SWAP1 SSTORE POP PUSH1 0x1 PUSH1 0x2 DUP3 DUP2 SLOAD DUP2 LT PUSH2 0x274 JUMPI PUSH2 0x273 PUSH2 0xA49 JUMP JUMPDEST JUMPDEST SWAP1 PUSH0 MSTORE PUSH1 0x20 PUSH0 KECCAK256 SWAP1 PUSH1 0x2 MUL ADD PUSH1 0x1 ADD PUSH0 DUP3 DUP3 SLOAD PUSH2 0x291 SWAP2 SWAP1 PUSH2 0xAA3 JUMP JUMPDEST SWAP3 POP POP DUP2 SWAP1 SSTORE POP POP JUMP JUMPDEST PUSH1 0x1 PUSH1 0x20 MSTORE DUP1 PUSH0 MSTORE PUSH1 0x40 PUSH0 KECCAK256 PUSH0 SWAP2 POP SLOAD SWAP1 PUSH2 0x100 EXP SWAP1 DIV PUSH1 0xFF AND DUP2 JUMP JUMPDEST PUSH1 0x2 DUP2 DUP2 SLOAD DUP2 LT PUSH2 0x2C7 JUMPI PUSH0 DUP1 REVERT JUMPDEST SWAP1 PUSH0 MSTORE PUSH1 0x20 PUSH0 KECCAK256 SWAP1 PUSH1 0x2 MUL ADD PUSH0 SWAP2 POP SWAP1 POP DUP1 PUSH0 ADD DUP1 SLOAD PUSH2 0x2E6 SWAP1 PUSH2 0xB03 JUMP JUMPDEST DUP1 PUSH1 0x1F ADD PUSH1 0x20 DUP1 SWAP2 DIV MUL PUSH1 0x20 ADD PUSH1 0x40 MLOAD SWAP1 DUP2 ADD PUSH1 0x40 MSTORE DUP1 SWAP3 SWAP2 SWAP1 DUP2 DUP2 MSTORE PUSH1 0x20 ADD DUP3 DUP1 SLOAD PUSH2 0x312 SWAP1 PUSH2 0xB03 JUMP JUMPDEST DUP1 ISZERO PUSH2 0x35D JUMPI DUP1 PUSH1 0x1F LT PUSH2 0x334 JUMPI PUSH2 0x100 DUP1 DUP4 SLOAD DIV MUL DUP4 MSTORE SWAP2 PUSH1 0x20 ADD SWAP2 PUSH2 0x35D JUMP JUMPDEST DUP3 ADD SWAP2 SWAP1 PUSH0 MSTORE PUSH1 0x20 PUSH0 KECCAK256 SWAP1 JUMPDEST DUP2 SLOAD DUP2 MSTORE SWAP1 PUSH1 0x1 ADD SWAP1 PUSH1 0x20 ADD DUP1 DUP4 GT PUSH2 0x340 JUMPI DUP3 SWAP1 SUB PUSH1 0x1F AND DUP3 ADD SWAP2 JUMPDEST POP POP POP POP POP SWAP1 DUP1 PUSH1 0x1 ADD SLOAD SWAP1 POP DUP3 JUMP JUMPDEST PUSH0 DUP1 SLOAD SWAP1 PUSH2 0x100 EXP SWAP1 DIV PUSH20 0xFFFFFFFFFFFFFFFFFFFFFFFFFFFFFFFFFFFFFFFF AND PUSH20 0xFFFFFFFFFFFFFFFFFFFFFFFFFFFFFFFFFFFFFFFF AND CALLER PUSH20 0xFFFFFFFFFFFFFFFFFFFFFFFFFFFFFFFFFFFFFFFF AND EQ PUSH2 0x3FA JUMPI PUSH1 0x40 MLOAD PUSH32 0x8C379A000000000000000000000000000000000000000000000000000000000 DUP2 MSTORE PUSH1 0x4 ADD PUSH2 0x3F1 SWAP1 PUSH2 0xB7D JUMP JUMPDEST PUSH1 0x40 MLOAD DUP1 SWAP2 SUB SWAP1 REVERT JUMPDEST PUSH1 0x2 PUSH1 0x40 MLOAD DUP1 PUSH1 0x40 ADD PUSH1 0x40 MSTORE DUP1 DUP4 DUP2 MSTORE PUSH1 0x20 ADD PUSH0 DUP2 MSTORE POP SWAP1 DUP1 PUSH1 0x1 DUP2 SLOAD ADD DUP1 DUP3 SSTORE DUP1 SWAP2 POP POP PUSH1 0x1 SWAP1 SUB SWAP1 PUSH0 MSTORE PUSH1 0x20 PUSH0 KECCAK256 SWAP1 PUSH1 0x2 MUL ADD PUSH0 SWAP1 SWAP2 SWAP1 SWAP2 SWAP1 SWAP2 POP PUSH0 DUP3 ADD MLOAD DUP2 PUSH0 ADD SWAP1 DUP2 PUSH2 0x44A SWAP2 SWAP1 PUSH2 0xD38 JUMP JUMPDEST POP PUSH1 0x20 DUP3 ADD MLOAD DUP2 PUSH1 0x1 ADD SSTORE POP POP POP JUMP JUMPDEST PUSH1 0x60 PUSH0 PUSH1 0x2 DUP1 SLOAD SWAP1 POP GT PUSH2 0x4A3 JUMPI PUSH1 0x40 MLOAD PUSH32 0x8C379A000000000000000000000000000000000000000000000000000000000 DUP2 MSTORE PUSH1 0x4 ADD PUSH2 0x49A SWAP1 PUSH2 0xE51 JUMP JUMPDEST PUSH1 0x40 MLOAD DUP1 SWAP2 SUB SWAP1 REVERT JUMPDEST PUSH0 DUP1 PUSH0 JUMPDEST PUSH1 0x2 DUP1 SLOAD SWAP1 POP DUP2 LT ISZERO PUSH2 0x516 JUMPI DUP2 PUSH1 0x2 DUP3 DUP2 SLOAD DUP2 LT PUSH2 0x4C9 JUMPI PUSH2 0x4C8 PUSH2 0xA49 JUMP JUMPDEST JUMPDEST SWAP1 PUSH0 MSTORE PUSH1 0x20 PUSH0 KECCAK256 SWAP1 PUSH1 0x2 MUL ADD PUSH1 0x1 ADD SLOAD GT ISZERO PUSH2 0x509 JUMPI PUSH1 0x2 DUP2 DUP2 SLOAD DUP2 LT PUSH2 0x4F3 JUMPI PUSH2 0x4F2 PUSH2 0xA49 JUMP JUMPDEST JUMPDEST SWAP1 PUSH0 MSTORE PUSH1 0x20 PUSH0 KECCAK256 SWAP1 PUSH1 0x2 MUL ADD PUSH1 0x1 ADD SLOAD SWAP2 POP DUP1 SWAP3 POP JUMPDEST DUP1 DUP1 PUSH1 0x1 ADD SWAP2 POP POP PUSH2 0x4A7 JUMP JUMPDEST POP PUSH1 0x2 DUP3 DUP2 SLOAD DUP2 LT PUSH2 0x52B JUMPI PUSH2 0x52A PUSH2 0xA49 JUMP JUMPDEST JUMPDEST SWAP1 PUSH0 MSTORE PUSH1 0x20 PUSH0 KECCAK256 SWAP1 PUSH1 0x2 MUL ADD PUSH0 ADD DUP1 SLOAD PUSH2 0x544 SWAP1 PUSH2 0xB03 JUMP JUMPDEST DUP1 PUSH1 0x1F ADD PUSH1 0x20 DUP1 SWAP2 DIV MUL PUSH1 0x20 ADD PUSH1 0x40 MLOAD SWAP1 DUP2 ADD PUSH1 0x40 MSTORE DUP1 SWAP3 SWAP2 SWAP1 DUP2 DUP2 MSTORE PUSH1 0x20 ADD DUP3 DUP1 SLOAD PUSH2 0x570 SWAP1 PUSH2 0xB03 JUMP JUMPDEST DUP1 ISZERO PUSH2 0x5BB JUMPI DUP1 PUSH1 0x1F LT PUSH2 0x592 JUMPI PUSH2 0x100 DUP1 DUP4 SLOAD DIV MUL DUP4 MSTORE SWAP2 PUSH1 0x20 ADD SWAP2 PUSH2 0x5BB JUMP JUMPDEST DUP3 ADD SWAP2 SWAP1 PUSH0 MSTORE PUSH1 0x20 PUSH0 KECCAK256 SWAP1 JUMPDEST DUP2 SLOAD DUP2 MSTORE SWAP1 PUSH1 0x1 ADD SWAP1 PUSH1 0x20 ADD DUP1 DUP4 GT PUSH2 0x59E JUMPI DUP3 SWAP1 SUB PUSH1 0x1F AND DUP3 ADD SWAP2 JUMPDEST POP POP POP POP POP SWAP3 POP POP POP SWAP1 JUMP JUMPDEST PUSH0 DUP1 SLOAD SWAP1 PUSH2 0x100 EXP SWAP1 DIV PUSH20 0xFFFFFFFFFFFFFFFFFFFFFFFFFFFFFFFFFFFFFFFF AND DUP2 JUMP JUMPDEST PUSH0 PUSH1 0x40 MLOAD SWAP1 POP SWAP1 JUMP JUMPDEST PUSH0 DUP1 REVERT JUMPDEST PUSH0 DUP1 REVERT JUMPDEST PUSH0 DUP2 SWAP1 POP SWAP2 SWAP1 POP JUMP JUMPDEST PUSH2 0x60D DUP2 PUSH2 0x5FB JUMP JUMPDEST DUP2 EQ PUSH2 0x617 JUMPI PUSH0 DUP1 REVERT JUMPDEST POP JUMP JUMPDEST PUSH0 DUP2 CALLDATALOAD SWAP1 POP PUSH2 0x628 DUP2 PUSH2 0x604 JUMP JUMPDEST SWAP3 SWAP2 POP POP JUMP JUMPDEST PUSH0 PUSH1 0x20 DUP3 DUP5 SUB SLT ISZERO PUSH2 0x643 JUMPI PUSH2 0x642 PUSH2 0x5F3 JUMP JUMPDEST JUMPDEST PUSH0 PUSH2 0x650 DUP5 DUP3 DUP6 ADD PUSH2 0x61A JUMP JUMPDEST SWAP2 POP POP SWAP3 SWAP2 POP POP JUMP JUMPDEST PUSH0 PUSH20 0xFFFFFFFFFFFFFFFFFFFFFFFFFFFFFFFFFFFFFFFF DUP3 AND SWAP1 POP SWAP2 SWAP1 POP JUMP JUMPDEST PUSH0 PUSH2 0x682 DUP3 PUSH2 0x659 JUMP JUMPDEST SWAP1 POP SWAP2 SWAP1 POP JUMP JUMPDEST PUSH2 0x692 DUP2 PUSH2 0x678 JUMP JUMPDEST DUP2 EQ PUSH2 0x69C JUMPI PUSH0 DUP1 REVERT JUMPDEST POP JUMP JUMPDEST PUSH0 DUP2 CALLDATALOAD SWAP1 POP PUSH2 0x6AD DUP2 PUSH2 0x689 JUMP JUMPDEST SWAP3 SWAP2 POP POP JUMP JUMPDEST PUSH0 PUSH1 0x20 DUP3 DUP5 SUB SLT ISZERO PUSH2 0x6C8 JUMPI PUSH2 0x6C7 PUSH2 0x5F3 JUMP JUMPDEST JUMPDEST PUSH0 PUSH2 0x6D5 DUP5 DUP3 DUP6 ADD PUSH2 0x69F JUMP JUMPDEST SWAP2 POP POP SWAP3 SWAP2 POP POP JUMP JUMPDEST PUSH0 DUP2 ISZERO ISZERO SWAP1 POP SWAP2 SWAP1 POP JUMP JUMPDEST PUSH2 0x6F2 DUP2 PUSH2 0x6DE JUMP JUMPDEST DUP3 MSTORE POP POP JUMP JUMPDEST PUSH0 PUSH1 0x20 DUP3 ADD SWAP1 POP PUSH2 0x70B PUSH0 DUP4 ADD DUP5 PUSH2 0x6E9 JUMP JUMPDEST SWAP3 SWAP2 POP POP JUMP JUMPDEST PUSH0 DUP2 MLOAD SWAP1 POP SWAP2 SWAP1 POP JUMP JUMPDEST PUSH0 DUP3 DUP3 MSTORE PUSH1 0x20 DUP3 ADD SWAP1 POP SWAP3 SWAP2 POP POP JUMP JUMPDEST DUP3 DUP2 DUP4 MCOPY PUSH0 DUP4 DUP4 ADD MSTORE POP POP POP JUMP JUMPDEST PUSH0 PUSH1 0x1F NOT PUSH1 0x1F DUP4 ADD AND SWAP1 POP SWAP2 SWAP1 POP JUMP JUMPDEST PUSH0 PUSH2 0x753 DUP3 PUSH2 0x711 JUMP JUMPDEST PUSH2 0x75D DUP2 DUP6 PUSH2 0x71B JUMP JUMPDEST SWAP4 POP PUSH2 0x76D DUP2 DUP6 PUSH1 0x20 DUP7 ADD PUSH2 0x72B JUMP JUMPDEST PUSH2 0x776 DUP2 PUSH2 0x739 JUMP JUMPDEST DUP5 ADD SWAP2 POP POP SWAP3 SWAP2 POP POP JUMP JUMPDEST PUSH2 0x78A DUP2 PUSH2 0x5FB JUMP JUMPDEST DUP3 MSTORE POP POP JUMP JUMPDEST PUSH0 PUSH1 0x40 DUP3 ADD SWAP1 POP DUP2 DUP2 SUB PUSH0 DUP4 ADD MSTORE PUSH2 0x7A8 DUP2 DUP6 PUSH2 0x749 JUMP JUMPDEST SWAP1 POP PUSH2 0x7B7 PUSH1 0x20 DUP4 ADD DUP5 PUSH2 0x781 JUMP JUMPDEST SWAP4 SWAP3 POP POP POP JUMP JUMPDEST PUSH0 DUP1 REVERT JUMPDEST PUSH0 DUP1 REVERT JUMPDEST PUSH32 0x4E487B7100000000000000000000000000000000000000000000000000000000 PUSH0 MSTORE PUSH1 0x41 PUSH1 0x4 MSTORE PUSH1 0x24 PUSH0 REVERT JUMPDEST PUSH2 0x7FC DUP3 PUSH2 0x739 JUMP JUMPDEST DUP2 ADD DUP2 DUP2 LT PUSH8 0xFFFFFFFFFFFFFFFF DUP3 GT OR ISZERO PUSH2 0x81B JUMPI PUSH2 0x81A PUSH2 0x7C6 JUMP JUMPDEST JUMPDEST DUP1 PUSH1 0x40 MSTORE POP POP POP JUMP JUMPDEST PUSH0 PUSH2 0x82D PUSH2 0x5EA JUMP JUMPDEST SWAP1 POP PUSH2 0x839 DUP3 DUP3 PUSH2 0x7F3 JUMP JUMPDEST SWAP2 SWAP1 POP JUMP JUMPDEST PUSH0 PUSH8 0xFFFFFFFFFFFFFFFF DUP3 GT ISZERO PUSH2 0x858 JUMPI PUSH2 0x857 PUSH2 0x7C6 JUMP JUMPDEST JUMPDEST PUSH2 0x861 DUP3 PUSH2 0x739 JUMP JUMPDEST SWAP1 POP PUSH1 0x20 DUP2 ADD SWAP1 POP SWAP2 SWAP1 POP JUMP JUMPDEST DUP3 DUP2 DUP4 CALLDATACOPY PUSH0 DUP4 DUP4 ADD MSTORE POP POP POP JUMP JUMPDEST PUSH0 PUSH2 0x88E PUSH2 0x889 DUP5 PUSH2 0x83E JUMP JUMPDEST PUSH2 0x824 JUMP JUMPDEST SWAP1 POP DUP3 DUP2 MSTORE PUSH1 0x20 DUP2 ADD DUP5 DUP5 DUP5 ADD GT ISZERO PUSH2 0x8AA JUMPI PUSH2 0x8A9 PUSH2 0x7C2 JUMP JUMPDEST JUMPDEST PUSH2 0x8B5 DUP5 DUP3 DUP6 PUSH2 0x86E JUMP JUMPDEST POP SWAP4 SWAP3 POP POP POP JUMP JUMPDEST PUSH0 DUP3 PUSH1 0x1F DUP4 ADD SLT PUSH2 0x8D1 JUMPI PUSH2 0x8D0 PUSH2 0x7BE JUMP JUMPDEST JUMPDEST DUP2 CALLDATALOAD PUSH2 0x8E1 DUP5 DUP3 PUSH1 0x20 DUP7 ADD PUSH2 0x87C JUMP JUMPDEST SWAP2 POP POP SWAP3 SWAP2 POP POP JUMP JUMPDEST PUSH0 PUSH1 0x20 DUP3 DUP5 SUB SLT ISZERO PUSH2 0x8FF JUMPI PUSH2 0x8FE PUSH2 0x5F3 JUMP JUMPDEST JUMPDEST PUSH0 DUP3 ADD CALLDATALOAD PUSH8 0xFFFFFFFFFFFFFFFF DUP2 GT ISZERO PUSH2 0x91C JUMPI PUSH2 0x91B PUSH2 0x5F7 JUMP JUMPDEST JUMPDEST PUSH2 0x928 DUP5 DUP3 DUP6 ADD PUSH2 0x8BD JUMP JUMPDEST SWAP2 POP POP SWAP3 SWAP2 POP POP JUMP JUMPDEST PUSH0 PUSH1 0x20 DUP3 ADD SWAP1 POP DUP2 DUP2 SUB PUSH0 DUP4 ADD MSTORE PUSH2 0x949 DUP2 DUP5 PUSH2 0x749 JUMP JUMPDEST SWAP1 POP SWAP3 SWAP2 POP POP JUMP JUMPDEST PUSH2 0x95A DUP2 PUSH2 0x678 JUMP JUMPDEST DUP3 MSTORE POP POP JUMP JUMPDEST PUSH0 PUSH1 0x20 DUP3 ADD SWAP1 POP PUSH2 0x973 PUSH0 DUP4 ADD DUP5 PUSH2 0x951 JUMP JUMPDEST SWAP3 SWAP2 POP POP JUMP JUMPDEST PUSH32 0x596F75206861766520616C726561647920766F74656421000000000000000000 PUSH0 DUP3 ADD MSTORE POP JUMP JUMPDEST PUSH0 PUSH2 0x9AD PUSH1 0x17 DUP4 PUSH2 0x71B JUMP JUMPDEST SWAP2 POP PUSH2 0x9B8 DUP3 PUSH2 0x979 JUMP JUMPDEST PUSH1 0x20 DUP3 ADD SWAP1 POP SWAP2 SWAP1 POP JUMP JUMPDEST PUSH0 PUSH1 0x20 DUP3 ADD SWAP1 POP DUP2 DUP2 SUB PUSH0 DUP4 ADD MSTORE PUSH2 0x9DA DUP2 PUSH2 0x9A1 JUMP JUMPDEST SWAP1 POP SWAP2 SWAP1 POP JUMP JUMPDEST PUSH32 0x496E76616C69642063616E64696461746520696E646578000000000000000000 PUSH0 DUP3 ADD MSTORE POP JUMP JUMPDEST PUSH0 PUSH2 0xA15 PUSH1 0x17 DUP4 PUSH2 0x71B JUMP JUMPDEST SWAP2 POP PUSH2 0xA20 DUP3 PUSH2 0x9E1 JUMP JUMPDEST PUSH1 0x20 DUP3 ADD SWAP1 POP SWAP2 SWAP1 POP JUMP JUMPDEST PUSH0 PUSH1 0x20 DUP3 ADD SWAP1 POP DUP2 DUP2 SUB PUSH0 DUP4 ADD MSTORE PUSH2 0xA42 DUP2 PUSH2 0xA09 JUMP JUMPDEST SWAP1 POP SWAP2 SWAP1 POP JUMP JUMPDEST PUSH32 0x4E487B7100000000000000000000000000000000000000000000000000000000 PUSH0 MSTORE PUSH1 0x32 PUSH1 0x4 MSTORE PUSH1 0x24 PUSH0 REVERT JUMPDEST PUSH32 0x4E487B7100000000000000000000000000000000000000000000000000000000 PUSH0 MSTORE PUSH1 0x11 PUSH1 0x4 MSTORE PUSH1 0x24 PUSH0 REVERT JUMPDEST PUSH0 PUSH2 0xAAD DUP3 PUSH2 0x5FB JUMP JUMPDEST SWAP2 POP PUSH2 0xAB8 DUP4 PUSH2 0x5FB JUMP JUMPDEST SWAP3 POP DUP3 DUP3 ADD SWAP1 POP DUP1 DUP3 GT ISZERO PUSH2 0xAD0 JUMPI PUSH2 0xACF PUSH2 0xA76 JUMP JUMPDEST JUMPDEST SWAP3 SWAP2 POP POP JUMP JUMPDEST PUSH32 0x4E487B7100000000000000000000000000000000000000000000000000000000 PUSH0 MSTORE PUSH1 0x22 PUSH1 0x4 MSTORE PUSH1 0x24 PUSH0 REVERT JUMPDEST PUSH0 PUSH1 0x2 DUP3 DIV SWAP1 POP PUSH1 0x1 DUP3 AND DUP1 PUSH2 0xB1A JUMPI PUSH1 0x7F DUP3 AND SWAP2 POP JUMPDEST PUSH1 0x20 DUP3 LT DUP2 SUB PUSH2 0xB2D JUMPI PUSH2 0xB2C PUSH2 0xAD6 JUMP JUMPDEST JUMPDEST POP SWAP2 SWAP1 POP JUMP JUMPDEST PUSH32 0x6F6E6C792061646D696E2063616E206164640000000000000000000000000000 PUSH0 DUP3 ADD MSTORE POP JUMP JUMPDEST PUSH0 PUSH2 0xB67 PUSH1 0x12 DUP4 PUSH2 0x71B JUMP JUMPDEST SWAP2 POP PUSH2 0xB72 DUP3 PUSH2 0xB33 JUMP JUMPDEST PUSH1 0x20 DUP3 ADD SWAP1 POP SWAP2 SWAP1 POP JUMP JUMPDEST PUSH0 PUSH1 0x20 DUP3 ADD SWAP1 POP DUP2 DUP2 SUB PUSH0 DUP4 ADD MSTORE PUSH2 0xB94 DUP2 PUSH2 0xB5B JUMP JUMPDEST SWAP1 POP SWAP2 SWAP1 POP JUMP JUMPDEST PUSH0 DUP2 SWAP1 POP DUP2 PUSH0 MSTORE PUSH1 0x20 PUSH0 KECCAK256 SWAP1 POP SWAP2 SWAP1 POP JUMP JUMPDEST PUSH0 PUSH1 0x20 PUSH1 0x1F DUP4 ADD DIV SWAP1 POP SWAP2 SWAP1 POP JUMP JUMPDEST PUSH0 DUP3 DUP3 SHL SWAP1 POP SWAP3 SWAP2 POP POP JUMP JUMPDEST PUSH0 PUSH1 0x8 DUP4 MUL PUSH2 0xBF7 PUSH32 0xFFFFFFFFFFFFFFFFFFFFFFFFFFFFFFFFFFFFFFFFFFFFFFFFFFFFFFFFFFFFFFFF DUP3 PUSH2 0xBBC JUMP JUMPDEST PUSH2 0xC01 DUP7 DUP4 PUSH2 0xBBC JUMP JUMPDEST SWAP6 POP DUP1 NOT DUP5 AND SWAP4 POP DUP1 DUP7 AND DUP5 OR SWAP3 POP POP POP SWAP4 SWAP3 POP POP POP JUMP JUMPDEST PUSH0 DUP2 SWAP1 POP SWAP2 SWAP1 POP JUMP JUMPDEST PUSH0 PUSH2 0xC3C PUSH2 0xC37 PUSH2 0xC32 DUP5 PUSH2 0x5FB JUMP JUMPDEST PUSH2 0xC19 JUMP JUMPDEST PUSH2 0x5FB JUMP JUMPDEST SWAP1 POP SWAP2 SWAP1 POP JUMP JUMPDEST PUSH0 DUP2 SWAP1 POP SWAP2 SWAP1 POP JUMP JUMPDEST PUSH2 0xC55 DUP4 PUSH2 0xC22 JUMP JUMPDEST PUSH2 0xC69 PUSH2 0xC61 DUP3 PUSH2 0xC43 JUMP JUMPDEST DUP5 DUP5 SLOAD PUSH2 0xBC8 JUMP JUMPDEST DUP3 SSTORE POP POP POP POP JUMP JUMPDEST PUSH0 SWAP1 JUMP JUMPDEST PUSH2 0xC7D PUSH2 0xC71 JUMP JUMPDEST PUSH2 0xC88 DUP2 DUP5 DUP5 PUSH2 0xC4C JUMP JUMPDEST POP POP POP JUMP JUMPDEST JUMPDEST DUP2 DUP2 LT ISZERO PUSH2 0xCAB JUMPI PUSH2 0xCA0 PUSH0 DUP3 PUSH2 0xC75 JUMP JUMPDEST PUSH1 0x1 DUP2 ADD SWAP1 POP PUSH2 0xC8E JUMP JUMPDEST POP POP JUMP JUMPDEST PUSH1 0x1F DUP3 GT ISZERO PUSH2 0xCF0 JUMPI PUSH2 0xCC1 DUP2 PUSH2 0xB9B JUMP JUMPDEST PUSH2 0xCCA DUP5 PUSH2 0xBAD JUMP JUMPDEST DUP2 ADD PUSH1 0x20 DUP6 LT ISZERO PUSH2 0xCD9 JUMPI DUP2 SWAP1 POP JUMPDEST PUSH2 0xCED PUSH2 0xCE5 DUP6 PUSH2 0xBAD JUMP JUMPDEST DUP4 ADD DUP3 PUSH2 0xC8D JUMP JUMPDEST POP POP JUMPDEST POP POP POP JUMP JUMPDEST PUSH0 DUP3 DUP3 SHR SWAP1 POP SWAP3 SWAP2 POP POP JUMP JUMPDEST PUSH0 PUSH2 0xD10 PUSH0 NOT DUP5 PUSH1 0x8 MUL PUSH2 0xCF5 JUMP JUMPDEST NOT DUP1 DUP4 AND SWAP2 POP POP SWAP3 SWAP2 POP POP JUMP JUMPDEST PUSH0 PUSH2 0xD28 DUP4 DUP4 PUSH2 0xD01 JUMP JUMPDEST SWAP2 POP DUP3 PUSH1 0x2 MUL DUP3 OR SWAP1 POP SWAP3 SWAP2 POP POP JUMP JUMPDEST PUSH2 0xD41 DUP3 PUSH2 0x711 JUMP JUMPDEST PUSH8 0xFFFFFFFFFFFFFFFF DUP2 GT ISZERO PUSH2 0xD5A JUMPI PUSH2 0xD59 PUSH2 0x7C6 JUMP JUMPDEST JUMPDEST PUSH2 0xD64 DUP3 SLOAD PUSH2 0xB03 JUMP JUMPDEST PUSH2 0xD6F DUP3 DUP3 DUP6 PUSH2 0xCAF JUMP JUMPDEST PUSH0 PUSH1 0x20 SWAP1 POP PUSH1 0x1F DUP4 GT PUSH1 0x1 DUP2 EQ PUSH2 0xDA0 JUMPI PUSH0 DUP5 ISZERO PUSH2 0xD8E JUMPI DUP3 DUP8 ADD MLOAD SWAP1 POP JUMPDEST PUSH2 0xD98 DUP6 DUP3 PUSH2 0xD1D JUMP JUMPDEST DUP7 SSTORE POP PUSH2 0xDFF JUMP JUMPDEST PUSH1 0x1F NOT DUP5 AND PUSH2 0xDAE DUP7 PUSH2 0xB9B JUMP JUMPDEST PUSH0 JUMPDEST DUP3 DUP2 LT ISZERO PUSH2 0xDD5 JUMPI DUP5 DUP10 ADD MLOAD DUP3 SSTORE PUSH1 0x1 DUP3 ADD SWAP2 POP PUSH1 0x20 DUP6 ADD SWAP5 POP PUSH1 0x20 DUP2 ADD SWAP1 POP PUSH2 0xDB0 JUMP JUMPDEST DUP7 DUP4 LT ISZERO PUSH2 0xDF2 JUMPI DUP5 DUP10 ADD MLOAD PUSH2 0xDEE PUSH1 0x1F DUP10 AND DUP3 PUSH2 0xD01 JUMP JUMPDEST DUP4 SSTORE POP JUMPDEST PUSH1 0x1 PUSH1 0x2 DUP9 MUL ADD DUP9 SSTORE POP POP POP JUMPDEST POP POP POP POP POP POP JUMP JUMPDEST PUSH32 0x4E6F2063616E6469646174657320617661696C61626C65000000000000000000 PUSH0 DUP3 ADD MSTORE POP JUMP JUMPDEST PUSH0 PUSH2 0xE3B PUSH1 0x17 DUP4 PUSH2 0x71B JUMP JUMPDEST SWAP2 POP PUSH2 0xE46 DUP3 PUSH2 0xE07 JUMP JUMPDEST PUSH1 0x20 DUP3 ADD SWAP1 POP SWAP2 SWAP1 POP JUMP JUMPDEST PUSH0 PUSH1 0x20 DUP3 ADD SWAP1 POP DUP2 DUP2 SUB PUSH0 DUP4 ADD MSTORE PUSH2 0xE68 DUP2 PUSH2 0xE2F JUMP JUMPDEST SWAP1 POP SWAP2 SWAP1 POP JUMP INVALID LOG2 PUSH5 0x6970667358 0x22 SLT KECCAK256 0xC3 0x1E 0xAD 0xCE 0x4C 0xB8 MLOAD SUB SWAP6 DUP15 0xF8 LOG4 SWAP9 0xEC PUSH14 0xE7B1B8AE81B6A8870782AD71A314 DUP4 CODECOPY 0xF9 PUSH5 0x736F6C6343 STOP ADDMOD BYTE STOP CALLER "
				},
				"gasEstimates": {
					"creation": {
						"codeDepositCost": "749800",
						"executionCost": "25049",
						"totalCost": "774849"
					},
					"external": {
						"addCandidate(string)": "infinite",
						"admin()": "2593",
						"candidates(uint256)": "infinite",
						"getWinner()": "infinite",
						"hasVoted(address)": "2833",
						"vote(uint256)": "infinite"
					}
				},
				"methodIdentifiers": {
					"addCandidate(string)": "462e91ec",
					"admin()": "f851a440",
					"candidates(uint256)": "3477ee2e",
					"getWinner()": "8e7ea5b2",
					"hasVoted(address)": "09eef43e",
					"vote(uint256)": "0121b93f"
				}
			},
			"storageLayout": {
				"storage": [
					{
						"astId": 3,
						"contract": "contracts/Voting.sol:Voting",
						"label": "admin",
						"offset": 0,
						"slot": "0",
						"type": "t_address"
					},
					{
						"astId": 7,
						"contract": "contracts/Voting.sol:Voting",
						"label": "hasVoted",
						"offset": 0,
						"slot": "1",
						"type": "t_mapping(t_address,t_bool)"
					},
					{
						"astId": 25,
						"contract": "contracts/Voting.sol:Voting",
						"label": "candidates",
						"offset": 0,
						"slot": "2",
						"type": "t_array(t_struct(Candidate)21_storage)dyn_storage"
					}
				],
				"types": {
					"t_address": {
						"encoding": "inplace",
						"label": "address",
						"numberOfBytes": "20"
					},
					"t_array(t_struct(Candidate)21_storage)dyn_storage": {
						"base": "t_struct(Candidate)21_storage",
						"encoding": "dynamic_array",
						"label": "struct Voting.Candidate[]",
						"numberOfBytes": "32"
					},
					"t_bool": {
						"encoding": "inplace",
						"label": "bool",
						"numberOfBytes": "1"
					},
					"t_mapping(t_address,t_bool)": {
						"encoding": "mapping",
						"key": "t_address",
						"label": "mapping(address => bool)",
						"numberOfBytes": "32",
						"value": "t_bool"
					},
					"t_string_storage": {
						"encoding": "bytes",
						"label": "string",
						"numberOfBytes": "32"
					},
					"t_struct(Candidate)21_storage": {
						"encoding": "inplace",
						"label": "struct Voting.Candidate",
						"members": [
							{
								"astId": 18,
								"contract": "contracts/Voting.sol:Voting",
								"label": "name",
								"offset": 0,
								"slot": "0",
								"type": "t_string_storage"
							},
							{
								"astId": 20,
								"contract": "contracts/Voting.sol:Voting",
								"label": "voteCount",
								"offset": 0,
								"slot": "1",
								"type": "t_uint256"
							}
						],
						"numberOfBytes": "64"
					},
					"t_uint256": {
						"encoding": "inplace",
						"label": "uint256",
						"numberOfBytes": "32"
					}
				}
			},
			"userdoc": {
				"kind": "user",
				"methods": {},
				"version": 1
			}
		}
	}
}