{
	"contracts/FundMe.sol": {
		"FundMe": {
			"abi": [
				{
					"inputs": [],
					"stateMutability": "nonpayable",
					"type": "constructor"
				},
				{
					"inputs": [
						{
							"internalType": "address",
							"name": "",
							"type": "address"
						}
					],
					"name": "addressToAmountFunded",
					"outputs": [
						{
							"internalType": "uint256",
							"name": "",
							"type": "uint256"
						}
					],
					"stateMutability": "view",
					"type": "function"
				},
				{
					"inputs": [],
					"name": "fund",
					"outputs": [],
					"stateMutability": "payable",
					"type": "function"
				},
				{
					"inputs": [
						{
							"internalType": "uint256",
							"name": "",
							"type": "uint256"
						}
					],
					"name": "funders",
					"outputs": [
						{
							"internalType": "address",
							"name": "",
							"type": "address"
						}
					],
					"stateMutability": "view",
					"type": "function"
				},
				{
					"inputs": [
						{
							"internalType": "uint256",
							"name": "ethAmount",
							"type": "uint256"
						}
					],
					"name": "getConversionRate",
					"outputs": [
						{
							"internalType": "uint256",
							"name": "",
							"type": "uint256"
						}
					],
					"stateMutability": "view",
					"type": "function"
				},
				{
					"inputs": [],
					"name": "getPrice",
					"outputs": [
						{
							"internalType": "uint256",
							"name": "",
							"type": "uint256"
						}
					],
					"stateMutability": "view",
					"type": "function"
				},
				{
					"inputs": [],
					"name": "getVersion",
					"outputs": [
						{
							"internalType": "uint256",
							"name": "",
							"type": "uint256"
						}
					],
					"stateMutability": "view",
					"type": "function"
				},
				{
					"inputs": [],
					"name": "owner",
					"outputs": [
						{
							"internalType": "address",
							"name": "",
							"type": "address"
						}
					],
					"stateMutability": "view",
					"type": "function"
				},
				{
					"inputs": [],
					"name": "withdraw",
					"outputs": [],
					"stateMutability": "payable",
					"type": "function"
				}
			],
			"devdoc": {
				"kind": "dev",
				"methods": {},
				"version": 1
			},
			"evm": {
				"assembly": "    /* \"contracts/FundMe.sol\":501:3615  contract FundMe {... */\n  mstore(0x40, 0x80)\n    /* \"contracts/FundMe.sol\":946:1004  constructor() public {... */\n  callvalue\n  dup1\n  iszero\n  tag_1\n  jumpi\n  0x00\n  dup1\n  revert\ntag_1:\n  pop\n    /* \"contracts/FundMe.sol\":986:996  msg.sender */\n  caller\n    /* \"contracts/FundMe.sol\":978:983  owner */\n  0x02\n  0x00\n    /* \"contracts/FundMe.sol\":978:996  owner = msg.sender */\n  0x0100\n  exp\n  dup2\n  sload\n  dup2\n  0xffffffffffffffffffffffffffffffffffffffff\n  mul\n  not\n  and\n  swap1\n  dup4\n  0xffffffffffffffffffffffffffffffffffffffff\n  and\n  mul\n  or\n  swap1\n  sstore\n  pop\n    /* \"contracts/FundMe.sol\":501:3615  contract FundMe {... */\n  dataSize(sub_0)\n  dup1\n  dataOffset(sub_0)\n  0x00\n  codecopy\n  0x00\n  return\nstop\n\nsub_0: assembly {\n        /* \"contracts/FundMe.sol\":501:3615  contract FundMe {... */\n      mstore(0x40, 0x80)\n      jumpi(tag_1, lt(calldatasize, 0x04))\n      shr(0xe0, calldataload(0x00))\n      dup1\n      0x8da5cb5b\n      gt\n      tag_10\n      jumpi\n      dup1\n      0x8da5cb5b\n      eq\n      tag_6\n      jumpi\n      dup1\n      0x98d5fdca\n      eq\n      tag_7\n      jumpi\n      dup1\n      0xb60d4288\n      eq\n      tag_8\n      jumpi\n      dup1\n      0xdc0d3dff\n      eq\n      tag_9\n      jumpi\n      jump(tag_1)\n    tag_10:\n      dup1\n      0x0d8e6e2c\n      eq\n      tag_2\n      jumpi\n      dup1\n      0x3ccfd60b\n      eq\n      tag_3\n      jumpi\n      dup1\n      0x3e47d6f3\n      eq\n      tag_4\n      jumpi\n      dup1\n      0x6e5b6b28\n      eq\n      tag_5\n      jumpi\n    tag_1:\n      0x00\n      dup1\n      revert\n        /* \"contracts/FundMe.sol\":1563:1794  function getVersion() public view returns (uint256) {... */\n    tag_2:\n      callvalue\n      dup1\n      iszero\n      tag_11\n      jumpi\n      0x00\n      dup1\n      revert\n    tag_11:\n      pop\n      tag_12\n      tag_13\n      jump\t// in\n    tag_12:\n      mload(0x40)\n      tag_14\n      swap2\n      swap1\n      tag_15\n      jump\t// in\n    tag_14:\n      mload(0x40)\n      dup1\n      swap2\n      sub\n      swap1\n      return\n        /* \"contracts/FundMe.sol\":2899:3612  function withdraw() public payable onlyOwner {... */\n    tag_3:\n      tag_16\n      tag_17\n      jump\t// in\n    tag_16:\n      stop\n        /* \"contracts/FundMe.sol\":657:713  mapping(address => uint256) public addressToAmountFunded */\n    tag_4:\n      callvalue\n      dup1\n      iszero\n      tag_18\n      jumpi\n      0x00\n      dup1\n      revert\n    tag_18:\n      pop\n      tag_19\n      0x04\n      dup1\n      calldatasize\n      sub\n      dup2\n      add\n      swap1\n      tag_20\n      swap2\n      swap1\n      tag_21\n      jump\t// in\n    tag_20:\n      tag_22\n      jump\t// in\n    tag_19:\n      mload(0x40)\n      tag_23\n      swap2\n      swap1\n      tag_15\n      jump\t// in\n    tag_23:\n      mload(0x40)\n      dup1\n      swap2\n      sub\n      swap1\n      return\n        /* \"contracts/FundMe.sol\":2169:2517  function getConversionRate(uint256 ethAmount)... */\n    tag_5:\n      callvalue\n      dup1\n      iszero\n      tag_24\n      jumpi\n      0x00\n      dup1\n      revert\n    tag_24:\n      pop\n      tag_25\n      0x04\n      dup1\n      calldatasize\n      sub\n      dup2\n      add\n      swap1\n      tag_26\n      swap2\n      swap1\n      tag_27\n      jump\t// in\n    tag_26:\n      tag_28\n      jump\t// in\n    tag_25:\n      mload(0x40)\n      tag_29\n      swap2\n      swap1\n      tag_15\n      jump\t// in\n    tag_29:\n      mload(0x40)\n      dup1\n      swap2\n      sub\n      swap1\n      return\n        /* \"contracts/FundMe.sol\":848:868  address public owner */\n    tag_6:\n      callvalue\n      dup1\n      iszero\n      tag_30\n      jumpi\n      0x00\n      dup1\n      revert\n    tag_30:\n      pop\n      tag_31\n      tag_32\n      jump\t// in\n    tag_31:\n      mload(0x40)\n      tag_33\n      swap2\n      swap1\n      tag_34\n      jump\t// in\n    tag_33:\n      mload(0x40)\n      dup1\n      swap2\n      sub\n      swap1\n      return\n        /* \"contracts/FundMe.sol\":1802:2142  function getPrice() public view returns (uint256) {... */\n    tag_7:\n      callvalue\n      dup1\n      iszero\n      tag_35\n      jumpi\n      0x00\n      dup1\n      revert\n    tag_35:\n      pop\n      tag_36\n      tag_37\n      jump\t// in\n    tag_36:\n      mload(0x40)\n      tag_38\n      swap2\n      swap1\n      tag_15\n      jump\t// in\n    tag_38:\n      mload(0x40)\n      dup1\n      swap2\n      sub\n      swap1\n      return\n        /* \"contracts/FundMe.sol\":1012:1493  function fund() public payable {... */\n    tag_8:\n      tag_39\n      tag_40\n      jump\t// in\n    tag_39:\n      stop\n        /* \"contracts/FundMe.sol\":761:785  address[] public funders */\n    tag_9:\n      callvalue\n      dup1\n      iszero\n      tag_41\n      jumpi\n      0x00\n      dup1\n      revert\n    tag_41:\n      pop\n      tag_42\n      0x04\n      dup1\n      calldatasize\n      sub\n      dup2\n      add\n      swap1\n      tag_43\n      swap2\n      swap1\n      tag_27\n      jump\t// in\n    tag_43:\n      tag_44\n      jump\t// in\n    tag_42:\n      mload(0x40)\n      tag_45\n      swap2\n      swap1\n      tag_34\n      jump\t// in\n    tag_45:\n      mload(0x40)\n      dup1\n      swap2\n      sub\n      swap1\n      return\n        /* \"contracts/FundMe.sol\":1563:1794  function getVersion() public view returns (uint256) {... */\n    tag_13:\n        /* \"contracts/FundMe.sol\":1606:1613  uint256 */\n      0x00\n        /* \"contracts/FundMe.sol\":1626:1657  AggregatorV3Interface priceFeed */\n      dup1\n        /* \"contracts/FundMe.sol\":1696:1738  0xD4a33860578De61DBAbDc8BFdb98FD742fA7028e */\n      0xd4a33860578de61dbabdc8bfdb98fd742fa7028e\n        /* \"contracts/FundMe.sol\":1626:1749  AggregatorV3Interface priceFeed = AggregatorV3Interface(... */\n      swap1\n      pop\n        /* \"contracts/FundMe.sol\":1767:1776  priceFeed */\n      dup1\n        /* \"contracts/FundMe.sol\":1767:1784  priceFeed.version */\n      0xffffffffffffffffffffffffffffffffffffffff\n      and\n      0x54fd4d50\n        /* \"contracts/FundMe.sol\":1767:1786  priceFeed.version() */\n      mload(0x40)\n      dup2\n      0xffffffff\n      and\n      0xe0\n      shl\n      dup2\n      mstore\n      0x04\n      add\n      0x20\n      mload(0x40)\n      dup1\n      dup4\n      sub\n      dup2\n      dup7\n      gas\n      staticcall\n      iszero\n      dup1\n      iszero\n      tag_48\n      jumpi\n      returndatasize\n      0x00\n      dup1\n      returndatacopy\n      revert(0x00, returndatasize)\n    tag_48:\n      pop\n      pop\n      pop\n      pop\n      mload(0x40)\n      returndatasize\n      not(0x1f)\n      0x1f\n      dup3\n      add\n      and\n      dup3\n      add\n      dup1\n      0x40\n      mstore\n      pop\n      dup2\n      add\n      swap1\n      tag_49\n      swap2\n      swap1\n      tag_50\n      jump\t// in\n    tag_49:\n        /* \"contracts/FundMe.sol\":1760:1786  return priceFeed.version() */\n      swap2\n      pop\n      pop\n        /* \"contracts/FundMe.sol\":1563:1794  function getVersion() public view returns (uint256) {... */\n      swap1\n      jump\t// out\n        /* \"contracts/FundMe.sol\":2899:3612  function withdraw() public payable onlyOwner {... */\n    tag_17:\n        /* \"contracts/FundMe.sol\":2732:2737  owner */\n      0x02\n      0x00\n      swap1\n      sload\n      swap1\n      0x0100\n      exp\n      swap1\n      div\n      0xffffffffffffffffffffffffffffffffffffffff\n      and\n        /* \"contracts/FundMe.sol\":2718:2737  msg.sender == owner */\n      0xffffffffffffffffffffffffffffffffffffffff\n      and\n        /* \"contracts/FundMe.sol\":2718:2728  msg.sender */\n      caller\n        /* \"contracts/FundMe.sol\":2718:2737  msg.sender == owner */\n      0xffffffffffffffffffffffffffffffffffffffff\n      and\n      eq\n        /* \"contracts/FundMe.sol\":2710:2738  require(msg.sender == owner) */\n      tag_52\n      jumpi\n      0x00\n      dup1\n      revert\n    tag_52:\n        /* \"contracts/FundMe.sol\":2983:2988  owner */\n      0x02\n      0x00\n      swap1\n      sload\n      swap1\n      0x0100\n      exp\n      swap1\n      div\n      0xffffffffffffffffffffffffffffffffffffffff\n      and\n        /* \"contracts/FundMe.sol\":2969:2988  msg.sender == owner */\n      0xffffffffffffffffffffffffffffffffffffffff\n      and\n        /* \"contracts/FundMe.sol\":2969:2979  msg.sender */\n      caller\n        /* \"contracts/FundMe.sol\":2969:2988  msg.sender == owner */\n      0xffffffffffffffffffffffffffffffffffffffff\n      and\n      eq\n        /* \"contracts/FundMe.sol\":2961:3017  require(msg.sender == owner, \"Only owner can withdraw!\") */\n      tag_54\n      jumpi\n      mload(0x40)\n      0x08c379a000000000000000000000000000000000000000000000000000000000\n      dup2\n      mstore\n      0x04\n      add\n      tag_55\n      swap1\n      tag_56\n      jump\t// in\n    tag_55:\n      mload(0x40)\n      dup1\n      swap2\n      sub\n      swap1\n      revert\n    tag_54:\n        /* \"contracts/FundMe.sol\":3025:3037  bool success */\n      0x00\n        /* \"contracts/FundMe.sol\":3051:3061  msg.sender */\n      caller\n        /* \"contracts/FundMe.sol\":3043:3067  payable(msg.sender).call */\n      0xffffffffffffffffffffffffffffffffffffffff\n      and\n        /* \"contracts/FundMe.sol\":3075:3096  address(this).balance */\n      selfbalance\n        /* \"contracts/FundMe.sol\":3043:3101  payable(msg.sender).call{value: address(this).balance}(\"\") */\n      mload(0x40)\n      tag_57\n      swap1\n      tag_58\n      jump\t// in\n    tag_57:\n      0x00\n      mload(0x40)\n      dup1\n      dup4\n      sub\n      dup2\n      dup6\n      dup8\n      gas\n      call\n      swap3\n      pop\n      pop\n      pop\n      returndatasize\n      dup1\n      0x00\n      dup2\n      eq\n      tag_61\n      jumpi\n      mload(0x40)\n      swap2\n      pop\n      and(add(returndatasize, 0x3f), not(0x1f))\n      dup3\n      add\n      0x40\n      mstore\n      returndatasize\n      dup3\n      mstore\n      returndatasize\n      0x00\n      0x20\n      dup5\n      add\n      returndatacopy\n      jump(tag_60)\n    tag_61:\n      0x60\n      swap2\n      pop\n    tag_60:\n      pop\n        /* \"contracts/FundMe.sol\":3024:3101  (bool success, ) = payable(msg.sender).call{value: address(this).balance}(\"\") */\n      pop\n      swap1\n      pop\n        /* \"contracts/FundMe.sol\":3116:3123  success */\n      dup1\n        /* \"contracts/FundMe.sol\":3108:3145  require(success, \"Withdrawal failed\") */\n      tag_62\n      jumpi\n      mload(0x40)\n      0x08c379a000000000000000000000000000000000000000000000000000000000\n      dup2\n      mstore\n      0x04\n      add\n      tag_63\n      swap1\n      tag_64\n      jump\t// in\n    tag_63:\n      mload(0x40)\n      dup1\n      swap2\n      sub\n      swap1\n      revert\n    tag_62:\n        /* \"contracts/FundMe.sol\":3300:3319  uint256 funderIndex */\n      0x00\n        /* \"contracts/FundMe.sol\":3281:3518  for (... */\n    tag_65:\n        /* \"contracts/FundMe.sol\":3352:3359  funders */\n      0x01\n        /* \"contracts/FundMe.sol\":3352:3366  funders.length */\n      dup1\n      sload\n      swap1\n      pop\n        /* \"contracts/FundMe.sol\":3338:3349  funderIndex */\n      dup2\n        /* \"contracts/FundMe.sol\":3338:3366  funderIndex < funders.length */\n      lt\n        /* \"contracts/FundMe.sol\":3281:3518  for (... */\n      iszero\n      tag_66\n      jumpi\n        /* \"contracts/FundMe.sol\":3421:3435  address funder */\n      0x00\n        /* \"contracts/FundMe.sol\":3438:3445  funders */\n      0x01\n        /* \"contracts/FundMe.sol\":3446:3457  funderIndex */\n      dup3\n        /* \"contracts/FundMe.sol\":3438:3458  funders[funderIndex] */\n      dup2\n      sload\n      dup2\n      lt\n      tag_68\n      jumpi\n      tag_69\n      tag_70\n      jump\t// in\n    tag_69:\n    tag_68:\n      swap1\n      0x00\n      mstore\n      keccak256(0x00, 0x20)\n      add\n      0x00\n      swap1\n      sload\n      swap1\n      0x0100\n      exp\n      swap1\n      div\n      0xffffffffffffffffffffffffffffffffffffffff\n      and\n        /* \"contracts/FundMe.sol\":3421:3458  address funder = funders[funderIndex] */\n      swap1\n      pop\n        /* \"contracts/FundMe.sol\":3505:3506  0 */\n      0x00\n        /* \"contracts/FundMe.sol\":3473:3494  addressToAmountFunded */\n      dup1\n        /* \"contracts/FundMe.sol\":3473:3502  addressToAmountFunded[funder] */\n      0x00\n        /* \"contracts/FundMe.sol\":3495:3501  funder */\n      dup4\n        /* \"contracts/FundMe.sol\":3473:3502  addressToAmountFunded[funder] */\n      0xffffffffffffffffffffffffffffffffffffffff\n      and\n      0xffffffffffffffffffffffffffffffffffffffff\n      and\n      dup2\n      mstore\n      0x20\n      add\n      swap1\n      dup2\n      mstore\n      0x20\n      add\n      0x00\n      keccak256\n        /* \"contracts/FundMe.sol\":3473:3506  addressToAmountFunded[funder] = 0 */\n      dup2\n      swap1\n      sstore\n      pop\n        /* \"contracts/FundMe.sol\":3406:3518  {... */\n      pop\n        /* \"contracts/FundMe.sol\":3381:3394  funderIndex++ */\n      dup1\n      dup1\n      0x01\n      add\n      swap2\n      pop\n      pop\n        /* \"contracts/FundMe.sol\":3281:3518  for (... */\n      jump(tag_65)\n    tag_66:\n      pop\n        /* \"contracts/FundMe.sol\":3602:3603  0 */\n      0x00\n        /* \"contracts/FundMe.sol\":3588:3604  new address[](0) */\n      0xffffffffffffffff\n      dup2\n      gt\n      iszero\n      tag_72\n      jumpi\n      tag_73\n      tag_74\n      jump\t// in\n    tag_73:\n    tag_72:\n      mload(0x40)\n      swap1\n      dup1\n      dup3\n      mstore\n      dup1\n      0x20\n      mul\n      0x20\n      add\n      dup3\n      add\n      0x40\n      mstore\n      dup1\n      iszero\n      tag_75\n      jumpi\n      dup2\n      0x20\n      add\n      0x20\n      dup3\n      mul\n      dup1\n      calldatasize\n      dup4\n      calldatacopy\n      dup1\n      dup3\n      add\n      swap2\n      pop\n      pop\n      swap1\n      pop\n    tag_75:\n      pop\n        /* \"contracts/FundMe.sol\":3578:3585  funders */\n      0x01\n        /* \"contracts/FundMe.sol\":3578:3604  funders = new address[](0) */\n      swap1\n      dup1\n      mload\n      swap1\n      0x20\n      add\n      swap1\n      tag_76\n      swap3\n      swap2\n      swap1\n      tag_77\n      jump\t// in\n    tag_76:\n      pop\n        /* \"contracts/FundMe.sol\":2944:3612  {... */\n      pop\n        /* \"contracts/FundMe.sol\":2899:3612  function withdraw() public payable onlyOwner {... */\n      jump\t// out\n        /* \"contracts/FundMe.sol\":657:713  mapping(address => uint256) public addressToAmountFunded */\n    tag_22:\n      mstore(0x20, 0x00)\n      dup1\n      0x00\n      mstore\n      keccak256(0x00, 0x40)\n      0x00\n      swap2\n      pop\n      swap1\n      pop\n      sload\n      dup2\n      jump\t// out\n        /* \"contracts/FundMe.sol\":2169:2517  function getConversionRate(uint256 ethAmount)... */\n    tag_28:\n        /* \"contracts/FundMe.sol\":2263:2270  uint256 */\n      0x00\n        /* \"contracts/FundMe.sol\":2288:2304  uint256 ethPrice */\n      dup1\n        /* \"contracts/FundMe.sol\":2307:2317  getPrice() */\n      tag_79\n        /* \"contracts/FundMe.sol\":2307:2315  getPrice */\n      tag_37\n        /* \"contracts/FundMe.sol\":2307:2317  getPrice() */\n      jump\t// in\n    tag_79:\n        /* \"contracts/FundMe.sol\":2288:2317  uint256 ethPrice = getPrice() */\n      swap1\n      pop\n        /* \"contracts/FundMe.sol\":2328:2350  uint256 ethAmountInUsd */\n      0x00\n        /* \"contracts/FundMe.sol\":2378:2397  1000000000000000000 */\n      0x0de0b6b3a7640000\n        /* \"contracts/FundMe.sol\":2365:2374  ethAmount */\n      dup5\n        /* \"contracts/FundMe.sol\":2354:2362  ethPrice */\n      dup4\n        /* \"contracts/FundMe.sol\":2354:2374  ethPrice * ethAmount */\n      tag_80\n      swap2\n      swap1\n      tag_81\n      jump\t// in\n    tag_80:\n        /* \"contracts/FundMe.sol\":2353:2397  (ethPrice * ethAmount) / 1000000000000000000 */\n      tag_82\n      swap2\n      swap1\n      tag_83\n      jump\t// in\n    tag_82:\n        /* \"contracts/FundMe.sol\":2328:2397  uint256 ethAmountInUsd = (ethPrice * ethAmount) / 1000000000000000000 */\n      swap1\n      pop\n        /* \"contracts/FundMe.sol\":2495:2509  ethAmountInUsd */\n      dup1\n        /* \"contracts/FundMe.sol\":2488:2509  return ethAmountInUsd */\n      swap3\n      pop\n      pop\n      pop\n        /* \"contracts/FundMe.sol\":2169:2517  function getConversionRate(uint256 ethAmount)... */\n      swap2\n      swap1\n      pop\n      jump\t// out\n        /* \"contracts/FundMe.sol\":848:868  address public owner */\n    tag_32:\n      0x02\n      0x00\n      swap1\n      sload\n      swap1\n      0x0100\n      exp\n      swap1\n      div\n      0xffffffffffffffffffffffffffffffffffffffff\n      and\n      dup2\n      jump\t// out\n        /* \"contracts/FundMe.sol\":1802:2142  function getPrice() public view returns (uint256) {... */\n    tag_37:\n        /* \"contracts/FundMe.sol\":1843:1850  uint256 */\n      0x00\n        /* \"contracts/FundMe.sol\":1863:1894  AggregatorV3Interface priceFeed */\n      dup1\n        /* \"contracts/FundMe.sol\":1933:1975  0xD4a33860578De61DBAbDc8BFdb98FD742fA7028e */\n      0xd4a33860578de61dbabdc8bfdb98fd742fa7028e\n        /* \"contracts/FundMe.sol\":1863:1986  AggregatorV3Interface priceFeed = AggregatorV3Interface(... */\n      swap1\n      pop\n        /* \"contracts/FundMe.sol\":2000:2013  int256 answer */\n      0x00\n        /* \"contracts/FundMe.sol\":2023:2032  priceFeed */\n      dup2\n        /* \"contracts/FundMe.sol\":2023:2048  priceFeed.latestRoundData */\n      0xffffffffffffffffffffffffffffffffffffffff\n      and\n      0xfeaf968c\n        /* \"contracts/FundMe.sol\":2023:2050  priceFeed.latestRoundData() */\n      mload(0x40)\n      dup2\n      0xffffffff\n      and\n      0xe0\n      shl\n      dup2\n      mstore\n      0x04\n      add\n      0xa0\n      mload(0x40)\n      dup1\n      dup4\n      sub\n      dup2\n      dup7\n      gas\n      staticcall\n      iszero\n      dup1\n      iszero\n      tag_86\n      jumpi\n      returndatasize\n      0x00\n      dup1\n      returndatacopy\n      revert(0x00, returndatasize)\n    tag_86:\n      pop\n      pop\n      pop\n      pop\n      mload(0x40)\n      returndatasize\n      not(0x1f)\n      0x1f\n      dup3\n      add\n      and\n      dup3\n      add\n      dup1\n      0x40\n      mstore\n      pop\n      dup2\n      add\n      swap1\n      tag_87\n      swap2\n      swap1\n      tag_88\n      jump\t// in\n    tag_87:\n        /* \"contracts/FundMe.sol\":1997:2050  (, int256 answer, , , ) = priceFeed.latestRoundData() */\n      pop\n      pop\n      pop\n      swap2\n      pop\n      pop\n        /* \"contracts/FundMe.sol\":2122:2133  10000000000 */\n      0x02540be400\n        /* \"contracts/FundMe.sol\":2113:2119  answer */\n      dup2\n        /* \"contracts/FundMe.sol\":2113:2133  answer * 10000000000 */\n      tag_89\n      swap2\n      swap1\n      tag_90\n      jump\t// in\n    tag_89:\n        /* \"contracts/FundMe.sol\":2098:2134  return uint256(answer * 10000000000) */\n      swap3\n      pop\n      pop\n      pop\n        /* \"contracts/FundMe.sol\":1802:2142  function getPrice() public view returns (uint256) {... */\n      swap1\n      jump\t// out\n        /* \"contracts/FundMe.sol\":1012:1493  function fund() public payable {... */\n    tag_40:\n        /* \"contracts/FundMe.sol\":1117:1135  uint256 minimumUSD */\n      0x00\n        /* \"contracts/FundMe.sol\":1138:1149  50 * 10**18 */\n      0x02b5e3af16b1880000\n        /* \"contracts/FundMe.sol\":1117:1149  uint256 minimumUSD = 50 * 10**18 */\n      swap1\n      pop\n        /* \"contracts/FundMe.sol\":1441:1450  msg.value */\n      callvalue\n        /* \"contracts/FundMe.sol\":1404:1425  addressToAmountFunded */\n      0x00\n        /* \"contracts/FundMe.sol\":1404:1437  addressToAmountFunded[msg.sender] */\n      dup1\n        /* \"contracts/FundMe.sol\":1426:1436  msg.sender */\n      caller\n        /* \"contracts/FundMe.sol\":1404:1437  addressToAmountFunded[msg.sender] */\n      0xffffffffffffffffffffffffffffffffffffffff\n      and\n      0xffffffffffffffffffffffffffffffffffffffff\n      and\n      dup2\n      mstore\n      0x20\n      add\n      swap1\n      dup2\n      mstore\n      0x20\n      add\n      0x00\n      keccak256\n      0x00\n        /* \"contracts/FundMe.sol\":1404:1450  addressToAmountFunded[msg.sender] += msg.value */\n      dup3\n      dup3\n      sload\n      tag_92\n      swap2\n      swap1\n      tag_93\n      jump\t// in\n    tag_92:\n      swap3\n      pop\n      pop\n      dup2\n      swap1\n      sstore\n      pop\n        /* \"contracts/FundMe.sol\":1461:1468  funders */\n      0x01\n        /* \"contracts/FundMe.sol\":1474:1484  msg.sender */\n      caller\n        /* \"contracts/FundMe.sol\":1461:1485  funders.push(msg.sender) */\n      swap1\n      dup1\n      0x01\n      dup2\n      sload\n      add\n      dup1\n      dup3\n      sstore\n      dup1\n      swap2\n      pop\n      pop\n      0x01\n      swap1\n      sub\n      swap1\n      0x00\n      mstore\n      keccak256(0x00, 0x20)\n      add\n      0x00\n      swap1\n      swap2\n      swap1\n      swap2\n      swap1\n      swap2\n      0x0100\n      exp\n      dup2\n      sload\n      dup2\n      0xffffffffffffffffffffffffffffffffffffffff\n      mul\n      not\n      and\n      swap1\n      dup4\n      0xffffffffffffffffffffffffffffffffffffffff\n      and\n      mul\n      or\n      swap1\n      sstore\n      pop\n        /* \"contracts/FundMe.sol\":1043:1493  {... */\n      pop\n        /* \"contracts/FundMe.sol\":1012:1493  function fund() public payable {... */\n      jump\t// out\n        /* \"contracts/FundMe.sol\":761:785  address[] public funders */\n    tag_44:\n      0x01\n      dup2\n      dup2\n      sload\n      dup2\n      lt\n      tag_95\n      jumpi\n      0x00\n      dup1\n      revert\n    tag_95:\n      swap1\n      0x00\n      mstore\n      keccak256(0x00, 0x20)\n      add\n      0x00\n      swap2\n      pop\n      sload\n      swap1\n      0x0100\n      exp\n      swap1\n      div\n      0xffffffffffffffffffffffffffffffffffffffff\n      and\n      dup2\n      jump\t// out\n    tag_77:\n      dup3\n      dup1\n      sload\n      dup3\n      dup3\n      sstore\n      swap1\n      0x00\n      mstore\n      keccak256(0x00, 0x20)\n      swap1\n      dup2\n      add\n      swap3\n      dup3\n      iszero\n      tag_97\n      jumpi\n      swap2\n      0x20\n      mul\n      dup3\n      add\n    tag_98:\n      dup3\n      dup2\n      gt\n      iszero\n      tag_99\n      jumpi\n      dup3\n      mload\n      dup3\n      exp(0x0100, 0x00)\n      dup2\n      sload\n      dup2\n      0xffffffffffffffffffffffffffffffffffffffff\n      mul\n      not\n      and\n      swap1\n      dup4\n      0xffffffffffffffffffffffffffffffffffffffff\n      and\n      mul\n      or\n      swap1\n      sstore\n      pop\n      swap2\n      0x20\n      add\n      swap2\n      swap1\n      0x01\n      add\n      swap1\n      jump(tag_98)\n    tag_99:\n    tag_97:\n      pop\n      swap1\n      pop\n      tag_100\n      swap2\n      swap1\n      tag_101\n      jump\t// in\n    tag_100:\n      pop\n      swap1\n      jump\t// out\n    tag_101:\n    tag_102:\n      dup1\n      dup3\n      gt\n      iszero\n      tag_103\n      jumpi\n      0x00\n      dup2\n      0x00\n      swap1\n      sstore\n      pop\n      0x01\n      add\n      jump(tag_102)\n    tag_103:\n      pop\n      swap1\n      jump\t// out\n        /* \"#utility.yul\":7:84   */\n    tag_104:\n        /* \"#utility.yul\":44:51   */\n      0x00\n        /* \"#utility.yul\":73:78   */\n      dup2\n        /* \"#utility.yul\":62:78   */\n      swap1\n      pop\n        /* \"#utility.yul\":7:84   */\n      swap2\n      swap1\n      pop\n      jump\t// out\n        /* \"#utility.yul\":90:208   */\n    tag_105:\n        /* \"#utility.yul\":177:201   */\n      tag_136\n        /* \"#utility.yul\":195:200   */\n      dup2\n        /* \"#utility.yul\":177:201   */\n      tag_104\n      jump\t// in\n    tag_136:\n        /* \"#utility.yul\":172:175   */\n      dup3\n        /* \"#utility.yul\":165:202   */\n      mstore\n        /* \"#utility.yul\":90:208   */\n      pop\n      pop\n      jump\t// out\n        /* \"#utility.yul\":214:436   */\n    tag_15:\n        /* \"#utility.yul\":307:311   */\n      0x00\n        /* \"#utility.yul\":345:347   */\n      0x20\n        /* \"#utility.yul\":334:343   */\n      dup3\n        /* \"#utility.yul\":330:348   */\n      add\n        /* \"#utility.yul\":322:348   */\n      swap1\n      pop\n        /* \"#utility.yul\":358:429   */\n      tag_138\n        /* \"#utility.yul\":426:427   */\n      0x00\n        /* \"#utility.yul\":415:424   */\n      dup4\n        /* \"#utility.yul\":411:428   */\n      add\n        /* \"#utility.yul\":402:408   */\n      dup5\n        /* \"#utility.yul\":358:429   */\n      tag_105\n      jump\t// in\n    tag_138:\n        /* \"#utility.yul\":214:436   */\n      swap3\n      swap2\n      pop\n      pop\n      jump\t// out\n        /* \"#utility.yul\":523:640   */\n    tag_107:\n        /* \"#utility.yul\":632:633   */\n      0x00\n        /* \"#utility.yul\":629:630   */\n      dup1\n        /* \"#utility.yul\":622:634   */\n      revert\n        /* \"#utility.yul\":769:895   */\n    tag_109:\n        /* \"#utility.yul\":806:813   */\n      0x00\n        /* \"#utility.yul\":846:888   */\n      0xffffffffffffffffffffffffffffffffffffffff\n        /* \"#utility.yul\":839:844   */\n      dup3\n        /* \"#utility.yul\":835:889   */\n      and\n        /* \"#utility.yul\":824:889   */\n      swap1\n      pop\n        /* \"#utility.yul\":769:895   */\n      swap2\n      swap1\n      pop\n      jump\t// out\n        /* \"#utility.yul\":901:997   */\n    tag_110:\n        /* \"#utility.yul\":938:945   */\n      0x00\n        /* \"#utility.yul\":967:991   */\n      tag_144\n        /* \"#utility.yul\":985:990   */\n      dup3\n        /* \"#utility.yul\":967:991   */\n      tag_109\n      jump\t// in\n    tag_144:\n        /* \"#utility.yul\":956:991   */\n      swap1\n      pop\n        /* \"#utility.yul\":901:997   */\n      swap2\n      swap1\n      pop\n      jump\t// out\n        /* \"#utility.yul\":1003:1125   */\n    tag_111:\n        /* \"#utility.yul\":1076:1100   */\n      tag_146\n        /* \"#utility.yul\":1094:1099   */\n      dup2\n        /* \"#utility.yul\":1076:1100   */\n      tag_110\n      jump\t// in\n    tag_146:\n        /* \"#utility.yul\":1069:1074   */\n      dup2\n        /* \"#utility.yul\":1066:1101   */\n      eq\n        /* \"#utility.yul\":1056:1119   */\n      tag_147\n      jumpi\n        /* \"#utility.yul\":1115:1116   */\n      0x00\n        /* \"#utility.yul\":1112:1113   */\n      dup1\n        /* \"#utility.yul\":1105:1117   */\n      revert\n        /* \"#utility.yul\":1056:1119   */\n    tag_147:\n        /* \"#utility.yul\":1003:1125   */\n      pop\n      jump\t// out\n        /* \"#utility.yul\":1131:1270   */\n    tag_112:\n        /* \"#utility.yul\":1177:1182   */\n      0x00\n        /* \"#utility.yul\":1215:1221   */\n      dup2\n        /* \"#utility.yul\":1202:1222   */\n      calldataload\n        /* \"#utility.yul\":1193:1222   */\n      swap1\n      pop\n        /* \"#utility.yul\":1231:1264   */\n      tag_149\n        /* \"#utility.yul\":1258:1263   */\n      dup2\n        /* \"#utility.yul\":1231:1264   */\n      tag_111\n      jump\t// in\n    tag_149:\n        /* \"#utility.yul\":1131:1270   */\n      swap3\n      swap2\n      pop\n      pop\n      jump\t// out\n        /* \"#utility.yul\":1276:1605   */\n    tag_21:\n        /* \"#utility.yul\":1335:1341   */\n      0x00\n        /* \"#utility.yul\":1384:1386   */\n      0x20\n        /* \"#utility.yul\":1372:1381   */\n      dup3\n        /* \"#utility.yul\":1363:1370   */\n      dup5\n        /* \"#utility.yul\":1359:1382   */\n      sub\n        /* \"#utility.yul\":1355:1387   */\n      slt\n        /* \"#utility.yul\":1352:1471   */\n      iszero\n      tag_151\n      jumpi\n        /* \"#utility.yul\":1390:1469   */\n      tag_152\n      tag_107\n      jump\t// in\n    tag_152:\n        /* \"#utility.yul\":1352:1471   */\n    tag_151:\n        /* \"#utility.yul\":1510:1511   */\n      0x00\n        /* \"#utility.yul\":1535:1588   */\n      tag_153\n        /* \"#utility.yul\":1580:1587   */\n      dup5\n        /* \"#utility.yul\":1571:1577   */\n      dup3\n        /* \"#utility.yul\":1560:1569   */\n      dup6\n        /* \"#utility.yul\":1556:1578   */\n      add\n        /* \"#utility.yul\":1535:1588   */\n      tag_112\n      jump\t// in\n    tag_153:\n        /* \"#utility.yul\":1525:1588   */\n      swap2\n      pop\n        /* \"#utility.yul\":1481:1598   */\n      pop\n        /* \"#utility.yul\":1276:1605   */\n      swap3\n      swap2\n      pop\n      pop\n      jump\t// out\n        /* \"#utility.yul\":1611:1733   */\n    tag_113:\n        /* \"#utility.yul\":1684:1708   */\n      tag_155\n        /* \"#utility.yul\":1702:1707   */\n      dup2\n        /* \"#utility.yul\":1684:1708   */\n      tag_104\n      jump\t// in\n    tag_155:\n        /* \"#utility.yul\":1677:1682   */\n      dup2\n        /* \"#utility.yul\":1674:1709   */\n      eq\n        /* \"#utility.yul\":1664:1727   */\n      tag_156\n      jumpi\n        /* \"#utility.yul\":1723:1724   */\n      0x00\n        /* \"#utility.yul\":1720:1721   */\n      dup1\n        /* \"#utility.yul\":1713:1725   */\n      revert\n        /* \"#utility.yul\":1664:1727   */\n    tag_156:\n        /* \"#utility.yul\":1611:1733   */\n      pop\n      jump\t// out\n        /* \"#utility.yul\":1739:1878   */\n    tag_114:\n        /* \"#utility.yul\":1785:1790   */\n      0x00\n        /* \"#utility.yul\":1823:1829   */\n      dup2\n        /* \"#utility.yul\":1810:1830   */\n      calldataload\n        /* \"#utility.yul\":1801:1830   */\n      swap1\n      pop\n        /* \"#utility.yul\":1839:1872   */\n      tag_158\n        /* \"#utility.yul\":1866:1871   */\n      dup2\n        /* \"#utility.yul\":1839:1872   */\n      tag_113\n      jump\t// in\n    tag_158:\n        /* \"#utility.yul\":1739:1878   */\n      swap3\n      swap2\n      pop\n      pop\n      jump\t// out\n        /* \"#utility.yul\":1884:2213   */\n    tag_27:\n        /* \"#utility.yul\":1943:1949   */\n      0x00\n        /* \"#utility.yul\":1992:1994   */\n      0x20\n        /* \"#utility.yul\":1980:1989   */\n      dup3\n        /* \"#utility.yul\":1971:1978   */\n      dup5\n        /* \"#utility.yul\":1967:1990   */\n      sub\n        /* \"#utility.yul\":1963:1995   */\n      slt\n        /* \"#utility.yul\":1960:2079   */\n      iszero\n      tag_160\n      jumpi\n        /* \"#utility.yul\":1998:2077   */\n      tag_161\n      tag_107\n      jump\t// in\n    tag_161:\n        /* \"#utility.yul\":1960:2079   */\n    tag_160:\n        /* \"#utility.yul\":2118:2119   */\n      0x00\n        /* \"#utility.yul\":2143:2196   */\n      tag_162\n        /* \"#utility.yul\":2188:2195   */\n      dup5\n        /* \"#utility.yul\":2179:2185   */\n      dup3\n        /* \"#utility.yul\":2168:2177   */\n      dup6\n        /* \"#utility.yul\":2164:2186   */\n      add\n        /* \"#utility.yul\":2143:2196   */\n      tag_114\n      jump\t// in\n    tag_162:\n        /* \"#utility.yul\":2133:2196   */\n      swap2\n      pop\n        /* \"#utility.yul\":2089:2206   */\n      pop\n        /* \"#utility.yul\":1884:2213   */\n      swap3\n      swap2\n      pop\n      pop\n      jump\t// out\n        /* \"#utility.yul\":2219:2337   */\n    tag_115:\n        /* \"#utility.yul\":2306:2330   */\n      tag_164\n        /* \"#utility.yul\":2324:2329   */\n      dup2\n        /* \"#utility.yul\":2306:2330   */\n      tag_110\n      jump\t// in\n    tag_164:\n        /* \"#utility.yul\":2301:2304   */\n      dup3\n        /* \"#utility.yul\":2294:2331   */\n      mstore\n        /* \"#utility.yul\":2219:2337   */\n      pop\n      pop\n      jump\t// out\n        /* \"#utility.yul\":2343:2565   */\n    tag_34:\n        /* \"#utility.yul\":2436:2440   */\n      0x00\n        /* \"#utility.yul\":2474:2476   */\n      0x20\n        /* \"#utility.yul\":2463:2472   */\n      dup3\n        /* \"#utility.yul\":2459:2477   */\n      add\n        /* \"#utility.yul\":2451:2477   */\n      swap1\n      pop\n        /* \"#utility.yul\":2487:2558   */\n      tag_166\n        /* \"#utility.yul\":2555:2556   */\n      0x00\n        /* \"#utility.yul\":2544:2553   */\n      dup4\n        /* \"#utility.yul\":2540:2557   */\n      add\n        /* \"#utility.yul\":2531:2537   */\n      dup5\n        /* \"#utility.yul\":2487:2558   */\n      tag_115\n      jump\t// in\n    tag_166:\n        /* \"#utility.yul\":2343:2565   */\n      swap3\n      swap2\n      pop\n      pop\n      jump\t// out\n        /* \"#utility.yul\":2571:2714   */\n    tag_116:\n        /* \"#utility.yul\":2628:2633   */\n      0x00\n        /* \"#utility.yul\":2659:2665   */\n      dup2\n        /* \"#utility.yul\":2653:2666   */\n      mload\n        /* \"#utility.yul\":2644:2666   */\n      swap1\n      pop\n        /* \"#utility.yul\":2675:2708   */\n      tag_168\n        /* \"#utility.yul\":2702:2707   */\n      dup2\n        /* \"#utility.yul\":2675:2708   */\n      tag_113\n      jump\t// in\n    tag_168:\n        /* \"#utility.yul\":2571:2714   */\n      swap3\n      swap2\n      pop\n      pop\n      jump\t// out\n        /* \"#utility.yul\":2720:3071   */\n    tag_50:\n        /* \"#utility.yul\":2790:2796   */\n      0x00\n        /* \"#utility.yul\":2839:2841   */\n      0x20\n        /* \"#utility.yul\":2827:2836   */\n      dup3\n        /* \"#utility.yul\":2818:2825   */\n      dup5\n        /* \"#utility.yul\":2814:2837   */\n      sub\n        /* \"#utility.yul\":2810:2842   */\n      slt\n        /* \"#utility.yul\":2807:2926   */\n      iszero\n      tag_170\n      jumpi\n        /* \"#utility.yul\":2845:2924   */\n      tag_171\n      tag_107\n      jump\t// in\n    tag_171:\n        /* \"#utility.yul\":2807:2926   */\n    tag_170:\n        /* \"#utility.yul\":2965:2966   */\n      0x00\n        /* \"#utility.yul\":2990:3054   */\n      tag_172\n        /* \"#utility.yul\":3046:3053   */\n      dup5\n        /* \"#utility.yul\":3037:3043   */\n      dup3\n        /* \"#utility.yul\":3026:3035   */\n      dup6\n        /* \"#utility.yul\":3022:3044   */\n      add\n        /* \"#utility.yul\":2990:3054   */\n      tag_116\n      jump\t// in\n    tag_172:\n        /* \"#utility.yul\":2980:3054   */\n      swap2\n      pop\n        /* \"#utility.yul\":2936:3064   */\n      pop\n        /* \"#utility.yul\":2720:3071   */\n      swap3\n      swap2\n      pop\n      pop\n      jump\t// out\n        /* \"#utility.yul\":3077:3246   */\n    tag_117:\n        /* \"#utility.yul\":3161:3172   */\n      0x00\n        /* \"#utility.yul\":3195:3201   */\n      dup3\n        /* \"#utility.yul\":3190:3193   */\n      dup3\n        /* \"#utility.yul\":3183:3202   */\n      mstore\n        /* \"#utility.yul\":3235:3239   */\n      0x20\n        /* \"#utility.yul\":3230:3233   */\n      dup3\n        /* \"#utility.yul\":3226:3240   */\n      add\n        /* \"#utility.yul\":3211:3240   */\n      swap1\n      pop\n        /* \"#utility.yul\":3077:3246   */\n      swap3\n      swap2\n      pop\n      pop\n      jump\t// out\n        /* \"#utility.yul\":3252:3426   */\n    tag_118:\n        /* \"#utility.yul\":3392:3418   */\n      0x4f6e6c79206f776e65722063616e207769746864726177210000000000000000\n        /* \"#utility.yul\":3388:3389   */\n      0x00\n        /* \"#utility.yul\":3380:3386   */\n      dup3\n        /* \"#utility.yul\":3376:3390   */\n      add\n        /* \"#utility.yul\":3369:3419   */\n      mstore\n        /* \"#utility.yul\":3252:3426   */\n      pop\n      jump\t// out\n        /* \"#utility.yul\":3432:3798   */\n    tag_119:\n        /* \"#utility.yul\":3574:3577   */\n      0x00\n        /* \"#utility.yul\":3595:3662   */\n      tag_176\n        /* \"#utility.yul\":3659:3661   */\n      0x18\n        /* \"#utility.yul\":3654:3657   */\n      dup4\n        /* \"#utility.yul\":3595:3662   */\n      tag_117\n      jump\t// in\n    tag_176:\n        /* \"#utility.yul\":3588:3662   */\n      swap2\n      pop\n        /* \"#utility.yul\":3671:3764   */\n      tag_177\n        /* \"#utility.yul\":3760:3763   */\n      dup3\n        /* \"#utility.yul\":3671:3764   */\n      tag_118\n      jump\t// in\n    tag_177:\n        /* \"#utility.yul\":3789:3791   */\n      0x20\n        /* \"#utility.yul\":3784:3787   */\n      dup3\n        /* \"#utility.yul\":3780:3792   */\n      add\n        /* \"#utility.yul\":3773:3792   */\n      swap1\n      pop\n        /* \"#utility.yul\":3432:3798   */\n      swap2\n      swap1\n      pop\n      jump\t// out\n        /* \"#utility.yul\":3804:4223   */\n    tag_56:\n        /* \"#utility.yul\":3970:3974   */\n      0x00\n        /* \"#utility.yul\":4008:4010   */\n      0x20\n        /* \"#utility.yul\":3997:4006   */\n      dup3\n        /* \"#utility.yul\":3993:4011   */\n      add\n        /* \"#utility.yul\":3985:4011   */\n      swap1\n      pop\n        /* \"#utility.yul\":4057:4066   */\n      dup2\n        /* \"#utility.yul\":4051:4055   */\n      dup2\n        /* \"#utility.yul\":4047:4067   */\n      sub\n        /* \"#utility.yul\":4043:4044   */\n      0x00\n        /* \"#utility.yul\":4032:4041   */\n      dup4\n        /* \"#utility.yul\":4028:4045   */\n      add\n        /* \"#utility.yul\":4021:4068   */\n      mstore\n        /* \"#utility.yul\":4085:4216   */\n      tag_179\n        /* \"#utility.yul\":4211:4215   */\n      dup2\n        /* \"#utility.yul\":4085:4216   */\n      tag_119\n      jump\t// in\n    tag_179:\n        /* \"#utility.yul\":4077:4216   */\n      swap1\n      pop\n        /* \"#utility.yul\":3804:4223   */\n      swap2\n      swap1\n      pop\n      jump\t// out\n        /* \"#utility.yul\":4229:4376   */\n    tag_120:\n        /* \"#utility.yul\":4330:4341   */\n      0x00\n        /* \"#utility.yul\":4367:4370   */\n      dup2\n        /* \"#utility.yul\":4352:4370   */\n      swap1\n      pop\n        /* \"#utility.yul\":4229:4376   */\n      swap3\n      swap2\n      pop\n      pop\n      jump\t// out\n        /* \"#utility.yul\":4382:4496   */\n    tag_121:\n      pop\n      jump\t// out\n        /* \"#utility.yul\":4502:4900   */\n    tag_122:\n        /* \"#utility.yul\":4661:4664   */\n      0x00\n        /* \"#utility.yul\":4682:4765   */\n      tag_183\n        /* \"#utility.yul\":4763:4764   */\n      0x00\n        /* \"#utility.yul\":4758:4761   */\n      dup4\n        /* \"#utility.yul\":4682:4765   */\n      tag_120\n      jump\t// in\n    tag_183:\n        /* \"#utility.yul\":4675:4765   */\n      swap2\n      pop\n        /* \"#utility.yul\":4774:4867   */\n      tag_184\n        /* \"#utility.yul\":4863:4866   */\n      dup3\n        /* \"#utility.yul\":4774:4867   */\n      tag_121\n      jump\t// in\n    tag_184:\n        /* \"#utility.yul\":4892:4893   */\n      0x00\n        /* \"#utility.yul\":4887:4890   */\n      dup3\n        /* \"#utility.yul\":4883:4894   */\n      add\n        /* \"#utility.yul\":4876:4894   */\n      swap1\n      pop\n        /* \"#utility.yul\":4502:4900   */\n      swap2\n      swap1\n      pop\n      jump\t// out\n        /* \"#utility.yul\":4906:5285   */\n    tag_58:\n        /* \"#utility.yul\":5090:5093   */\n      0x00\n        /* \"#utility.yul\":5112:5259   */\n      tag_186\n        /* \"#utility.yul\":5255:5258   */\n      dup3\n        /* \"#utility.yul\":5112:5259   */\n      tag_122\n      jump\t// in\n    tag_186:\n        /* \"#utility.yul\":5105:5259   */\n      swap2\n      pop\n        /* \"#utility.yul\":5276:5279   */\n      dup2\n        /* \"#utility.yul\":5269:5279   */\n      swap1\n      pop\n        /* \"#utility.yul\":4906:5285   */\n      swap2\n      swap1\n      pop\n      jump\t// out\n        /* \"#utility.yul\":5291:5458   */\n    tag_123:\n        /* \"#utility.yul\":5431:5450   */\n      0x5769746864726177616c206661696c6564000000000000000000000000000000\n        /* \"#utility.yul\":5427:5428   */\n      0x00\n        /* \"#utility.yul\":5419:5425   */\n      dup3\n        /* \"#utility.yul\":5415:5429   */\n      add\n        /* \"#utility.yul\":5408:5451   */\n      mstore\n        /* \"#utility.yul\":5291:5458   */\n      pop\n      jump\t// out\n        /* \"#utility.yul\":5464:5830   */\n    tag_124:\n        /* \"#utility.yul\":5606:5609   */\n      0x00\n        /* \"#utility.yul\":5627:5694   */\n      tag_189\n        /* \"#utility.yul\":5691:5693   */\n      0x11\n        /* \"#utility.yul\":5686:5689   */\n      dup4\n        /* \"#utility.yul\":5627:5694   */\n      tag_117\n      jump\t// in\n    tag_189:\n        /* \"#utility.yul\":5620:5694   */\n      swap2\n      pop\n        /* \"#utility.yul\":5703:5796   */\n      tag_190\n        /* \"#utility.yul\":5792:5795   */\n      dup3\n        /* \"#utility.yul\":5703:5796   */\n      tag_123\n      jump\t// in\n    tag_190:\n        /* \"#utility.yul\":5821:5823   */\n      0x20\n        /* \"#utility.yul\":5816:5819   */\n      dup3\n        /* \"#utility.yul\":5812:5824   */\n      add\n        /* \"#utility.yul\":5805:5824   */\n      swap1\n      pop\n        /* \"#utility.yul\":5464:5830   */\n      swap2\n      swap1\n      pop\n      jump\t// out\n        /* \"#utility.yul\":5836:6255   */\n    tag_64:\n        /* \"#utility.yul\":6002:6006   */\n      0x00\n        /* \"#utility.yul\":6040:6042   */\n      0x20\n        /* \"#utility.yul\":6029:6038   */\n      dup3\n        /* \"#utility.yul\":6025:6043   */\n      add\n        /* \"#utility.yul\":6017:6043   */\n      swap1\n      pop\n        /* \"#utility.yul\":6089:6098   */\n      dup2\n        /* \"#utility.yul\":6083:6087   */\n      dup2\n        /* \"#utility.yul\":6079:6099   */\n      sub\n        /* \"#utility.yul\":6075:6076   */\n      0x00\n        /* \"#utility.yul\":6064:6073   */\n      dup4\n        /* \"#utility.yul\":6060:6077   */\n      add\n        /* \"#utility.yul\":6053:6100   */\n      mstore\n        /* \"#utility.yul\":6117:6248   */\n      tag_192\n        /* \"#utility.yul\":6243:6247   */\n      dup2\n        /* \"#utility.yul\":6117:6248   */\n      tag_124\n      jump\t// in\n    tag_192:\n        /* \"#utility.yul\":6109:6248   */\n      swap1\n      pop\n        /* \"#utility.yul\":5836:6255   */\n      swap2\n      swap1\n      pop\n      jump\t// out\n        /* \"#utility.yul\":6261:6441   */\n    tag_70:\n        /* \"#utility.yul\":6309:6386   */\n      0x4e487b7100000000000000000000000000000000000000000000000000000000\n        /* \"#utility.yul\":6306:6307   */\n      0x00\n        /* \"#utility.yul\":6299:6387   */\n      mstore\n        /* \"#utility.yul\":6406:6410   */\n      0x32\n        /* \"#utility.yul\":6403:6404   */\n      0x04\n        /* \"#utility.yul\":6396:6411   */\n      mstore\n        /* \"#utility.yul\":6430:6434   */\n      0x24\n        /* \"#utility.yul\":6427:6428   */\n      0x00\n        /* \"#utility.yul\":6420:6435   */\n      revert\n        /* \"#utility.yul\":6447:6627   */\n    tag_74:\n        /* \"#utility.yul\":6495:6572   */\n      0x4e487b7100000000000000000000000000000000000000000000000000000000\n        /* \"#utility.yul\":6492:6493   */\n      0x00\n        /* \"#utility.yul\":6485:6573   */\n      mstore\n        /* \"#utility.yul\":6592:6596   */\n      0x41\n        /* \"#utility.yul\":6589:6590   */\n      0x04\n        /* \"#utility.yul\":6582:6597   */\n      mstore\n        /* \"#utility.yul\":6616:6620   */\n      0x24\n        /* \"#utility.yul\":6613:6614   */\n      0x00\n        /* \"#utility.yul\":6606:6621   */\n      revert\n        /* \"#utility.yul\":6633:6813   */\n    tag_125:\n        /* \"#utility.yul\":6681:6758   */\n      0x4e487b7100000000000000000000000000000000000000000000000000000000\n        /* \"#utility.yul\":6678:6679   */\n      0x00\n        /* \"#utility.yul\":6671:6759   */\n      mstore\n        /* \"#utility.yul\":6778:6782   */\n      0x11\n        /* \"#utility.yul\":6775:6776   */\n      0x04\n        /* \"#utility.yul\":6768:6783   */\n      mstore\n        /* \"#utility.yul\":6802:6806   */\n      0x24\n        /* \"#utility.yul\":6799:6800   */\n      0x00\n        /* \"#utility.yul\":6792:6807   */\n      revert\n        /* \"#utility.yul\":6819:7229   */\n    tag_81:\n        /* \"#utility.yul\":6859:6866   */\n      0x00\n        /* \"#utility.yul\":6882:6902   */\n      tag_197\n        /* \"#utility.yul\":6900:6901   */\n      dup3\n        /* \"#utility.yul\":6882:6902   */\n      tag_104\n      jump\t// in\n    tag_197:\n        /* \"#utility.yul\":6877:6902   */\n      swap2\n      pop\n        /* \"#utility.yul\":6916:6936   */\n      tag_198\n        /* \"#utility.yul\":6934:6935   */\n      dup4\n        /* \"#utility.yul\":6916:6936   */\n      tag_104\n      jump\t// in\n    tag_198:\n        /* \"#utility.yul\":6911:6936   */\n      swap3\n      pop\n        /* \"#utility.yul\":6971:6972   */\n      dup3\n        /* \"#utility.yul\":6968:6969   */\n      dup3\n        /* \"#utility.yul\":6964:6973   */\n      mul\n        /* \"#utility.yul\":6993:7023   */\n      tag_199\n        /* \"#utility.yul\":7011:7022   */\n      dup2\n        /* \"#utility.yul\":6993:7023   */\n      tag_104\n      jump\t// in\n    tag_199:\n        /* \"#utility.yul\":6982:7023   */\n      swap2\n      pop\n        /* \"#utility.yul\":7172:7173   */\n      dup3\n        /* \"#utility.yul\":7163:7170   */\n      dup3\n        /* \"#utility.yul\":7159:7174   */\n      div\n        /* \"#utility.yul\":7156:7157   */\n      dup5\n        /* \"#utility.yul\":7153:7175   */\n      eq\n        /* \"#utility.yul\":7133:7134   */\n      dup4\n        /* \"#utility.yul\":7126:7135   */\n      iszero\n        /* \"#utility.yul\":7106:7189   */\n      or\n        /* \"#utility.yul\":7083:7222   */\n      tag_200\n      jumpi\n        /* \"#utility.yul\":7202:7220   */\n      tag_201\n      tag_125\n      jump\t// in\n    tag_201:\n        /* \"#utility.yul\":7083:7222   */\n    tag_200:\n        /* \"#utility.yul\":6867:7229   */\n      pop\n        /* \"#utility.yul\":6819:7229   */\n      swap3\n      swap2\n      pop\n      pop\n      jump\t// out\n        /* \"#utility.yul\":7235:7415   */\n    tag_126:\n        /* \"#utility.yul\":7283:7360   */\n      0x4e487b7100000000000000000000000000000000000000000000000000000000\n        /* \"#utility.yul\":7280:7281   */\n      0x00\n        /* \"#utility.yul\":7273:7361   */\n      mstore\n        /* \"#utility.yul\":7380:7384   */\n      0x12\n        /* \"#utility.yul\":7377:7378   */\n      0x04\n        /* \"#utility.yul\":7370:7385   */\n      mstore\n        /* \"#utility.yul\":7404:7408   */\n      0x24\n        /* \"#utility.yul\":7401:7402   */\n      0x00\n        /* \"#utility.yul\":7394:7409   */\n      revert\n        /* \"#utility.yul\":7421:7606   */\n    tag_83:\n        /* \"#utility.yul\":7461:7462   */\n      0x00\n        /* \"#utility.yul\":7478:7498   */\n      tag_204\n        /* \"#utility.yul\":7496:7497   */\n      dup3\n        /* \"#utility.yul\":7478:7498   */\n      tag_104\n      jump\t// in\n    tag_204:\n        /* \"#utility.yul\":7473:7498   */\n      swap2\n      pop\n        /* \"#utility.yul\":7512:7532   */\n      tag_205\n        /* \"#utility.yul\":7530:7531   */\n      dup4\n        /* \"#utility.yul\":7512:7532   */\n      tag_104\n      jump\t// in\n    tag_205:\n        /* \"#utility.yul\":7507:7532   */\n      swap3\n      pop\n        /* \"#utility.yul\":7551:7552   */\n      dup3\n        /* \"#utility.yul\":7541:7576   */\n      tag_206\n      jumpi\n        /* \"#utility.yul\":7556:7574   */\n      tag_207\n      tag_126\n      jump\t// in\n    tag_207:\n        /* \"#utility.yul\":7541:7576   */\n    tag_206:\n        /* \"#utility.yul\":7598:7599   */\n      dup3\n        /* \"#utility.yul\":7595:7596   */\n      dup3\n        /* \"#utility.yul\":7591:7600   */\n      div\n        /* \"#utility.yul\":7586:7600   */\n      swap1\n      pop\n        /* \"#utility.yul\":7421:7606   */\n      swap3\n      swap2\n      pop\n      pop\n      jump\t// out\n        /* \"#utility.yul\":7612:7717   */\n    tag_127:\n        /* \"#utility.yul\":7648:7655   */\n      0x00\n        /* \"#utility.yul\":7688:7710   */\n      0xffffffffffffffffffff\n        /* \"#utility.yul\":7681:7686   */\n      dup3\n        /* \"#utility.yul\":7677:7711   */\n      and\n        /* \"#utility.yul\":7666:7711   */\n      swap1\n      pop\n        /* \"#utility.yul\":7612:7717   */\n      swap2\n      swap1\n      pop\n      jump\t// out\n        /* \"#utility.yul\":7723:7843   */\n    tag_128:\n        /* \"#utility.yul\":7795:7818   */\n      tag_210\n        /* \"#utility.yul\":7812:7817   */\n      dup2\n        /* \"#utility.yul\":7795:7818   */\n      tag_127\n      jump\t// in\n    tag_210:\n        /* \"#utility.yul\":7788:7793   */\n      dup2\n        /* \"#utility.yul\":7785:7819   */\n      eq\n        /* \"#utility.yul\":7775:7837   */\n      tag_211\n      jumpi\n        /* \"#utility.yul\":7833:7834   */\n      0x00\n        /* \"#utility.yul\":7830:7831   */\n      dup1\n        /* \"#utility.yul\":7823:7835   */\n      revert\n        /* \"#utility.yul\":7775:7837   */\n    tag_211:\n        /* \"#utility.yul\":7723:7843   */\n      pop\n      jump\t// out\n        /* \"#utility.yul\":7849:7990   */\n    tag_129:\n        /* \"#utility.yul\":7905:7910   */\n      0x00\n        /* \"#utility.yul\":7936:7942   */\n      dup2\n        /* \"#utility.yul\":7930:7943   */\n      mload\n        /* \"#utility.yul\":7921:7943   */\n      swap1\n      pop\n        /* \"#utility.yul\":7952:7984   */\n      tag_213\n        /* \"#utility.yul\":7978:7983   */\n      dup2\n        /* \"#utility.yul\":7952:7984   */\n      tag_128\n      jump\t// in\n    tag_213:\n        /* \"#utility.yul\":7849:7990   */\n      swap3\n      swap2\n      pop\n      pop\n      jump\t// out\n        /* \"#utility.yul\":7996:8072   */\n    tag_130:\n        /* \"#utility.yul\":8032:8039   */\n      0x00\n        /* \"#utility.yul\":8061:8066   */\n      dup2\n        /* \"#utility.yul\":8050:8066   */\n      swap1\n      pop\n        /* \"#utility.yul\":7996:8072   */\n      swap2\n      swap1\n      pop\n      jump\t// out\n        /* \"#utility.yul\":8078:8198   */\n    tag_131:\n        /* \"#utility.yul\":8150:8173   */\n      tag_216\n        /* \"#utility.yul\":8167:8172   */\n      dup2\n        /* \"#utility.yul\":8150:8173   */\n      tag_130\n      jump\t// in\n    tag_216:\n        /* \"#utility.yul\":8143:8148   */\n      dup2\n        /* \"#utility.yul\":8140:8174   */\n      eq\n        /* \"#utility.yul\":8130:8192   */\n      tag_217\n      jumpi\n        /* \"#utility.yul\":8188:8189   */\n      0x00\n        /* \"#utility.yul\":8185:8186   */\n      dup1\n        /* \"#utility.yul\":8178:8190   */\n      revert\n        /* \"#utility.yul\":8130:8192   */\n    tag_217:\n        /* \"#utility.yul\":8078:8198   */\n      pop\n      jump\t// out\n        /* \"#utility.yul\":8204:8345   */\n    tag_132:\n        /* \"#utility.yul\":8260:8265   */\n      0x00\n        /* \"#utility.yul\":8291:8297   */\n      dup2\n        /* \"#utility.yul\":8285:8298   */\n      mload\n        /* \"#utility.yul\":8276:8298   */\n      swap1\n      pop\n        /* \"#utility.yul\":8307:8339   */\n      tag_219\n        /* \"#utility.yul\":8333:8338   */\n      dup2\n        /* \"#utility.yul\":8307:8339   */\n      tag_131\n      jump\t// in\n    tag_219:\n        /* \"#utility.yul\":8204:8345   */\n      swap3\n      swap2\n      pop\n      pop\n      jump\t// out\n        /* \"#utility.yul\":8351:9322   */\n    tag_88:\n        /* \"#utility.yul\":8454:8460   */\n      0x00\n        /* \"#utility.yul\":8462:8468   */\n      dup1\n        /* \"#utility.yul\":8470:8476   */\n      0x00\n        /* \"#utility.yul\":8478:8484   */\n      dup1\n        /* \"#utility.yul\":8486:8492   */\n      0x00\n        /* \"#utility.yul\":8535:8538   */\n      0xa0\n        /* \"#utility.yul\":8523:8532   */\n      dup7\n        /* \"#utility.yul\":8514:8521   */\n      dup9\n        /* \"#utility.yul\":8510:8533   */\n      sub\n        /* \"#utility.yul\":8506:8539   */\n      slt\n        /* \"#utility.yul\":8503:8623   */\n      iszero\n      tag_221\n      jumpi\n        /* \"#utility.yul\":8542:8621   */\n      tag_222\n      tag_107\n      jump\t// in\n    tag_222:\n        /* \"#utility.yul\":8503:8623   */\n    tag_221:\n        /* \"#utility.yul\":8662:8663   */\n      0x00\n        /* \"#utility.yul\":8687:8750   */\n      tag_223\n        /* \"#utility.yul\":8742:8749   */\n      dup9\n        /* \"#utility.yul\":8733:8739   */\n      dup3\n        /* \"#utility.yul\":8722:8731   */\n      dup10\n        /* \"#utility.yul\":8718:8740   */\n      add\n        /* \"#utility.yul\":8687:8750   */\n      tag_129\n      jump\t// in\n    tag_223:\n        /* \"#utility.yul\":8677:8750   */\n      swap6\n      pop\n        /* \"#utility.yul\":8633:8760   */\n      pop\n        /* \"#utility.yul\":8799:8801   */\n      0x20\n        /* \"#utility.yul\":8825:8888   */\n      tag_224\n        /* \"#utility.yul\":8880:8887   */\n      dup9\n        /* \"#utility.yul\":8871:8877   */\n      dup3\n        /* \"#utility.yul\":8860:8869   */\n      dup10\n        /* \"#utility.yul\":8856:8878   */\n      add\n        /* \"#utility.yul\":8825:8888   */\n      tag_132\n      jump\t// in\n    tag_224:\n        /* \"#utility.yul\":8815:8888   */\n      swap5\n      pop\n        /* \"#utility.yul\":8770:8898   */\n      pop\n        /* \"#utility.yul\":8937:8939   */\n      0x40\n        /* \"#utility.yul\":8963:9027   */\n      tag_225\n        /* \"#utility.yul\":9019:9026   */\n      dup9\n        /* \"#utility.yul\":9010:9016   */\n      dup3\n        /* \"#utility.yul\":8999:9008   */\n      dup10\n        /* \"#utility.yul\":8995:9017   */\n      add\n        /* \"#utility.yul\":8963:9027   */\n      tag_116\n      jump\t// in\n    tag_225:\n        /* \"#utility.yul\":8953:9027   */\n      swap4\n      pop\n        /* \"#utility.yul\":8908:9037   */\n      pop\n        /* \"#utility.yul\":9076:9078   */\n      0x60\n        /* \"#utility.yul\":9102:9166   */\n      tag_226\n        /* \"#utility.yul\":9158:9165   */\n      dup9\n        /* \"#utility.yul\":9149:9155   */\n      dup3\n        /* \"#utility.yul\":9138:9147   */\n      dup10\n        /* \"#utility.yul\":9134:9156   */\n      add\n        /* \"#utility.yul\":9102:9166   */\n      tag_116\n      jump\t// in\n    tag_226:\n        /* \"#utility.yul\":9092:9166   */\n      swap3\n      pop\n        /* \"#utility.yul\":9047:9176   */\n      pop\n        /* \"#utility.yul\":9215:9218   */\n      0x80\n        /* \"#utility.yul\":9242:9305   */\n      tag_227\n        /* \"#utility.yul\":9297:9304   */\n      dup9\n        /* \"#utility.yul\":9288:9294   */\n      dup3\n        /* \"#utility.yul\":9277:9286   */\n      dup10\n        /* \"#utility.yul\":9273:9295   */\n      add\n        /* \"#utility.yul\":9242:9305   */\n      tag_129\n      jump\t// in\n    tag_227:\n        /* \"#utility.yul\":9232:9305   */\n      swap2\n      pop\n        /* \"#utility.yul\":9186:9315   */\n      pop\n        /* \"#utility.yul\":8351:9322   */\n      swap3\n      swap6\n      pop\n      swap3\n      swap6\n      swap1\n      swap4\n      pop\n      jump\t// out\n        /* \"#utility.yul\":9328:9884   */\n    tag_90:\n        /* \"#utility.yul\":9367:9374   */\n      0x00\n        /* \"#utility.yul\":9390:9409   */\n      tag_229\n        /* \"#utility.yul\":9407:9408   */\n      dup3\n        /* \"#utility.yul\":9390:9409   */\n      tag_130\n      jump\t// in\n    tag_229:\n        /* \"#utility.yul\":9385:9409   */\n      swap2\n      pop\n        /* \"#utility.yul\":9423:9442   */\n      tag_230\n        /* \"#utility.yul\":9440:9441   */\n      dup4\n        /* \"#utility.yul\":9423:9442   */\n      tag_130\n      jump\t// in\n    tag_230:\n        /* \"#utility.yul\":9418:9442   */\n      swap3\n      pop\n        /* \"#utility.yul\":9477:9478   */\n      dup3\n        /* \"#utility.yul\":9474:9475   */\n      dup3\n        /* \"#utility.yul\":9470:9479   */\n      mul\n        /* \"#utility.yul\":9499:9528   */\n      tag_231\n        /* \"#utility.yul\":9516:9527   */\n      dup2\n        /* \"#utility.yul\":9499:9528   */\n      tag_130\n      jump\t// in\n    tag_231:\n        /* \"#utility.yul\":9488:9528   */\n      swap2\n      pop\n        /* \"#utility.yul\":9586:9652   */\n      0x8000000000000000000000000000000000000000000000000000000000000000\n        /* \"#utility.yul\":9583:9584   */\n      dup5\n        /* \"#utility.yul\":9580:9653   */\n      eq\n        /* \"#utility.yul\":9576:9577   */\n      0x00\n        /* \"#utility.yul\":9573:9574   */\n      dup5\n        /* \"#utility.yul\":9569:9578   */\n      slt\n        /* \"#utility.yul\":9565:9654   */\n      and\n        /* \"#utility.yul\":9562:9677   */\n      iszero\n      tag_232\n      jumpi\n        /* \"#utility.yul\":9657:9675   */\n      tag_233\n      tag_125\n      jump\t// in\n    tag_233:\n        /* \"#utility.yul\":9562:9677   */\n    tag_232:\n        /* \"#utility.yul\":9827:9828   */\n      dup3\n        /* \"#utility.yul\":9818:9825   */\n      dup3\n        /* \"#utility.yul\":9813:9829   */\n      sdiv\n        /* \"#utility.yul\":9810:9811   */\n      dup5\n        /* \"#utility.yul\":9807:9830   */\n      eq\n        /* \"#utility.yul\":9787:9788   */\n      dup4\n        /* \"#utility.yul\":9780:9789   */\n      iszero\n        /* \"#utility.yul\":9760:9844   */\n      or\n        /* \"#utility.yul\":9737:9877   */\n      tag_234\n      jumpi\n        /* \"#utility.yul\":9857:9875   */\n      tag_235\n      tag_125\n      jump\t// in\n    tag_235:\n        /* \"#utility.yul\":9737:9877   */\n    tag_234:\n        /* \"#utility.yul\":9375:9884   */\n      pop\n        /* \"#utility.yul\":9328:9884   */\n      swap3\n      swap2\n      pop\n      pop\n      jump\t// out\n        /* \"#utility.yul\":9890:10081   */\n    tag_93:\n        /* \"#utility.yul\":9930:9933   */\n      0x00\n        /* \"#utility.yul\":9949:9969   */\n      tag_237\n        /* \"#utility.yul\":9967:9968   */\n      dup3\n        /* \"#utility.yul\":9949:9969   */\n      tag_104\n      jump\t// in\n    tag_237:\n        /* \"#utility.yul\":9944:9969   */\n      swap2\n      pop\n        /* \"#utility.yul\":9983:10003   */\n      tag_238\n        /* \"#utility.yul\":10001:10002   */\n      dup4\n        /* \"#utility.yul\":9983:10003   */\n      tag_104\n      jump\t// in\n    tag_238:\n        /* \"#utility.yul\":9978:10003   */\n      swap3\n      pop\n        /* \"#utility.yul\":10026:10027   */\n      dup3\n        /* \"#utility.yul\":10023:10024   */\n      dup3\n        /* \"#utility.yul\":10019:10028   */\n      add\n        /* \"#utility.yul\":10012:10028   */\n      swap1\n      pop\n        /* \"#utility.yul\":10047:10050   */\n      dup1\n        /* \"#utility.yul\":10044:10045   */\n      dup3\n        /* \"#utility.yul\":10041:10051   */\n      gt\n        /* \"#utility.yul\":10038:10074   */\n      iszero\n      tag_239\n      jumpi\n        /* \"#utility.yul\":10054:10072   */\n      tag_240\n      tag_125\n      jump\t// in\n    tag_240:\n        /* \"#utility.yul\":10038:10074   */\n    tag_239:\n        /* \"#utility.yul\":9890:10081   */\n      swap3\n      swap2\n      pop\n      pop\n      jump\t// out\n\n    auxdata: 0xa2646970667358221220e10d4cca9f4f05bb98160e65710720efb9c418c13a73597a01cfb04883d12f3364736f6c634300081a0033\n}\n",
				"bytecode": {
					"linkReferences": {},
					"object": "6080604052348015600e575f80fd5b503360025f6101000a81548173ffffffffffffffffffffffffffffffffffffffff021916908373ffffffffffffffffffffffffffffffffffffffff160217905550610d188061005c5f395ff3fe60806040526004361061007a575f3560e01c80638da5cb5b1161004d5780638da5cb5b1461012a57806398d5fdca14610154578063b60d42881461017e578063dc0d3dff146101885761007a565b80630d8e6e2c1461007e5780633ccfd60b146100a85780633e47d6f3146100b25780636e5b6b28146100ee575b5f80fd5b348015610089575f80fd5b506100926101c4565b60405161009f91906107ac565b60405180910390f35b6100b0610250565b005b3480156100bd575f80fd5b506100d860048036038101906100d39190610823565b6104df565b6040516100e591906107ac565b60405180910390f35b3480156100f9575f80fd5b50610114600480360381019061010f9190610878565b6104f3565b60405161012191906107ac565b60405180910390f35b348015610135575f80fd5b5061013e61052b565b60405161014b91906108b2565b60405180910390f35b34801561015f575f80fd5b50610168610550565b60405161017591906107ac565b60405180910390f35b6101866105f5565b005b348015610193575f80fd5b506101ae60048036038101906101a99190610878565b6106b7565b6040516101bb91906108b2565b60405180910390f35b5f8073d4a33860578de61dbabdc8bfdb98fd742fa7028e90508073ffffffffffffffffffffffffffffffffffffffff166354fd4d506040518163ffffffff1660e01b8152600401602060405180830381865afa158015610226573d5f803e3d5ffd5b505050506040513d601f19601f8201168201806040525081019061024a91906108df565b91505090565b60025f9054906101000a900473ffffffffffffffffffffffffffffffffffffffff1673ffffffffffffffffffffffffffffffffffffffff163373ffffffffffffffffffffffffffffffffffffffff16146102a8575f80fd5b60025f9054906101000a900473ffffffffffffffffffffffffffffffffffffffff1673ffffffffffffffffffffffffffffffffffffffff163373ffffffffffffffffffffffffffffffffffffffff1614610337576040517f08c379a000000000000000000000000000000000000000000000000000000000815260040161032e90610964565b60405180910390fd5b5f3373ffffffffffffffffffffffffffffffffffffffff164760405161035c906109af565b5f6040518083038185875af1925050503d805f8114610396576040519150601f19603f3d011682016040523d82523d5f602084013e61039b565b606091505b50509050806103df576040517f08c379a00000000000000000000000000000000000000000000000000000000081526004016103d690610a0d565b60405180910390fd5b5f5b60018054905081101561047c575f6001828154811061040357610402610a2b565b5b905f5260205f20015f9054906101000a900473ffffffffffffffffffffffffffffffffffffffff1690505f805f8373ffffffffffffffffffffffffffffffffffffffff1673ffffffffffffffffffffffffffffffffffffffff1681526020019081526020015f20819055505080806001019150506103e1565b505f67ffffffffffffffff81111561049757610496610a58565b5b6040519080825280602002602001820160405280156104c55781602001602082028036833780820191505090505b50600190805190602001906104db9291906106f2565b5050565b5f602052805f5260405f205f915090505481565b5f806104fd610550565b90505f670de0b6b3a764000084836105159190610ab2565b61051f9190610b20565b90508092505050919050565b60025f9054906101000a900473ffffffffffffffffffffffffffffffffffffffff1681565b5f8073d4a33860578de61dbabdc8bfdb98fd742fa7028e90505f8173ffffffffffffffffffffffffffffffffffffffff1663feaf968c6040518163ffffffff1660e01b815260040160a060405180830381865afa1580156105b3573d5f803e3d5ffd5b505050506040513d601f19601f820116820180604052508101906105d79190610bc2565b5050509150506402540be400816105ee9190610c39565b9250505090565b5f6802b5e3af16b18800009050345f803373ffffffffffffffffffffffffffffffffffffffff1673ffffffffffffffffffffffffffffffffffffffff1681526020019081526020015f205f82825461064d9190610caf565b92505081905550600133908060018154018082558091505060019003905f5260205f20015f9091909190916101000a81548173ffffffffffffffffffffffffffffffffffffffff021916908373ffffffffffffffffffffffffffffffffffffffff16021790555050565b600181815481106106c6575f80fd5b905f5260205f20015f915054906101000a900473ffffffffffffffffffffffffffffffffffffffff1681565b828054828255905f5260205f20908101928215610768579160200282015b82811115610767578251825f6101000a81548173ffffffffffffffffffffffffffffffffffffffff021916908373ffffffffffffffffffffffffffffffffffffffff16021790555091602001919060010190610710565b5b5090506107759190610779565b5090565b5b80821115610790575f815f90555060010161077a565b5090565b5f819050919050565b6107a681610794565b82525050565b5f6020820190506107bf5f83018461079d565b92915050565b5f80fd5b5f73ffffffffffffffffffffffffffffffffffffffff82169050919050565b5f6107f2826107c9565b9050919050565b610802816107e8565b811461080c575f80fd5b50565b5f8135905061081d816107f9565b92915050565b5f60208284031215610838576108376107c5565b5b5f6108458482850161080f565b91505092915050565b61085781610794565b8114610861575f80fd5b50565b5f813590506108728161084e565b92915050565b5f6020828403121561088d5761088c6107c5565b5b5f61089a84828501610864565b91505092915050565b6108ac816107e8565b82525050565b5f6020820190506108c55f8301846108a3565b92915050565b5f815190506108d98161084e565b92915050565b5f602082840312156108f4576108f36107c5565b5b5f610901848285016108cb565b91505092915050565b5f82825260208201905092915050565b7f4f6e6c79206f776e65722063616e2077697468647261772100000000000000005f82015250565b5f61094e60188361090a565b91506109598261091a565b602082019050919050565b5f6020820190508181035f83015261097b81610942565b9050919050565b5f81905092915050565b50565b5f61099a5f83610982565b91506109a58261098c565b5f82019050919050565b5f6109b98261098f565b9150819050919050565b7f5769746864726177616c206661696c65640000000000000000000000000000005f82015250565b5f6109f760118361090a565b9150610a02826109c3565b602082019050919050565b5f6020820190508181035f830152610a24816109eb565b9050919050565b7f4e487b71000000000000000000000000000000000000000000000000000000005f52603260045260245ffd5b7f4e487b71000000000000000000000000000000000000000000000000000000005f52604160045260245ffd5b7f4e487b71000000000000000000000000000000000000000000000000000000005f52601160045260245ffd5b5f610abc82610794565b9150610ac783610794565b9250828202610ad581610794565b91508282048414831517610aec57610aeb610a85565b5b5092915050565b7f4e487b71000000000000000000000000000000000000000000000000000000005f52601260045260245ffd5b5f610b2a82610794565b9150610b3583610794565b925082610b4557610b44610af3565b5b828204905092915050565b5f69ffffffffffffffffffff82169050919050565b610b6e81610b50565b8114610b78575f80fd5b50565b5f81519050610b8981610b65565b92915050565b5f819050919050565b610ba181610b8f565b8114610bab575f80fd5b50565b5f81519050610bbc81610b98565b92915050565b5f805f805f60a08688031215610bdb57610bda6107c5565b5b5f610be888828901610b7b565b9550506020610bf988828901610bae565b9450506040610c0a888289016108cb565b9350506060610c1b888289016108cb565b9250506080610c2c88828901610b7b565b9150509295509295909350565b5f610c4382610b8f565b9150610c4e83610b8f565b9250828202610c5c81610b8f565b91507f800000000000000000000000000000000000000000000000000000000000000084145f84121615610c9357610c92610a85565b5b8282058414831517610ca857610ca7610a85565b5b5092915050565b5f610cb982610794565b9150610cc483610794565b9250828201905080821115610cdc57610cdb610a85565b5b9291505056fea2646970667358221220e10d4cca9f4f05bb98160e65710720efb9c418c13a73597a01cfb04883d12f3364736f6c634300081a0033",
					"opcodes": "PUSH1 0x80 PUSH1 0x40 MSTORE CALLVALUE DUP1 ISZERO PUSH1 0xE JUMPI PUSH0 DUP1 REVERT JUMPDEST POP CALLER PUSH1 0x2 PUSH0 PUSH2 0x100 EXP DUP2 SLOAD DUP2 PUSH20 0xFFFFFFFFFFFFFFFFFFFFFFFFFFFFFFFFFFFFFFFF MUL NOT AND SWAP1 DUP4 PUSH20 0xFFFFFFFFFFFFFFFFFFFFFFFFFFFFFFFFFFFFFFFF AND MUL OR SWAP1 SSTORE POP PUSH2 0xD18 DUP1 PUSH2 0x5C PUSH0 CODECOPY PUSH0 RETURN INVALID PUSH1 0x80 PUSH1 0x40 MSTORE PUSH1 0x4 CALLDATASIZE LT PUSH2 0x7A JUMPI PUSH0 CALLDATALOAD PUSH1 0xE0 SHR DUP1 PUSH4 0x8DA5CB5B GT PUSH2 0x4D JUMPI DUP1 PUSH4 0x8DA5CB5B EQ PUSH2 0x12A JUMPI DUP1 PUSH4 0x98D5FDCA EQ PUSH2 0x154 JUMPI DUP1 PUSH4 0xB60D4288 EQ PUSH2 0x17E JUMPI DUP1 PUSH4 0xDC0D3DFF EQ PUSH2 0x188 JUMPI PUSH2 0x7A JUMP JUMPDEST DUP1 PUSH4 0xD8E6E2C EQ PUSH2 0x7E JUMPI DUP1 PUSH4 0x3CCFD60B EQ PUSH2 0xA8 JUMPI DUP1 PUSH4 0x3E47D6F3 EQ PUSH2 0xB2 JUMPI DUP1 PUSH4 0x6E5B6B28 EQ PUSH2 0xEE JUMPI JUMPDEST PUSH0 DUP1 REVERT JUMPDEST CALLVALUE DUP1 ISZERO PUSH2 0x89 JUMPI PUSH0 DUP1 REVERT JUMPDEST POP PUSH2 0x92 PUSH2 0x1C4 JUMP JUMPDEST PUSH1 0x40 MLOAD PUSH2 0x9F SWAP2 SWAP1 PUSH2 0x7AC JUMP JUMPDEST PUSH1 0x40 MLOAD DUP1 SWAP2 SUB SWAP1 RETURN JUMPDEST PUSH2 0xB0 PUSH2 0x250 JUMP JUMPDEST STOP JUMPDEST CALLVALUE DUP1 ISZERO PUSH2 0xBD JUMPI PUSH0 DUP1 REVERT JUMPDEST POP PUSH2 0xD8 PUSH1 0x4 DUP1 CALLDATASIZE SUB DUP2 ADD SWAP1 PUSH2 0xD3 SWAP2 SWAP1 PUSH2 0x823 JUMP JUMPDEST PUSH2 0x4DF JUMP JUMPDEST PUSH1 0x40 MLOAD PUSH2 0xE5 SWAP2 SWAP1 PUSH2 0x7AC JUMP JUMPDEST PUSH1 0x40 MLOAD DUP1 SWAP2 SUB SWAP1 RETURN JUMPDEST CALLVALUE DUP1 ISZERO PUSH2 0xF9 JUMPI PUSH0 DUP1 REVERT JUMPDEST POP PUSH2 0x114 PUSH1 0x4 DUP1 CALLDATASIZE SUB DUP2 ADD SWAP1 PUSH2 0x10F SWAP2 SWAP1 PUSH2 0x878 JUMP JUMPDEST PUSH2 0x4F3 JUMP JUMPDEST PUSH1 0x40 MLOAD PUSH2 0x121 SWAP2 SWAP1 PUSH2 0x7AC JUMP JUMPDEST PUSH1 0x40 MLOAD DUP1 SWAP2 SUB SWAP1 RETURN JUMPDEST CALLVALUE DUP1 ISZERO PUSH2 0x135 JUMPI PUSH0 DUP1 REVERT JUMPDEST POP PUSH2 0x13E PUSH2 0x52B JUMP JUMPDEST PUSH1 0x40 MLOAD PUSH2 0x14B SWAP2 SWAP1 PUSH2 0x8B2 JUMP JUMPDEST PUSH1 0x40 MLOAD DUP1 SWAP2 SUB SWAP1 RETURN JUMPDEST CALLVALUE DUP1 ISZERO PUSH2 0x15F JUMPI PUSH0 DUP1 REVERT JUMPDEST POP PUSH2 0x168 PUSH2 0x550 JUMP JUMPDEST PUSH1 0x40 MLOAD PUSH2 0x175 SWAP2 SWAP1 PUSH2 0x7AC JUMP JUMPDEST PUSH1 0x40 MLOAD DUP1 SWAP2 SUB SWAP1 RETURN JUMPDEST PUSH2 0x186 PUSH2 0x5F5 JUMP JUMPDEST STOP JUMPDEST CALLVALUE DUP1 ISZERO PUSH2 0x193 JUMPI PUSH0 DUP1 REVERT JUMPDEST POP PUSH2 0x1AE PUSH1 0x4 DUP1 CALLDATASIZE SUB DUP2 ADD SWAP1 PUSH2 0x1A9 SWAP2 SWAP1 PUSH2 0x878 JUMP JUMPDEST PUSH2 0x6B7 JUMP JUMPDEST PUSH1 0x40 MLOAD PUSH2 0x1BB SWAP2 SWAP1 PUSH2 0x8B2 JUMP JUMPDEST PUSH1 0x40 MLOAD DUP1 SWAP2 SUB SWAP1 RETURN JUMPDEST PUSH0 DUP1 PUSH20 0xD4A33860578DE61DBABDC8BFDB98FD742FA7028E SWAP1 POP DUP1 PUSH20 0xFFFFFFFFFFFFFFFFFFFFFFFFFFFFFFFFFFFFFFFF AND PUSH4 0x54FD4D50 PUSH1 0x40 MLOAD DUP2 PUSH4 0xFFFFFFFF AND PUSH1 0xE0 SHL DUP2 MSTORE PUSH1 0x4 ADD PUSH1 0x20 PUSH1 0x40 MLOAD DUP1 DUP4 SUB DUP2 DUP7 GAS STATICCALL ISZERO DUP1 ISZERO PUSH2 0x226 JUMPI RETURNDATASIZE PUSH0 DUP1 RETURNDATACOPY RETURNDATASIZE PUSH0 REVERT JUMPDEST POP POP POP POP PUSH1 0x40 MLOAD RETURNDATASIZE PUSH1 0x1F NOT PUSH1 0x1F DUP3 ADD AND DUP3 ADD DUP1 PUSH1 0x40 MSTORE POP DUP2 ADD SWAP1 PUSH2 0x24A SWAP2 SWAP1 PUSH2 0x8DF JUMP JUMPDEST SWAP2 POP POP SWAP1 JUMP JUMPDEST PUSH1 0x2 PUSH0 SWAP1 SLOAD SWAP1 PUSH2 0x100 EXP SWAP1 DIV PUSH20 0xFFFFFFFFFFFFFFFFFFFFFFFFFFFFFFFFFFFFFFFF AND PUSH20 0xFFFFFFFFFFFFFFFFFFFFFFFFFFFFFFFFFFFFFFFF AND CALLER PUSH20 0xFFFFFFFFFFFFFFFFFFFFFFFFFFFFFFFFFFFFFFFF AND EQ PUSH2 0x2A8 JUMPI PUSH0 DUP1 REVERT JUMPDEST PUSH1 0x2 PUSH0 SWAP1 SLOAD SWAP1 PUSH2 0x100 EXP SWAP1 DIV PUSH20 0xFFFFFFFFFFFFFFFFFFFFFFFFFFFFFFFFFFFFFFFF AND PUSH20 0xFFFFFFFFFFFFFFFFFFFFFFFFFFFFFFFFFFFFFFFF AND CALLER PUSH20 0xFFFFFFFFFFFFFFFFFFFFFFFFFFFFFFFFFFFFFFFF AND EQ PUSH2 0x337 JUMPI PUSH1 0x40 MLOAD PUSH32 0x8C379A000000000000000000000000000000000000000000000000000000000 DUP2 MSTORE PUSH1 0x4 ADD PUSH2 0x32E SWAP1 PUSH2 0x964 JUMP JUMPDEST PUSH1 0x40 MLOAD DUP1 SWAP2 SUB SWAP1 REVERT JUMPDEST PUSH0 CALLER PUSH20 0xFFFFFFFFFFFFFFFFFFFFFFFFFFFFFFFFFFFFFFFF AND SELFBALANCE PUSH1 0x40 MLOAD PUSH2 0x35C SWAP1 PUSH2 0x9AF JUMP JUMPDEST PUSH0 PUSH1 0x40 MLOAD DUP1 DUP4 SUB DUP2 DUP6 DUP8 GAS CALL SWAP3 POP POP POP RETURNDATASIZE DUP1 PUSH0 DUP2 EQ PUSH2 0x396 JUMPI PUSH1 0x40 MLOAD SWAP2 POP PUSH1 0x1F NOT PUSH1 0x3F RETURNDATASIZE ADD AND DUP3 ADD PUSH1 0x40 MSTORE RETURNDATASIZE DUP3 MSTORE RETURNDATASIZE PUSH0 PUSH1 0x20 DUP5 ADD RETURNDATACOPY PUSH2 0x39B JUMP JUMPDEST PUSH1 0x60 SWAP2 POP JUMPDEST POP POP SWAP1 POP DUP1 PUSH2 0x3DF JUMPI PUSH1 0x40 MLOAD PUSH32 0x8C379A000000000000000000000000000000000000000000000000000000000 DUP2 MSTORE PUSH1 0x4 ADD PUSH2 0x3D6 SWAP1 PUSH2 0xA0D JUMP JUMPDEST PUSH1 0x40 MLOAD DUP1 SWAP2 SUB SWAP1 REVERT JUMPDEST PUSH0 JUMPDEST PUSH1 0x1 DUP1 SLOAD SWAP1 POP DUP2 LT ISZERO PUSH2 0x47C JUMPI PUSH0 PUSH1 0x1 DUP3 DUP2 SLOAD DUP2 LT PUSH2 0x403 JUMPI PUSH2 0x402 PUSH2 0xA2B JUMP JUMPDEST JUMPDEST SWAP1 PUSH0 MSTORE PUSH1 0x20 PUSH0 KECCAK256 ADD PUSH0 SWAP1 SLOAD SWAP1 PUSH2 0x100 EXP SWAP1 DIV PUSH20 0xFFFFFFFFFFFFFFFFFFFFFFFFFFFFFFFFFFFFFFFF AND SWAP1 POP PUSH0 DUP1 PUSH0 DUP4 PUSH20 0xFFFFFFFFFFFFFFFFFFFFFFFFFFFFFFFFFFFFFFFF AND PUSH20 0xFFFFFFFFFFFFFFFFFFFFFFFFFFFFFFFFFFFFFFFF AND DUP2 MSTORE PUSH1 0x20 ADD SWAP1 DUP2 MSTORE PUSH1 0x20 ADD PUSH0 KECCAK256 DUP2 SWAP1 SSTORE POP POP DUP1 DUP1 PUSH1 0x1 ADD SWAP2 POP POP PUSH2 0x3E1 JUMP JUMPDEST POP PUSH0 PUSH8 0xFFFFFFFFFFFFFFFF DUP2 GT ISZERO PUSH2 0x497 JUMPI PUSH2 0x496 PUSH2 0xA58 JUMP JUMPDEST JUMPDEST PUSH1 0x40 MLOAD SWAP1 DUP1 DUP3 MSTORE DUP1 PUSH1 0x20 MUL PUSH1 0x20 ADD DUP3 ADD PUSH1 0x40 MSTORE DUP1 ISZERO PUSH2 0x4C5 JUMPI DUP2 PUSH1 0x20 ADD PUSH1 0x20 DUP3 MUL DUP1 CALLDATASIZE DUP4 CALLDATACOPY DUP1 DUP3 ADD SWAP2 POP POP SWAP1 POP JUMPDEST POP PUSH1 0x1 SWAP1 DUP1 MLOAD SWAP1 PUSH1 0x20 ADD SWAP1 PUSH2 0x4DB SWAP3 SWAP2 SWAP1 PUSH2 0x6F2 JUMP JUMPDEST POP POP JUMP JUMPDEST PUSH0 PUSH1 0x20 MSTORE DUP1 PUSH0 MSTORE PUSH1 0x40 PUSH0 KECCAK256 PUSH0 SWAP2 POP SWAP1 POP SLOAD DUP2 JUMP JUMPDEST PUSH0 DUP1 PUSH2 0x4FD PUSH2 0x550 JUMP JUMPDEST SWAP1 POP PUSH0 PUSH8 0xDE0B6B3A7640000 DUP5 DUP4 PUSH2 0x515 SWAP2 SWAP1 PUSH2 0xAB2 JUMP JUMPDEST PUSH2 0x51F SWAP2 SWAP1 PUSH2 0xB20 JUMP JUMPDEST SWAP1 POP DUP1 SWAP3 POP POP POP SWAP2 SWAP1 POP JUMP JUMPDEST PUSH1 0x2 PUSH0 SWAP1 SLOAD SWAP1 PUSH2 0x100 EXP SWAP1 DIV PUSH20 0xFFFFFFFFFFFFFFFFFFFFFFFFFFFFFFFFFFFFFFFF AND DUP2 JUMP JUMPDEST PUSH0 DUP1 PUSH20 0xD4A33860578DE61DBABDC8BFDB98FD742FA7028E SWAP1 POP PUSH0 DUP2 PUSH20 0xFFFFFFFFFFFFFFFFFFFFFFFFFFFFFFFFFFFFFFFF AND PUSH4 0xFEAF968C PUSH1 0x40 MLOAD DUP2 PUSH4 0xFFFFFFFF AND PUSH1 0xE0 SHL DUP2 MSTORE PUSH1 0x4 ADD PUSH1 0xA0 PUSH1 0x40 MLOAD DUP1 DUP4 SUB DUP2 DUP7 GAS STATICCALL ISZERO DUP1 ISZERO PUSH2 0x5B3 JUMPI RETURNDATASIZE PUSH0 DUP1 RETURNDATACOPY RETURNDATASIZE PUSH0 REVERT JUMPDEST POP POP POP POP PUSH1 0x40 MLOAD RETURNDATASIZE PUSH1 0x1F NOT PUSH1 0x1F DUP3 ADD AND DUP3 ADD DUP1 PUSH1 0x40 MSTORE POP DUP2 ADD SWAP1 PUSH2 0x5D7 SWAP2 SWAP1 PUSH2 0xBC2 JUMP JUMPDEST POP POP POP SWAP2 POP POP PUSH5 0x2540BE400 DUP2 PUSH2 0x5EE SWAP2 SWAP1 PUSH2 0xC39 JUMP JUMPDEST SWAP3 POP POP POP SWAP1 JUMP JUMPDEST PUSH0 PUSH9 0x2B5E3AF16B1880000 SWAP1 POP CALLVALUE PUSH0 DUP1 CALLER PUSH20 0xFFFFFFFFFFFFFFFFFFFFFFFFFFFFFFFFFFFFFFFF AND PUSH20 0xFFFFFFFFFFFFFFFFFFFFFFFFFFFFFFFFFFFFFFFF AND DUP2 MSTORE PUSH1 0x20 ADD SWAP1 DUP2 MSTORE PUSH1 0x20 ADD PUSH0 KECCAK256 PUSH0 DUP3 DUP3 SLOAD PUSH2 0x64D SWAP2 SWAP1 PUSH2 0xCAF JUMP JUMPDEST SWAP3 POP POP DUP2 SWAP1 SSTORE POP PUSH1 0x1 CALLER SWAP1 DUP1 PUSH1 0x1 DUP2 SLOAD ADD DUP1 DUP3 SSTORE DUP1 SWAP2 POP POP PUSH1 0x1 SWAP1 SUB SWAP1 PUSH0 MSTORE PUSH1 0x20 PUSH0 KECCAK256 ADD PUSH0 SWAP1 SWAP2 SWAP1 SWAP2 SWAP1 SWAP2 PUSH2 0x100 EXP DUP2 SLOAD DUP2 PUSH20 0xFFFFFFFFFFFFFFFFFFFFFFFFFFFFFFFFFFFFFFFF MUL NOT AND SWAP1 DUP4 PUSH20 0xFFFFFFFFFFFFFFFFFFFFFFFFFFFFFFFFFFFFFFFF AND MUL OR SWAP1 SSTORE POP POP JUMP JUMPDEST PUSH1 0x1 DUP2 DUP2 SLOAD DUP2 LT PUSH2 0x6C6 JUMPI PUSH0 DUP1 REVERT JUMPDEST SWAP1 PUSH0 MSTORE PUSH1 0x20 PUSH0 KECCAK256 ADD PUSH0 SWAP2 POP SLOAD SWAP1 PUSH2 0x100 EXP SWAP1 DIV PUSH20 0xFFFFFFFFFFFFFFFFFFFFFFFFFFFFFFFFFFFFFFFF AND DUP2 JUMP JUMPDEST DUP3 DUP1 SLOAD DUP3 DUP3 SSTORE SWAP1 PUSH0 MSTORE PUSH1 0x20 PUSH0 KECCAK256 SWAP1 DUP2 ADD SWAP3 DUP3 ISZERO PUSH2 0x768 JUMPI SWAP2 PUSH1 0x20 MUL DUP3 ADD JUMPDEST DUP3 DUP2 GT ISZERO PUSH2 0x767 JUMPI DUP3 MLOAD DUP3 PUSH0 PUSH2 0x100 EXP DUP2 SLOAD DUP2 PUSH20 0xFFFFFFFFFFFFFFFFFFFFFFFFFFFFFFFFFFFFFFFF MUL NOT AND SWAP1 DUP4 PUSH20 0xFFFFFFFFFFFFFFFFFFFFFFFFFFFFFFFFFFFFFFFF AND MUL OR SWAP1 SSTORE POP SWAP2 PUSH1 0x20 ADD SWAP2 SWAP1 PUSH1 0x1 ADD SWAP1 PUSH2 0x710 JUMP JUMPDEST JUMPDEST POP SWAP1 POP PUSH2 0x775 SWAP2 SWAP1 PUSH2 0x779 JUMP JUMPDEST POP SWAP1 JUMP JUMPDEST JUMPDEST DUP1 DUP3 GT ISZERO PUSH2 0x790 JUMPI PUSH0 DUP2 PUSH0 SWAP1 SSTORE POP PUSH1 0x1 ADD PUSH2 0x77A JUMP JUMPDEST POP SWAP1 JUMP JUMPDEST PUSH0 DUP2 SWAP1 POP SWAP2 SWAP1 POP JUMP JUMPDEST PUSH2 0x7A6 DUP2 PUSH2 0x794 JUMP JUMPDEST DUP3 MSTORE POP POP JUMP JUMPDEST PUSH0 PUSH1 0x20 DUP3 ADD SWAP1 POP PUSH2 0x7BF PUSH0 DUP4 ADD DUP5 PUSH2 0x79D JUMP JUMPDEST SWAP3 SWAP2 POP POP JUMP JUMPDEST PUSH0 DUP1 REVERT JUMPDEST PUSH0 PUSH20 0xFFFFFFFFFFFFFFFFFFFFFFFFFFFFFFFFFFFFFFFF DUP3 AND SWAP1 POP SWAP2 SWAP1 POP JUMP JUMPDEST PUSH0 PUSH2 0x7F2 DUP3 PUSH2 0x7C9 JUMP JUMPDEST SWAP1 POP SWAP2 SWAP1 POP JUMP JUMPDEST PUSH2 0x802 DUP2 PUSH2 0x7E8 JUMP JUMPDEST DUP2 EQ PUSH2 0x80C JUMPI PUSH0 DUP1 REVERT JUMPDEST POP JUMP JUMPDEST PUSH0 DUP2 CALLDATALOAD SWAP1 POP PUSH2 0x81D DUP2 PUSH2 0x7F9 JUMP JUMPDEST SWAP3 SWAP2 POP POP JUMP JUMPDEST PUSH0 PUSH1 0x20 DUP3 DUP5 SUB SLT ISZERO PUSH2 0x838 JUMPI PUSH2 0x837 PUSH2 0x7C5 JUMP JUMPDEST JUMPDEST PUSH0 PUSH2 0x845 DUP5 DUP3 DUP6 ADD PUSH2 0x80F JUMP JUMPDEST SWAP2 POP POP SWAP3 SWAP2 POP POP JUMP JUMPDEST PUSH2 0x857 DUP2 PUSH2 0x794 JUMP JUMPDEST DUP2 EQ PUSH2 0x861 JUMPI PUSH0 DUP1 REVERT JUMPDEST POP JUMP JUMPDEST PUSH0 DUP2 CALLDATALOAD SWAP1 POP PUSH2 0x872 DUP2 PUSH2 0x84E JUMP JUMPDEST SWAP3 SWAP2 POP POP JUMP JUMPDEST PUSH0 PUSH1 0x20 DUP3 DUP5 SUB SLT ISZERO PUSH2 0x88D JUMPI PUSH2 0x88C PUSH2 0x7C5 JUMP JUMPDEST JUMPDEST PUSH0 PUSH2 0x89A DUP5 DUP3 DUP6 ADD PUSH2 0x864 JUMP JUMPDEST SWAP2 POP POP SWAP3 SWAP2 POP POP JUMP JUMPDEST PUSH2 0x8AC DUP2 PUSH2 0x7E8 JUMP JUMPDEST DUP3 MSTORE POP POP JUMP JUMPDEST PUSH0 PUSH1 0x20 DUP3 ADD SWAP1 POP PUSH2 0x8C5 PUSH0 DUP4 ADD DUP5 PUSH2 0x8A3 JUMP JUMPDEST SWAP3 SWAP2 POP POP JUMP JUMPDEST PUSH0 DUP2 MLOAD SWAP1 POP PUSH2 0x8D9 DUP2 PUSH2 0x84E JUMP JUMPDEST SWAP3 SWAP2 POP POP JUMP JUMPDEST PUSH0 PUSH1 0x20 DUP3 DUP5 SUB SLT ISZERO PUSH2 0x8F4 JUMPI PUSH2 0x8F3 PUSH2 0x7C5 JUMP JUMPDEST JUMPDEST PUSH0 PUSH2 0x901 DUP5 DUP3 DUP6 ADD PUSH2 0x8CB JUMP JUMPDEST SWAP2 POP POP SWAP3 SWAP2 POP POP JUMP JUMPDEST PUSH0 DUP3 DUP3 MSTORE PUSH1 0x20 DUP3 ADD SWAP1 POP SWAP3 SWAP2 POP POP JUMP JUMPDEST PUSH32 0x4F6E6C79206F776E65722063616E207769746864726177210000000000000000 PUSH0 DUP3 ADD MSTORE POP JUMP JUMPDEST PUSH0 PUSH2 0x94E PUSH1 0x18 DUP4 PUSH2 0x90A JUMP JUMPDEST SWAP2 POP PUSH2 0x959 DUP3 PUSH2 0x91A JUMP JUMPDEST PUSH1 0x20 DUP3 ADD SWAP1 POP SWAP2 SWAP1 POP JUMP JUMPDEST PUSH0 PUSH1 0x20 DUP3 ADD SWAP1 POP DUP2 DUP2 SUB PUSH0 DUP4 ADD MSTORE PUSH2 0x97B DUP2 PUSH2 0x942 JUMP JUMPDEST SWAP1 POP SWAP2 SWAP1 POP JUMP JUMPDEST PUSH0 DUP2 SWAP1 POP SWAP3 SWAP2 POP POP JUMP JUMPDEST POP JUMP JUMPDEST PUSH0 PUSH2 0x99A PUSH0 DUP4 PUSH2 0x982 JUMP JUMPDEST SWAP2 POP PUSH2 0x9A5 DUP3 PUSH2 0x98C JUMP JUMPDEST PUSH0 DUP3 ADD SWAP1 POP SWAP2 SWAP1 POP JUMP JUMPDEST PUSH0 PUSH2 0x9B9 DUP3 PUSH2 0x98F JUMP JUMPDEST SWAP2 POP DUP2 SWAP1 POP SWAP2 SWAP1 POP JUMP JUMPDEST PUSH32 0x5769746864726177616C206661696C6564000000000000000000000000000000 PUSH0 DUP3 ADD MSTORE POP JUMP JUMPDEST PUSH0 PUSH2 0x9F7 PUSH1 0x11 DUP4 PUSH2 0x90A JUMP JUMPDEST SWAP2 POP PUSH2 0xA02 DUP3 PUSH2 0x9C3 JUMP JUMPDEST PUSH1 0x20 DUP3 ADD SWAP1 POP SWAP2 SWAP1 POP JUMP JUMPDEST PUSH0 PUSH1 0x20 DUP3 ADD SWAP1 POP DUP2 DUP2 SUB PUSH0 DUP4 ADD MSTORE PUSH2 0xA24 DUP2 PUSH2 0x9EB JUMP JUMPDEST SWAP1 POP SWAP2 SWAP1 POP JUMP JUMPDEST PUSH32 0x4E487B7100000000000000000000000000000000000000000000000000000000 PUSH0 MSTORE PUSH1 0x32 PUSH1 0x4 MSTORE PUSH1 0x24 PUSH0 REVERT JUMPDEST PUSH32 0x4E487B7100000000000000000000000000000000000000000000000000000000 PUSH0 MSTORE PUSH1 0x41 PUSH1 0x4 MSTORE PUSH1 0x24 PUSH0 REVERT JUMPDEST PUSH32 0x4E487B7100000000000000000000000000000000000000000000000000000000 PUSH0 MSTORE PUSH1 0x11 PUSH1 0x4 MSTORE PUSH1 0x24 PUSH0 REVERT JUMPDEST PUSH0 PUSH2 0xABC DUP3 PUSH2 0x794 JUMP JUMPDEST SWAP2 POP PUSH2 0xAC7 DUP4 PUSH2 0x794 JUMP JUMPDEST SWAP3 POP DUP3 DUP3 MUL PUSH2 0xAD5 DUP2 PUSH2 0x794 JUMP JUMPDEST SWAP2 POP DUP3 DUP3 DIV DUP5 EQ DUP4 ISZERO OR PUSH2 0xAEC JUMPI PUSH2 0xAEB PUSH2 0xA85 JUMP JUMPDEST JUMPDEST POP SWAP3 SWAP2 POP POP JUMP JUMPDEST PUSH32 0x4E487B7100000000000000000000000000000000000000000000000000000000 PUSH0 MSTORE PUSH1 0x12 PUSH1 0x4 MSTORE PUSH1 0x24 PUSH0 REVERT JUMPDEST PUSH0 PUSH2 0xB2A DUP3 PUSH2 0x794 JUMP JUMPDEST SWAP2 POP PUSH2 0xB35 DUP4 PUSH2 0x794 JUMP JUMPDEST SWAP3 POP DUP3 PUSH2 0xB45 JUMPI PUSH2 0xB44 PUSH2 0xAF3 JUMP JUMPDEST JUMPDEST DUP3 DUP3 DIV SWAP1 POP SWAP3 SWAP2 POP POP JUMP JUMPDEST PUSH0 PUSH10 0xFFFFFFFFFFFFFFFFFFFF DUP3 AND SWAP1 POP SWAP2 SWAP1 POP JUMP JUMPDEST PUSH2 0xB6E DUP2 PUSH2 0xB50 JUMP JUMPDEST DUP2 EQ PUSH2 0xB78 JUMPI PUSH0 DUP1 REVERT JUMPDEST POP JUMP JUMPDEST PUSH0 DUP2 MLOAD SWAP1 POP PUSH2 0xB89 DUP2 PUSH2 0xB65 JUMP JUMPDEST SWAP3 SWAP2 POP POP JUMP JUMPDEST PUSH0 DUP2 SWAP1 POP SWAP2 SWAP1 POP JUMP JUMPDEST PUSH2 0xBA1 DUP2 PUSH2 0xB8F JUMP JUMPDEST DUP2 EQ PUSH2 0xBAB JUMPI PUSH0 DUP1 REVERT JUMPDEST POP JUMP JUMPDEST PUSH0 DUP2 MLOAD SWAP1 POP PUSH2 0xBBC DUP2 PUSH2 0xB98 JUMP JUMPDEST SWAP3 SWAP2 POP POP JUMP JUMPDEST PUSH0 DUP1 PUSH0 DUP1 PUSH0 PUSH1 0xA0 DUP7 DUP9 SUB SLT ISZERO PUSH2 0xBDB JUMPI PUSH2 0xBDA PUSH2 0x7C5 JUMP JUMPDEST JUMPDEST PUSH0 PUSH2 0xBE8 DUP9 DUP3 DUP10 ADD PUSH2 0xB7B JUMP JUMPDEST SWAP6 POP POP PUSH1 0x20 PUSH2 0xBF9 DUP9 DUP3 DUP10 ADD PUSH2 0xBAE JUMP JUMPDEST SWAP5 POP POP PUSH1 0x40 PUSH2 0xC0A DUP9 DUP3 DUP10 ADD PUSH2 0x8CB JUMP JUMPDEST SWAP4 POP POP PUSH1 0x60 PUSH2 0xC1B DUP9 DUP3 DUP10 ADD PUSH2 0x8CB JUMP JUMPDEST SWAP3 POP POP PUSH1 0x80 PUSH2 0xC2C DUP9 DUP3 DUP10 ADD PUSH2 0xB7B JUMP JUMPDEST SWAP2 POP POP SWAP3 SWAP6 POP SWAP3 SWAP6 SWAP1 SWAP4 POP JUMP JUMPDEST PUSH0 PUSH2 0xC43 DUP3 PUSH2 0xB8F JUMP JUMPDEST SWAP2 POP PUSH2 0xC4E DUP4 PUSH2 0xB8F JUMP JUMPDEST SWAP3 POP DUP3 DUP3 MUL PUSH2 0xC5C DUP2 PUSH2 0xB8F JUMP JUMPDEST SWAP2 POP PUSH32 0x8000000000000000000000000000000000000000000000000000000000000000 DUP5 EQ PUSH0 DUP5 SLT AND ISZERO PUSH2 0xC93 JUMPI PUSH2 0xC92 PUSH2 0xA85 JUMP JUMPDEST JUMPDEST DUP3 DUP3 SDIV DUP5 EQ DUP4 ISZERO OR PUSH2 0xCA8 JUMPI PUSH2 0xCA7 PUSH2 0xA85 JUMP JUMPDEST JUMPDEST POP SWAP3 SWAP2 POP POP JUMP JUMPDEST PUSH0 PUSH2 0xCB9 DUP3 PUSH2 0x794 JUMP JUMPDEST SWAP2 POP PUSH2 0xCC4 DUP4 PUSH2 0x794 JUMP JUMPDEST SWAP3 POP DUP3 DUP3 ADD SWAP1 POP DUP1 DUP3 GT ISZERO PUSH2 0xCDC JUMPI PUSH2 0xCDB PUSH2 0xA85 JUMP JUMPDEST JUMPDEST SWAP3 SWAP2 POP POP JUMP INVALID LOG2 PUSH5 0x6970667358 0x22 SLT KECCAK256 0xE1 0xD 0x4C 0xCA SWAP16 0x4F SDIV 0xBB SWAP9 AND 0xE PUSH6 0x710720EFB9C4 XOR 0xC1 GASPRICE PUSH20 0x597A01CFB04883D12F3364736F6C634300081A00 CALLER "
				},
				"gasEstimates": {
					"creation": {
						"codeDepositCost": "670400",
						"executionCost": "24965",
						"totalCost": "695365"
					},
					"external": {
						"addressToAmountFunded(address)": "2846",
						"fund()": "infinite",
						"funders(uint256)": "5010",
						"getConversionRate(uint256)": "infinite",
						"getPrice()": "infinite",
						"getVersion()": "infinite",
						"owner()": "2508",
						"withdraw()": "infinite"
					}
				},
				"methodIdentifiers": {
					"addressToAmountFunded(address)": "3e47d6f3",
					"fund()": "b60d4288",
					"funders(uint256)": "dc0d3dff",
					"getConversionRate(uint256)": "6e5b6b28",
					"getPrice()": "98d5fdca",
					"getVersion()": "0d8e6e2c",
					"owner()": "8da5cb5b",
					"withdraw()": "3ccfd60b"
				}
			},
			"storageLayout": {
				"storage": [
					{
						"astId": 52,
						"contract": "contracts/FundMe.sol:FundMe",
						"label": "addressToAmountFunded",
						"offset": 0,
						"slot": "0",
						"type": "t_mapping(t_address,t_uint256)"
					},
					{
						"astId": 55,
						"contract": "contracts/FundMe.sol:FundMe",
						"label": "funders",
						"offset": 0,
						"slot": "1",
						"type": "t_array(t_address)dyn_storage"
					},
					{
						"astId": 57,
						"contract": "contracts/FundMe.sol:FundMe",
						"label": "owner",
						"offset": 0,
						"slot": "2",
						"type": "t_address"
					}
				],
				"types": {
					"t_address": {
						"encoding": "inplace",
						"label": "address",
						"numberOfBytes": "20"
					},
					"t_array(t_address)dyn_storage": {
						"base": "t_address",
						"encoding": "dynamic_array",
						"label": "address[]",
						"numberOfBytes": "32"
					},
					"t_mapping(t_address,t_uint256)": {
						"encoding": "mapping",
						"key": "t_address",
						"label": "mapping(address => uint256)",
						"numberOfBytes": "32",
						"value": "t_uint256"
					},
					"t_uint256": {
						"encoding": "inplace",
						"label": "uint256",
						"numberOfBytes": "32"
					}
				}
			},
			"userdoc": {
				"kind": "user",
				"methods": {},
				"version": 1
			}
		}
	}
}