{
	"contracts/FundMe.sol": {
		"FundMe": {
			"abi": [
				{
					"inputs": [],
					"stateMutability": "nonpayable",
					"type": "constructor"
				},
				{
					"inputs": [
						{
							"internalType": "address",
							"name": "",
							"type": "address"
						}
					],
					"name": "addressToAmountFunded",
					"outputs": [
						{
							"internalType": "uint256",
							"name": "",
							"type": "uint256"
						}
					],
					"stateMutability": "view",
					"type": "function"
				},
				{
					"inputs": [],
					"name": "fund",
					"outputs": [],
					"stateMutability": "payable",
					"type": "function"
				},
				{
					"inputs": [
						{
							"internalType": "uint256",
							"name": "",
							"type": "uint256"
						}
					],
					"name": "funders",
					"outputs": [
						{
							"internalType": "address",
							"name": "",
							"type": "address"
						}
					],
					"stateMutability": "view",
					"type": "function"
				},
				{
					"inputs": [
						{
							"internalType": "uint256",
							"name": "ethAmount",
							"type": "uint256"
						}
					],
					"name": "getConversionRate",
					"outputs": [
						{
							"internalType": "uint256",
							"name": "",
							"type": "uint256"
						}
					],
					"stateMutability": "view",
					"type": "function"
				},
				{
					"inputs": [],
					"name": "getPrice",
					"outputs": [
						{
							"internalType": "uint256",
							"name": "",
							"type": "uint256"
						}
					],
					"stateMutability": "view",
					"type": "function"
				},
				{
					"inputs": [],
					"name": "getVersion",
					"outputs": [
						{
							"internalType": "uint256",
							"name": "",
							"type": "uint256"
						}
					],
					"stateMutability": "view",
					"type": "function"
				},
				{
					"inputs": [],
					"name": "owner",
					"outputs": [
						{
							"internalType": "address",
							"name": "",
							"type": "address"
						}
					],
					"stateMutability": "view",
					"type": "function"
				},
				{
					"inputs": [],
					"name": "withdraw",
					"outputs": [],
					"stateMutability": "payable",
					"type": "function"
				}
			],
			"devdoc": {
				"kind": "dev",
				"methods": {},
				"version": 1
			},
			"evm": {
				"assembly": "    /* \"contracts/FundMe.sol\":501:4178  contract FundMe {... */\n  mstore(0x40, 0x80)\n    /* \"contracts/FundMe.sol\":946:997  constructor() {... */\n  callvalue\n  dup1\n  iszero\n  tag_1\n  jumpi\n  0x00\n  dup1\n  revert\ntag_1:\n  pop\n    /* \"contracts/FundMe.sol\":979:989  msg.sender */\n  caller\n    /* \"contracts/FundMe.sol\":971:976  owner */\n  0x02\n  0x00\n    /* \"contracts/FundMe.sol\":971:989  owner = msg.sender */\n  0x0100\n  exp\n  dup2\n  sload\n  dup2\n  0xffffffffffffffffffffffffffffffffffffffff\n  mul\n  not\n  and\n  swap1\n  dup4\n  0xffffffffffffffffffffffffffffffffffffffff\n  and\n  mul\n  or\n  swap1\n  sstore\n  pop\n    /* \"contracts/FundMe.sol\":501:4178  contract FundMe {... */\n  dataSize(sub_0)\n  dup1\n  dataOffset(sub_0)\n  0x00\n  codecopy\n  0x00\n  return\nstop\n\nsub_0: assembly {\n        /* \"contracts/FundMe.sol\":501:4178  contract FundMe {... */\n      mstore(0x40, 0x80)\n      jumpi(tag_1, lt(calldatasize, 0x04))\n      shr(0xe0, calldataload(0x00))\n      dup1\n      0x8da5cb5b\n      gt\n      tag_10\n      jumpi\n      dup1\n      0x8da5cb5b\n      eq\n      tag_6\n      jumpi\n      dup1\n      0x98d5fdca\n      eq\n      tag_7\n      jumpi\n      dup1\n      0xb60d4288\n      eq\n      tag_8\n      jumpi\n      dup1\n      0xdc0d3dff\n      eq\n      tag_9\n      jumpi\n      jump(tag_1)\n    tag_10:\n      dup1\n      0x0d8e6e2c\n      eq\n      tag_2\n      jumpi\n      dup1\n      0x3ccfd60b\n      eq\n      tag_3\n      jumpi\n      dup1\n      0x3e47d6f3\n      eq\n      tag_4\n      jumpi\n      dup1\n      0x6e5b6b28\n      eq\n      tag_5\n      jumpi\n    tag_1:\n      0x00\n      dup1\n      revert\n        /* \"contracts/FundMe.sol\":1544:1775  function getVersion() public view returns (uint256) {... */\n    tag_2:\n      callvalue\n      dup1\n      iszero\n      tag_11\n      jumpi\n      0x00\n      dup1\n      revert\n    tag_11:\n      pop\n      tag_12\n      tag_13\n      jump\t// in\n    tag_12:\n      mload(0x40)\n      tag_14\n      swap2\n      swap1\n      tag_15\n      jump\t// in\n    tag_14:\n      mload(0x40)\n      dup1\n      swap2\n      sub\n      swap1\n      return\n        /* \"contracts/FundMe.sol\":2907:4175  function withdraw() public payable onlyOwner {... */\n    tag_3:\n      tag_16\n      tag_17\n      jump\t// in\n    tag_16:\n      stop\n        /* \"contracts/FundMe.sol\":657:713  mapping(address => uint256) public addressToAmountFunded */\n    tag_4:\n      callvalue\n      dup1\n      iszero\n      tag_18\n      jumpi\n      0x00\n      dup1\n      revert\n    tag_18:\n      pop\n      tag_19\n      0x04\n      dup1\n      calldatasize\n      sub\n      dup2\n      add\n      swap1\n      tag_20\n      swap2\n      swap1\n      tag_21\n      jump\t// in\n    tag_20:\n      tag_22\n      jump\t// in\n    tag_19:\n      mload(0x40)\n      tag_23\n      swap2\n      swap1\n      tag_15\n      jump\t// in\n    tag_23:\n      mload(0x40)\n      dup1\n      swap2\n      sub\n      swap1\n      return\n        /* \"contracts/FundMe.sol\":2150:2498  function getConversionRate(uint256 ethAmount)... */\n    tag_5:\n      callvalue\n      dup1\n      iszero\n      tag_24\n      jumpi\n      0x00\n      dup1\n      revert\n    tag_24:\n      pop\n      tag_25\n      0x04\n      dup1\n      calldatasize\n      sub\n      dup2\n      add\n      swap1\n      tag_26\n      swap2\n      swap1\n      tag_27\n      jump\t// in\n    tag_26:\n      tag_28\n      jump\t// in\n    tag_25:\n      mload(0x40)\n      tag_29\n      swap2\n      swap1\n      tag_15\n      jump\t// in\n    tag_29:\n      mload(0x40)\n      dup1\n      swap2\n      sub\n      swap1\n      return\n        /* \"contracts/FundMe.sol\":848:868  address public owner */\n    tag_6:\n      callvalue\n      dup1\n      iszero\n      tag_30\n      jumpi\n      0x00\n      dup1\n      revert\n    tag_30:\n      pop\n      tag_31\n      tag_32\n      jump\t// in\n    tag_31:\n      mload(0x40)\n      tag_33\n      swap2\n      swap1\n      tag_34\n      jump\t// in\n    tag_33:\n      mload(0x40)\n      dup1\n      swap2\n      sub\n      swap1\n      return\n        /* \"contracts/FundMe.sol\":1783:2123  function getPrice() public view returns (uint256) {... */\n    tag_7:\n      callvalue\n      dup1\n      iszero\n      tag_35\n      jumpi\n      0x00\n      dup1\n      revert\n    tag_35:\n      pop\n      tag_36\n      tag_37\n      jump\t// in\n    tag_36:\n      mload(0x40)\n      tag_38\n      swap2\n      swap1\n      tag_15\n      jump\t// in\n    tag_38:\n      mload(0x40)\n      dup1\n      swap2\n      sub\n      swap1\n      return\n        /* \"contracts/FundMe.sol\":1005:1474  function fund() public payable {... */\n    tag_8:\n      tag_39\n      tag_40\n      jump\t// in\n    tag_39:\n      stop\n        /* \"contracts/FundMe.sol\":761:785  address[] public funders */\n    tag_9:\n      callvalue\n      dup1\n      iszero\n      tag_41\n      jumpi\n      0x00\n      dup1\n      revert\n    tag_41:\n      pop\n      tag_42\n      0x04\n      dup1\n      calldatasize\n      sub\n      dup2\n      add\n      swap1\n      tag_43\n      swap2\n      swap1\n      tag_27\n      jump\t// in\n    tag_43:\n      tag_44\n      jump\t// in\n    tag_42:\n      mload(0x40)\n      tag_45\n      swap2\n      swap1\n      tag_34\n      jump\t// in\n    tag_45:\n      mload(0x40)\n      dup1\n      swap2\n      sub\n      swap1\n      return\n        /* \"contracts/FundMe.sol\":1544:1775  function getVersion() public view returns (uint256) {... */\n    tag_13:\n        /* \"contracts/FundMe.sol\":1587:1594  uint256 */\n      0x00\n        /* \"contracts/FundMe.sol\":1607:1638  AggregatorV3Interface priceFeed */\n      dup1\n        /* \"contracts/FundMe.sol\":1677:1719  0xD4a33860578De61DBAbDc8BFdb98FD742fA7028e */\n      0xd4a33860578de61dbabdc8bfdb98fd742fa7028e\n        /* \"contracts/FundMe.sol\":1607:1730  AggregatorV3Interface priceFeed = AggregatorV3Interface(... */\n      swap1\n      pop\n        /* \"contracts/FundMe.sol\":1748:1757  priceFeed */\n      dup1\n        /* \"contracts/FundMe.sol\":1748:1765  priceFeed.version */\n      0xffffffffffffffffffffffffffffffffffffffff\n      and\n      0x54fd4d50\n        /* \"contracts/FundMe.sol\":1748:1767  priceFeed.version() */\n      mload(0x40)\n      dup2\n      0xffffffff\n      and\n      0xe0\n      shl\n      dup2\n      mstore\n      0x04\n      add\n      0x20\n      mload(0x40)\n      dup1\n      dup4\n      sub\n      dup2\n      dup7\n      gas\n      staticcall\n      iszero\n      dup1\n      iszero\n      tag_48\n      jumpi\n      returndatasize\n      0x00\n      dup1\n      returndatacopy\n      revert(0x00, returndatasize)\n    tag_48:\n      pop\n      pop\n      pop\n      pop\n      mload(0x40)\n      returndatasize\n      not(0x1f)\n      0x1f\n      dup3\n      add\n      and\n      dup3\n      add\n      dup1\n      0x40\n      mstore\n      pop\n      dup2\n      add\n      swap1\n      tag_49\n      swap2\n      swap1\n      tag_50\n      jump\t// in\n    tag_49:\n        /* \"contracts/FundMe.sol\":1741:1767  return priceFeed.version() */\n      swap2\n      pop\n      pop\n        /* \"contracts/FundMe.sol\":1544:1775  function getVersion() public view returns (uint256) {... */\n      swap1\n      jump\t// out\n        /* \"contracts/FundMe.sol\":2907:4175  function withdraw() public payable onlyOwner {... */\n    tag_17:\n        /* \"contracts/FundMe.sol\":2713:2718  owner */\n      0x02\n      0x00\n      swap1\n      sload\n      swap1\n      0x0100\n      exp\n      swap1\n      div\n      0xffffffffffffffffffffffffffffffffffffffff\n      and\n        /* \"contracts/FundMe.sol\":2699:2718  msg.sender == owner */\n      0xffffffffffffffffffffffffffffffffffffffff\n      and\n        /* \"contracts/FundMe.sol\":2699:2709  msg.sender */\n      caller\n        /* \"contracts/FundMe.sol\":2699:2718  msg.sender == owner */\n      0xffffffffffffffffffffffffffffffffffffffff\n      and\n      eq\n        /* \"contracts/FundMe.sol\":2691:2746  require(msg.sender == owner,\"Sender is not the owner!\") */\n      tag_52\n      jumpi\n      mload(0x40)\n      0x08c379a000000000000000000000000000000000000000000000000000000000\n      dup2\n      mstore\n      0x04\n      add\n      tag_53\n      swap1\n      tag_54\n      jump\t// in\n    tag_53:\n      mload(0x40)\n      dup1\n      swap2\n      sub\n      swap1\n      revert\n    tag_52:\n        /* \"contracts/FundMe.sol\":3381:3397  bool callSuccess */\n      0x00\n        /* \"contracts/FundMe.sol\":3410:3420  msg.sender */\n      caller\n        /* \"contracts/FundMe.sol\":3402:3426  payable(msg.sender).call */\n      0xffffffffffffffffffffffffffffffffffffffff\n      and\n        /* \"contracts/FundMe.sol\":3434:3455  address(this).balance */\n      selfbalance\n        /* \"contracts/FundMe.sol\":3402:3460  payable(msg.sender).call{value: address(this).balance}(\"\") */\n      mload(0x40)\n      tag_56\n      swap1\n      tag_57\n      jump\t// in\n    tag_56:\n      0x00\n      mload(0x40)\n      dup1\n      dup4\n      sub\n      dup2\n      dup6\n      dup8\n      gas\n      call\n      swap3\n      pop\n      pop\n      pop\n      returndatasize\n      dup1\n      0x00\n      dup2\n      eq\n      tag_60\n      jumpi\n      mload(0x40)\n      swap2\n      pop\n      and(add(returndatasize, 0x3f), not(0x1f))\n      dup3\n      add\n      0x40\n      mstore\n      returndatasize\n      dup3\n      mstore\n      returndatasize\n      0x00\n      0x20\n      dup5\n      add\n      returndatacopy\n      jump(tag_59)\n    tag_60:\n      0x60\n      swap2\n      pop\n    tag_59:\n      pop\n        /* \"contracts/FundMe.sol\":3380:3460  (bool callSuccess,) = payable(msg.sender).call{value: address(this).balance}(\"\") */\n      pop\n      swap1\n      pop\n        /* \"contracts/FundMe.sol\":3479:3490  callSuccess */\n      dup1\n        /* \"contracts/FundMe.sol\":3471:3506  require(callSuccess, \"Call failed\") */\n      tag_61\n      jumpi\n      mload(0x40)\n      0x08c379a000000000000000000000000000000000000000000000000000000000\n      dup2\n      mstore\n      0x04\n      add\n      tag_62\n      swap1\n      tag_63\n      jump\t// in\n    tag_62:\n      mload(0x40)\n      dup1\n      swap2\n      sub\n      swap1\n      revert\n    tag_61:\n        /* \"contracts/FundMe.sol\":3863:3882  uint256 funderIndex */\n      0x00\n        /* \"contracts/FundMe.sol\":3844:4081  for (... */\n    tag_64:\n        /* \"contracts/FundMe.sol\":3915:3922  funders */\n      0x01\n        /* \"contracts/FundMe.sol\":3915:3929  funders.length */\n      dup1\n      sload\n      swap1\n      pop\n        /* \"contracts/FundMe.sol\":3901:3912  funderIndex */\n      dup2\n        /* \"contracts/FundMe.sol\":3901:3929  funderIndex < funders.length */\n      lt\n        /* \"contracts/FundMe.sol\":3844:4081  for (... */\n      iszero\n      tag_65\n      jumpi\n        /* \"contracts/FundMe.sol\":3984:3998  address funder */\n      0x00\n        /* \"contracts/FundMe.sol\":4001:4008  funders */\n      0x01\n        /* \"contracts/FundMe.sol\":4009:4020  funderIndex */\n      dup3\n        /* \"contracts/FundMe.sol\":4001:4021  funders[funderIndex] */\n      dup2\n      sload\n      dup2\n      lt\n      tag_67\n      jumpi\n      tag_68\n      tag_69\n      jump\t// in\n    tag_68:\n    tag_67:\n      swap1\n      0x00\n      mstore\n      keccak256(0x00, 0x20)\n      add\n      0x00\n      swap1\n      sload\n      swap1\n      0x0100\n      exp\n      swap1\n      div\n      0xffffffffffffffffffffffffffffffffffffffff\n      and\n        /* \"contracts/FundMe.sol\":3984:4021  address funder = funders[funderIndex] */\n      swap1\n      pop\n        /* \"contracts/FundMe.sol\":4068:4069  0 */\n      0x00\n        /* \"contracts/FundMe.sol\":4036:4057  addressToAmountFunded */\n      dup1\n        /* \"contracts/FundMe.sol\":4036:4065  addressToAmountFunded[funder] */\n      0x00\n        /* \"contracts/FundMe.sol\":4058:4064  funder */\n      dup4\n        /* \"contracts/FundMe.sol\":4036:4065  addressToAmountFunded[funder] */\n      0xffffffffffffffffffffffffffffffffffffffff\n      and\n      0xffffffffffffffffffffffffffffffffffffffff\n      and\n      dup2\n      mstore\n      0x20\n      add\n      swap1\n      dup2\n      mstore\n      0x20\n      add\n      0x00\n      keccak256\n        /* \"contracts/FundMe.sol\":4036:4069  addressToAmountFunded[funder] = 0 */\n      dup2\n      swap1\n      sstore\n      pop\n        /* \"contracts/FundMe.sol\":3969:4081  {... */\n      pop\n        /* \"contracts/FundMe.sol\":3944:3957  funderIndex++ */\n      dup1\n      dup1\n      0x01\n      add\n      swap2\n      pop\n      pop\n        /* \"contracts/FundMe.sol\":3844:4081  for (... */\n      jump(tag_64)\n    tag_65:\n      pop\n        /* \"contracts/FundMe.sol\":4165:4166  0 */\n      0x00\n        /* \"contracts/FundMe.sol\":4151:4167  new address[](0) */\n      0xffffffffffffffff\n      dup2\n      gt\n      iszero\n      tag_71\n      jumpi\n      tag_72\n      tag_73\n      jump\t// in\n    tag_72:\n    tag_71:\n      mload(0x40)\n      swap1\n      dup1\n      dup3\n      mstore\n      dup1\n      0x20\n      mul\n      0x20\n      add\n      dup3\n      add\n      0x40\n      mstore\n      dup1\n      iszero\n      tag_74\n      jumpi\n      dup2\n      0x20\n      add\n      0x20\n      dup3\n      mul\n      dup1\n      calldatasize\n      dup4\n      calldatacopy\n      dup1\n      dup3\n      add\n      swap2\n      pop\n      pop\n      swap1\n      pop\n    tag_74:\n      pop\n        /* \"contracts/FundMe.sol\":4141:4148  funders */\n      0x01\n        /* \"contracts/FundMe.sol\":4141:4167  funders = new address[](0) */\n      swap1\n      dup1\n      mload\n      swap1\n      0x20\n      add\n      swap1\n      tag_75\n      swap3\n      swap2\n      swap1\n      tag_76\n      jump\t// in\n    tag_75:\n      pop\n        /* \"contracts/FundMe.sol\":2952:4175  {... */\n      pop\n        /* \"contracts/FundMe.sol\":2907:4175  function withdraw() public payable onlyOwner {... */\n      jump\t// out\n        /* \"contracts/FundMe.sol\":657:713  mapping(address => uint256) public addressToAmountFunded */\n    tag_22:\n      mstore(0x20, 0x00)\n      dup1\n      0x00\n      mstore\n      keccak256(0x00, 0x40)\n      0x00\n      swap2\n      pop\n      swap1\n      pop\n      sload\n      dup2\n      jump\t// out\n        /* \"contracts/FundMe.sol\":2150:2498  function getConversionRate(uint256 ethAmount)... */\n    tag_28:\n        /* \"contracts/FundMe.sol\":2244:2251  uint256 */\n      0x00\n        /* \"contracts/FundMe.sol\":2269:2285  uint256 ethPrice */\n      dup1\n        /* \"contracts/FundMe.sol\":2288:2298  getPrice() */\n      tag_78\n        /* \"contracts/FundMe.sol\":2288:2296  getPrice */\n      tag_37\n        /* \"contracts/FundMe.sol\":2288:2298  getPrice() */\n      jump\t// in\n    tag_78:\n        /* \"contracts/FundMe.sol\":2269:2298  uint256 ethPrice = getPrice() */\n      swap1\n      pop\n        /* \"contracts/FundMe.sol\":2309:2331  uint256 ethAmountInUsd */\n      0x00\n        /* \"contracts/FundMe.sol\":2359:2378  1000000000000000000 */\n      0x0de0b6b3a7640000\n        /* \"contracts/FundMe.sol\":2346:2355  ethAmount */\n      dup5\n        /* \"contracts/FundMe.sol\":2335:2343  ethPrice */\n      dup4\n        /* \"contracts/FundMe.sol\":2335:2355  ethPrice * ethAmount */\n      tag_79\n      swap2\n      swap1\n      tag_80\n      jump\t// in\n    tag_79:\n        /* \"contracts/FundMe.sol\":2334:2378  (ethPrice * ethAmount) / 1000000000000000000 */\n      tag_81\n      swap2\n      swap1\n      tag_82\n      jump\t// in\n    tag_81:\n        /* \"contracts/FundMe.sol\":2309:2378  uint256 ethAmountInUsd = (ethPrice * ethAmount) / 1000000000000000000 */\n      swap1\n      pop\n        /* \"contracts/FundMe.sol\":2476:2490  ethAmountInUsd */\n      dup1\n        /* \"contracts/FundMe.sol\":2469:2490  return ethAmountInUsd */\n      swap3\n      pop\n      pop\n      pop\n        /* \"contracts/FundMe.sol\":2150:2498  function getConversionRate(uint256 ethAmount)... */\n      swap2\n      swap1\n      pop\n      jump\t// out\n        /* \"contracts/FundMe.sol\":848:868  address public owner */\n    tag_32:\n      0x02\n      0x00\n      swap1\n      sload\n      swap1\n      0x0100\n      exp\n      swap1\n      div\n      0xffffffffffffffffffffffffffffffffffffffff\n      and\n      dup2\n      jump\t// out\n        /* \"contracts/FundMe.sol\":1783:2123  function getPrice() public view returns (uint256) {... */\n    tag_37:\n        /* \"contracts/FundMe.sol\":1824:1831  uint256 */\n      0x00\n        /* \"contracts/FundMe.sol\":1844:1875  AggregatorV3Interface priceFeed */\n      dup1\n        /* \"contracts/FundMe.sol\":1914:1956  0xD4a33860578De61DBAbDc8BFdb98FD742fA7028e */\n      0xd4a33860578de61dbabdc8bfdb98fd742fa7028e\n        /* \"contracts/FundMe.sol\":1844:1967  AggregatorV3Interface priceFeed = AggregatorV3Interface(... */\n      swap1\n      pop\n        /* \"contracts/FundMe.sol\":1981:1994  int256 answer */\n      0x00\n        /* \"contracts/FundMe.sol\":2004:2013  priceFeed */\n      dup2\n        /* \"contracts/FundMe.sol\":2004:2029  priceFeed.latestRoundData */\n      0xffffffffffffffffffffffffffffffffffffffff\n      and\n      0xfeaf968c\n        /* \"contracts/FundMe.sol\":2004:2031  priceFeed.latestRoundData() */\n      mload(0x40)\n      dup2\n      0xffffffff\n      and\n      0xe0\n      shl\n      dup2\n      mstore\n      0x04\n      add\n      0xa0\n      mload(0x40)\n      dup1\n      dup4\n      sub\n      dup2\n      dup7\n      gas\n      staticcall\n      iszero\n      dup1\n      iszero\n      tag_85\n      jumpi\n      returndatasize\n      0x00\n      dup1\n      returndatacopy\n      revert(0x00, returndatasize)\n    tag_85:\n      pop\n      pop\n      pop\n      pop\n      mload(0x40)\n      returndatasize\n      not(0x1f)\n      0x1f\n      dup3\n      add\n      and\n      dup3\n      add\n      dup1\n      0x40\n      mstore\n      pop\n      dup2\n      add\n      swap1\n      tag_86\n      swap2\n      swap1\n      tag_87\n      jump\t// in\n    tag_86:\n        /* \"contracts/FundMe.sol\":1978:2031  (, int256 answer, , , ) = priceFeed.latestRoundData() */\n      pop\n      pop\n      pop\n      swap2\n      pop\n      pop\n        /* \"contracts/FundMe.sol\":2103:2114  10000000000 */\n      0x02540be400\n        /* \"contracts/FundMe.sol\":2094:2100  answer */\n      dup2\n        /* \"contracts/FundMe.sol\":2094:2114  answer * 10000000000 */\n      tag_88\n      swap2\n      swap1\n      tag_89\n      jump\t// in\n    tag_88:\n        /* \"contracts/FundMe.sol\":2079:2115  return uint256(answer * 10000000000) */\n      swap3\n      pop\n      pop\n      pop\n        /* \"contracts/FundMe.sol\":1783:2123  function getPrice() public view returns (uint256) {... */\n      swap1\n      jump\t// out\n        /* \"contracts/FundMe.sol\":1005:1474  function fund() public payable {... */\n    tag_40:\n        /* \"contracts/FundMe.sol\":1110:1128  uint256 minimumUSD */\n      0x00\n        /* \"contracts/FundMe.sol\":1131:1142  50 * 10**18 */\n      0x02b5e3af16b1880000\n        /* \"contracts/FundMe.sol\":1110:1142  uint256 minimumUSD = 50 * 10**18 */\n      swap1\n      pop\n        /* \"contracts/FundMe.sol\":1257:1267  minimumUSD */\n      dup1\n        /* \"contracts/FundMe.sol\":1225:1253  getConversionRate(msg.value) */\n      tag_91\n        /* \"contracts/FundMe.sol\":1243:1252  msg.value */\n      callvalue\n        /* \"contracts/FundMe.sol\":1225:1242  getConversionRate */\n      tag_28\n        /* \"contracts/FundMe.sol\":1225:1253  getConversionRate(msg.value) */\n      jump\t// in\n    tag_91:\n        /* \"contracts/FundMe.sol\":1225:1267  getConversionRate(msg.value) >= minimumUSD */\n      lt\n      iszero\n        /* \"contracts/FundMe.sol\":1203:1322  require(... */\n      tag_92\n      jumpi\n      mload(0x40)\n      0x08c379a000000000000000000000000000000000000000000000000000000000\n      dup2\n      mstore\n      0x04\n      add\n      tag_93\n      swap1\n      tag_94\n      jump\t// in\n    tag_93:\n      mload(0x40)\n      dup1\n      swap2\n      sub\n      swap1\n      revert\n    tag_92:\n        /* \"contracts/FundMe.sol\":1422:1431  msg.value */\n      callvalue\n        /* \"contracts/FundMe.sol\":1385:1406  addressToAmountFunded */\n      0x00\n        /* \"contracts/FundMe.sol\":1385:1418  addressToAmountFunded[msg.sender] */\n      dup1\n        /* \"contracts/FundMe.sol\":1407:1417  msg.sender */\n      caller\n        /* \"contracts/FundMe.sol\":1385:1418  addressToAmountFunded[msg.sender] */\n      0xffffffffffffffffffffffffffffffffffffffff\n      and\n      0xffffffffffffffffffffffffffffffffffffffff\n      and\n      dup2\n      mstore\n      0x20\n      add\n      swap1\n      dup2\n      mstore\n      0x20\n      add\n      0x00\n      keccak256\n      0x00\n        /* \"contracts/FundMe.sol\":1385:1431  addressToAmountFunded[msg.sender] += msg.value */\n      dup3\n      dup3\n      sload\n      tag_95\n      swap2\n      swap1\n      tag_96\n      jump\t// in\n    tag_95:\n      swap3\n      pop\n      pop\n      dup2\n      swap1\n      sstore\n      pop\n        /* \"contracts/FundMe.sol\":1442:1449  funders */\n      0x01\n        /* \"contracts/FundMe.sol\":1455:1465  msg.sender */\n      caller\n        /* \"contracts/FundMe.sol\":1442:1466  funders.push(msg.sender) */\n      swap1\n      dup1\n      0x01\n      dup2\n      sload\n      add\n      dup1\n      dup3\n      sstore\n      dup1\n      swap2\n      pop\n      pop\n      0x01\n      swap1\n      sub\n      swap1\n      0x00\n      mstore\n      keccak256(0x00, 0x20)\n      add\n      0x00\n      swap1\n      swap2\n      swap1\n      swap2\n      swap1\n      swap2\n      0x0100\n      exp\n      dup2\n      sload\n      dup2\n      0xffffffffffffffffffffffffffffffffffffffff\n      mul\n      not\n      and\n      swap1\n      dup4\n      0xffffffffffffffffffffffffffffffffffffffff\n      and\n      mul\n      or\n      swap1\n      sstore\n      pop\n        /* \"contracts/FundMe.sol\":1036:1474  {... */\n      pop\n        /* \"contracts/FundMe.sol\":1005:1474  function fund() public payable {... */\n      jump\t// out\n        /* \"contracts/FundMe.sol\":761:785  address[] public funders */\n    tag_44:\n      0x01\n      dup2\n      dup2\n      sload\n      dup2\n      lt\n      tag_98\n      jumpi\n      0x00\n      dup1\n      revert\n    tag_98:\n      swap1\n      0x00\n      mstore\n      keccak256(0x00, 0x20)\n      add\n      0x00\n      swap2\n      pop\n      sload\n      swap1\n      0x0100\n      exp\n      swap1\n      div\n      0xffffffffffffffffffffffffffffffffffffffff\n      and\n      dup2\n      jump\t// out\n    tag_76:\n      dup3\n      dup1\n      sload\n      dup3\n      dup3\n      sstore\n      swap1\n      0x00\n      mstore\n      keccak256(0x00, 0x20)\n      swap1\n      dup2\n      add\n      swap3\n      dup3\n      iszero\n      tag_100\n      jumpi\n      swap2\n      0x20\n      mul\n      dup3\n      add\n    tag_101:\n      dup3\n      dup2\n      gt\n      iszero\n      tag_102\n      jumpi\n      dup3\n      mload\n      dup3\n      exp(0x0100, 0x00)\n      dup2\n      sload\n      dup2\n      0xffffffffffffffffffffffffffffffffffffffff\n      mul\n      not\n      and\n      swap1\n      dup4\n      0xffffffffffffffffffffffffffffffffffffffff\n      and\n      mul\n      or\n      swap1\n      sstore\n      pop\n      swap2\n      0x20\n      add\n      swap2\n      swap1\n      0x01\n      add\n      swap1\n      jump(tag_101)\n    tag_102:\n    tag_100:\n      pop\n      swap1\n      pop\n      tag_103\n      swap2\n      swap1\n      tag_104\n      jump\t// in\n    tag_103:\n      pop\n      swap1\n      jump\t// out\n    tag_104:\n    tag_105:\n      dup1\n      dup3\n      gt\n      iszero\n      tag_106\n      jumpi\n      0x00\n      dup2\n      0x00\n      swap1\n      sstore\n      pop\n      0x01\n      add\n      jump(tag_105)\n    tag_106:\n      pop\n      swap1\n      jump\t// out\n        /* \"#utility.yul\":7:84   */\n    tag_107:\n        /* \"#utility.yul\":44:51   */\n      0x00\n        /* \"#utility.yul\":73:78   */\n      dup2\n        /* \"#utility.yul\":62:78   */\n      swap1\n      pop\n        /* \"#utility.yul\":7:84   */\n      swap2\n      swap1\n      pop\n      jump\t// out\n        /* \"#utility.yul\":90:208   */\n    tag_108:\n        /* \"#utility.yul\":177:201   */\n      tag_141\n        /* \"#utility.yul\":195:200   */\n      dup2\n        /* \"#utility.yul\":177:201   */\n      tag_107\n      jump\t// in\n    tag_141:\n        /* \"#utility.yul\":172:175   */\n      dup3\n        /* \"#utility.yul\":165:202   */\n      mstore\n        /* \"#utility.yul\":90:208   */\n      pop\n      pop\n      jump\t// out\n        /* \"#utility.yul\":214:436   */\n    tag_15:\n        /* \"#utility.yul\":307:311   */\n      0x00\n        /* \"#utility.yul\":345:347   */\n      0x20\n        /* \"#utility.yul\":334:343   */\n      dup3\n        /* \"#utility.yul\":330:348   */\n      add\n        /* \"#utility.yul\":322:348   */\n      swap1\n      pop\n        /* \"#utility.yul\":358:429   */\n      tag_143\n        /* \"#utility.yul\":426:427   */\n      0x00\n        /* \"#utility.yul\":415:424   */\n      dup4\n        /* \"#utility.yul\":411:428   */\n      add\n        /* \"#utility.yul\":402:408   */\n      dup5\n        /* \"#utility.yul\":358:429   */\n      tag_108\n      jump\t// in\n    tag_143:\n        /* \"#utility.yul\":214:436   */\n      swap3\n      swap2\n      pop\n      pop\n      jump\t// out\n        /* \"#utility.yul\":523:640   */\n    tag_110:\n        /* \"#utility.yul\":632:633   */\n      0x00\n        /* \"#utility.yul\":629:630   */\n      dup1\n        /* \"#utility.yul\":622:634   */\n      revert\n        /* \"#utility.yul\":769:895   */\n    tag_112:\n        /* \"#utility.yul\":806:813   */\n      0x00\n        /* \"#utility.yul\":846:888   */\n      0xffffffffffffffffffffffffffffffffffffffff\n        /* \"#utility.yul\":839:844   */\n      dup3\n        /* \"#utility.yul\":835:889   */\n      and\n        /* \"#utility.yul\":824:889   */\n      swap1\n      pop\n        /* \"#utility.yul\":769:895   */\n      swap2\n      swap1\n      pop\n      jump\t// out\n        /* \"#utility.yul\":901:997   */\n    tag_113:\n        /* \"#utility.yul\":938:945   */\n      0x00\n        /* \"#utility.yul\":967:991   */\n      tag_149\n        /* \"#utility.yul\":985:990   */\n      dup3\n        /* \"#utility.yul\":967:991   */\n      tag_112\n      jump\t// in\n    tag_149:\n        /* \"#utility.yul\":956:991   */\n      swap1\n      pop\n        /* \"#utility.yul\":901:997   */\n      swap2\n      swap1\n      pop\n      jump\t// out\n        /* \"#utility.yul\":1003:1125   */\n    tag_114:\n        /* \"#utility.yul\":1076:1100   */\n      tag_151\n        /* \"#utility.yul\":1094:1099   */\n      dup2\n        /* \"#utility.yul\":1076:1100   */\n      tag_113\n      jump\t// in\n    tag_151:\n        /* \"#utility.yul\":1069:1074   */\n      dup2\n        /* \"#utility.yul\":1066:1101   */\n      eq\n        /* \"#utility.yul\":1056:1119   */\n      tag_152\n      jumpi\n        /* \"#utility.yul\":1115:1116   */\n      0x00\n        /* \"#utility.yul\":1112:1113   */\n      dup1\n        /* \"#utility.yul\":1105:1117   */\n      revert\n        /* \"#utility.yul\":1056:1119   */\n    tag_152:\n        /* \"#utility.yul\":1003:1125   */\n      pop\n      jump\t// out\n        /* \"#utility.yul\":1131:1270   */\n    tag_115:\n        /* \"#utility.yul\":1177:1182   */\n      0x00\n        /* \"#utility.yul\":1215:1221   */\n      dup2\n        /* \"#utility.yul\":1202:1222   */\n      calldataload\n        /* \"#utility.yul\":1193:1222   */\n      swap1\n      pop\n        /* \"#utility.yul\":1231:1264   */\n      tag_154\n        /* \"#utility.yul\":1258:1263   */\n      dup2\n        /* \"#utility.yul\":1231:1264   */\n      tag_114\n      jump\t// in\n    tag_154:\n        /* \"#utility.yul\":1131:1270   */\n      swap3\n      swap2\n      pop\n      pop\n      jump\t// out\n        /* \"#utility.yul\":1276:1605   */\n    tag_21:\n        /* \"#utility.yul\":1335:1341   */\n      0x00\n        /* \"#utility.yul\":1384:1386   */\n      0x20\n        /* \"#utility.yul\":1372:1381   */\n      dup3\n        /* \"#utility.yul\":1363:1370   */\n      dup5\n        /* \"#utility.yul\":1359:1382   */\n      sub\n        /* \"#utility.yul\":1355:1387   */\n      slt\n        /* \"#utility.yul\":1352:1471   */\n      iszero\n      tag_156\n      jumpi\n        /* \"#utility.yul\":1390:1469   */\n      tag_157\n      tag_110\n      jump\t// in\n    tag_157:\n        /* \"#utility.yul\":1352:1471   */\n    tag_156:\n        /* \"#utility.yul\":1510:1511   */\n      0x00\n        /* \"#utility.yul\":1535:1588   */\n      tag_158\n        /* \"#utility.yul\":1580:1587   */\n      dup5\n        /* \"#utility.yul\":1571:1577   */\n      dup3\n        /* \"#utility.yul\":1560:1569   */\n      dup6\n        /* \"#utility.yul\":1556:1578   */\n      add\n        /* \"#utility.yul\":1535:1588   */\n      tag_115\n      jump\t// in\n    tag_158:\n        /* \"#utility.yul\":1525:1588   */\n      swap2\n      pop\n        /* \"#utility.yul\":1481:1598   */\n      pop\n        /* \"#utility.yul\":1276:1605   */\n      swap3\n      swap2\n      pop\n      pop\n      jump\t// out\n        /* \"#utility.yul\":1611:1733   */\n    tag_116:\n        /* \"#utility.yul\":1684:1708   */\n      tag_160\n        /* \"#utility.yul\":1702:1707   */\n      dup2\n        /* \"#utility.yul\":1684:1708   */\n      tag_107\n      jump\t// in\n    tag_160:\n        /* \"#utility.yul\":1677:1682   */\n      dup2\n        /* \"#utility.yul\":1674:1709   */\n      eq\n        /* \"#utility.yul\":1664:1727   */\n      tag_161\n      jumpi\n        /* \"#utility.yul\":1723:1724   */\n      0x00\n        /* \"#utility.yul\":1720:1721   */\n      dup1\n        /* \"#utility.yul\":1713:1725   */\n      revert\n        /* \"#utility.yul\":1664:1727   */\n    tag_161:\n        /* \"#utility.yul\":1611:1733   */\n      pop\n      jump\t// out\n        /* \"#utility.yul\":1739:1878   */\n    tag_117:\n        /* \"#utility.yul\":1785:1790   */\n      0x00\n        /* \"#utility.yul\":1823:1829   */\n      dup2\n        /* \"#utility.yul\":1810:1830   */\n      calldataload\n        /* \"#utility.yul\":1801:1830   */\n      swap1\n      pop\n        /* \"#utility.yul\":1839:1872   */\n      tag_163\n        /* \"#utility.yul\":1866:1871   */\n      dup2\n        /* \"#utility.yul\":1839:1872   */\n      tag_116\n      jump\t// in\n    tag_163:\n        /* \"#utility.yul\":1739:1878   */\n      swap3\n      swap2\n      pop\n      pop\n      jump\t// out\n        /* \"#utility.yul\":1884:2213   */\n    tag_27:\n        /* \"#utility.yul\":1943:1949   */\n      0x00\n        /* \"#utility.yul\":1992:1994   */\n      0x20\n        /* \"#utility.yul\":1980:1989   */\n      dup3\n        /* \"#utility.yul\":1971:1978   */\n      dup5\n        /* \"#utility.yul\":1967:1990   */\n      sub\n        /* \"#utility.yul\":1963:1995   */\n      slt\n        /* \"#utility.yul\":1960:2079   */\n      iszero\n      tag_165\n      jumpi\n        /* \"#utility.yul\":1998:2077   */\n      tag_166\n      tag_110\n      jump\t// in\n    tag_166:\n        /* \"#utility.yul\":1960:2079   */\n    tag_165:\n        /* \"#utility.yul\":2118:2119   */\n      0x00\n        /* \"#utility.yul\":2143:2196   */\n      tag_167\n        /* \"#utility.yul\":2188:2195   */\n      dup5\n        /* \"#utility.yul\":2179:2185   */\n      dup3\n        /* \"#utility.yul\":2168:2177   */\n      dup6\n        /* \"#utility.yul\":2164:2186   */\n      add\n        /* \"#utility.yul\":2143:2196   */\n      tag_117\n      jump\t// in\n    tag_167:\n        /* \"#utility.yul\":2133:2196   */\n      swap2\n      pop\n        /* \"#utility.yul\":2089:2206   */\n      pop\n        /* \"#utility.yul\":1884:2213   */\n      swap3\n      swap2\n      pop\n      pop\n      jump\t// out\n        /* \"#utility.yul\":2219:2337   */\n    tag_118:\n        /* \"#utility.yul\":2306:2330   */\n      tag_169\n        /* \"#utility.yul\":2324:2329   */\n      dup2\n        /* \"#utility.yul\":2306:2330   */\n      tag_113\n      jump\t// in\n    tag_169:\n        /* \"#utility.yul\":2301:2304   */\n      dup3\n        /* \"#utility.yul\":2294:2331   */\n      mstore\n        /* \"#utility.yul\":2219:2337   */\n      pop\n      pop\n      jump\t// out\n        /* \"#utility.yul\":2343:2565   */\n    tag_34:\n        /* \"#utility.yul\":2436:2440   */\n      0x00\n        /* \"#utility.yul\":2474:2476   */\n      0x20\n        /* \"#utility.yul\":2463:2472   */\n      dup3\n        /* \"#utility.yul\":2459:2477   */\n      add\n        /* \"#utility.yul\":2451:2477   */\n      swap1\n      pop\n        /* \"#utility.yul\":2487:2558   */\n      tag_171\n        /* \"#utility.yul\":2555:2556   */\n      0x00\n        /* \"#utility.yul\":2544:2553   */\n      dup4\n        /* \"#utility.yul\":2540:2557   */\n      add\n        /* \"#utility.yul\":2531:2537   */\n      dup5\n        /* \"#utility.yul\":2487:2558   */\n      tag_118\n      jump\t// in\n    tag_171:\n        /* \"#utility.yul\":2343:2565   */\n      swap3\n      swap2\n      pop\n      pop\n      jump\t// out\n        /* \"#utility.yul\":2571:2714   */\n    tag_119:\n        /* \"#utility.yul\":2628:2633   */\n      0x00\n        /* \"#utility.yul\":2659:2665   */\n      dup2\n        /* \"#utility.yul\":2653:2666   */\n      mload\n        /* \"#utility.yul\":2644:2666   */\n      swap1\n      pop\n        /* \"#utility.yul\":2675:2708   */\n      tag_173\n        /* \"#utility.yul\":2702:2707   */\n      dup2\n        /* \"#utility.yul\":2675:2708   */\n      tag_116\n      jump\t// in\n    tag_173:\n        /* \"#utility.yul\":2571:2714   */\n      swap3\n      swap2\n      pop\n      pop\n      jump\t// out\n        /* \"#utility.yul\":2720:3071   */\n    tag_50:\n        /* \"#utility.yul\":2790:2796   */\n      0x00\n        /* \"#utility.yul\":2839:2841   */\n      0x20\n        /* \"#utility.yul\":2827:2836   */\n      dup3\n        /* \"#utility.yul\":2818:2825   */\n      dup5\n        /* \"#utility.yul\":2814:2837   */\n      sub\n        /* \"#utility.yul\":2810:2842   */\n      slt\n        /* \"#utility.yul\":2807:2926   */\n      iszero\n      tag_175\n      jumpi\n        /* \"#utility.yul\":2845:2924   */\n      tag_176\n      tag_110\n      jump\t// in\n    tag_176:\n        /* \"#utility.yul\":2807:2926   */\n    tag_175:\n        /* \"#utility.yul\":2965:2966   */\n      0x00\n        /* \"#utility.yul\":2990:3054   */\n      tag_177\n        /* \"#utility.yul\":3046:3053   */\n      dup5\n        /* \"#utility.yul\":3037:3043   */\n      dup3\n        /* \"#utility.yul\":3026:3035   */\n      dup6\n        /* \"#utility.yul\":3022:3044   */\n      add\n        /* \"#utility.yul\":2990:3054   */\n      tag_119\n      jump\t// in\n    tag_177:\n        /* \"#utility.yul\":2980:3054   */\n      swap2\n      pop\n        /* \"#utility.yul\":2936:3064   */\n      pop\n        /* \"#utility.yul\":2720:3071   */\n      swap3\n      swap2\n      pop\n      pop\n      jump\t// out\n        /* \"#utility.yul\":3077:3246   */\n    tag_120:\n        /* \"#utility.yul\":3161:3172   */\n      0x00\n        /* \"#utility.yul\":3195:3201   */\n      dup3\n        /* \"#utility.yul\":3190:3193   */\n      dup3\n        /* \"#utility.yul\":3183:3202   */\n      mstore\n        /* \"#utility.yul\":3235:3239   */\n      0x20\n        /* \"#utility.yul\":3230:3233   */\n      dup3\n        /* \"#utility.yul\":3226:3240   */\n      add\n        /* \"#utility.yul\":3211:3240   */\n      swap1\n      pop\n        /* \"#utility.yul\":3077:3246   */\n      swap3\n      swap2\n      pop\n      pop\n      jump\t// out\n        /* \"#utility.yul\":3252:3426   */\n    tag_121:\n        /* \"#utility.yul\":3392:3418   */\n      0x53656e646572206973206e6f7420746865206f776e6572210000000000000000\n        /* \"#utility.yul\":3388:3389   */\n      0x00\n        /* \"#utility.yul\":3380:3386   */\n      dup3\n        /* \"#utility.yul\":3376:3390   */\n      add\n        /* \"#utility.yul\":3369:3419   */\n      mstore\n        /* \"#utility.yul\":3252:3426   */\n      pop\n      jump\t// out\n        /* \"#utility.yul\":3432:3798   */\n    tag_122:\n        /* \"#utility.yul\":3574:3577   */\n      0x00\n        /* \"#utility.yul\":3595:3662   */\n      tag_181\n        /* \"#utility.yul\":3659:3661   */\n      0x18\n        /* \"#utility.yul\":3654:3657   */\n      dup4\n        /* \"#utility.yul\":3595:3662   */\n      tag_120\n      jump\t// in\n    tag_181:\n        /* \"#utility.yul\":3588:3662   */\n      swap2\n      pop\n        /* \"#utility.yul\":3671:3764   */\n      tag_182\n        /* \"#utility.yul\":3760:3763   */\n      dup3\n        /* \"#utility.yul\":3671:3764   */\n      tag_121\n      jump\t// in\n    tag_182:\n        /* \"#utility.yul\":3789:3791   */\n      0x20\n        /* \"#utility.yul\":3784:3787   */\n      dup3\n        /* \"#utility.yul\":3780:3792   */\n      add\n        /* \"#utility.yul\":3773:3792   */\n      swap1\n      pop\n        /* \"#utility.yul\":3432:3798   */\n      swap2\n      swap1\n      pop\n      jump\t// out\n        /* \"#utility.yul\":3804:4223   */\n    tag_54:\n        /* \"#utility.yul\":3970:3974   */\n      0x00\n        /* \"#utility.yul\":4008:4010   */\n      0x20\n        /* \"#utility.yul\":3997:4006   */\n      dup3\n        /* \"#utility.yul\":3993:4011   */\n      add\n        /* \"#utility.yul\":3985:4011   */\n      swap1\n      pop\n        /* \"#utility.yul\":4057:4066   */\n      dup2\n        /* \"#utility.yul\":4051:4055   */\n      dup2\n        /* \"#utility.yul\":4047:4067   */\n      sub\n        /* \"#utility.yul\":4043:4044   */\n      0x00\n        /* \"#utility.yul\":4032:4041   */\n      dup4\n        /* \"#utility.yul\":4028:4045   */\n      add\n        /* \"#utility.yul\":4021:4068   */\n      mstore\n        /* \"#utility.yul\":4085:4216   */\n      tag_184\n        /* \"#utility.yul\":4211:4215   */\n      dup2\n        /* \"#utility.yul\":4085:4216   */\n      tag_122\n      jump\t// in\n    tag_184:\n        /* \"#utility.yul\":4077:4216   */\n      swap1\n      pop\n        /* \"#utility.yul\":3804:4223   */\n      swap2\n      swap1\n      pop\n      jump\t// out\n        /* \"#utility.yul\":4229:4376   */\n    tag_123:\n        /* \"#utility.yul\":4330:4341   */\n      0x00\n        /* \"#utility.yul\":4367:4370   */\n      dup2\n        /* \"#utility.yul\":4352:4370   */\n      swap1\n      pop\n        /* \"#utility.yul\":4229:4376   */\n      swap3\n      swap2\n      pop\n      pop\n      jump\t// out\n        /* \"#utility.yul\":4382:4496   */\n    tag_124:\n      pop\n      jump\t// out\n        /* \"#utility.yul\":4502:4900   */\n    tag_125:\n        /* \"#utility.yul\":4661:4664   */\n      0x00\n        /* \"#utility.yul\":4682:4765   */\n      tag_188\n        /* \"#utility.yul\":4763:4764   */\n      0x00\n        /* \"#utility.yul\":4758:4761   */\n      dup4\n        /* \"#utility.yul\":4682:4765   */\n      tag_123\n      jump\t// in\n    tag_188:\n        /* \"#utility.yul\":4675:4765   */\n      swap2\n      pop\n        /* \"#utility.yul\":4774:4867   */\n      tag_189\n        /* \"#utility.yul\":4863:4866   */\n      dup3\n        /* \"#utility.yul\":4774:4867   */\n      tag_124\n      jump\t// in\n    tag_189:\n        /* \"#utility.yul\":4892:4893   */\n      0x00\n        /* \"#utility.yul\":4887:4890   */\n      dup3\n        /* \"#utility.yul\":4883:4894   */\n      add\n        /* \"#utility.yul\":4876:4894   */\n      swap1\n      pop\n        /* \"#utility.yul\":4502:4900   */\n      swap2\n      swap1\n      pop\n      jump\t// out\n        /* \"#utility.yul\":4906:5285   */\n    tag_57:\n        /* \"#utility.yul\":5090:5093   */\n      0x00\n        /* \"#utility.yul\":5112:5259   */\n      tag_191\n        /* \"#utility.yul\":5255:5258   */\n      dup3\n        /* \"#utility.yul\":5112:5259   */\n      tag_125\n      jump\t// in\n    tag_191:\n        /* \"#utility.yul\":5105:5259   */\n      swap2\n      pop\n        /* \"#utility.yul\":5276:5279   */\n      dup2\n        /* \"#utility.yul\":5269:5279   */\n      swap1\n      pop\n        /* \"#utility.yul\":4906:5285   */\n      swap2\n      swap1\n      pop\n      jump\t// out\n        /* \"#utility.yul\":5291:5452   */\n    tag_126:\n        /* \"#utility.yul\":5431:5444   */\n      0x43616c6c206661696c6564000000000000000000000000000000000000000000\n        /* \"#utility.yul\":5427:5428   */\n      0x00\n        /* \"#utility.yul\":5419:5425   */\n      dup3\n        /* \"#utility.yul\":5415:5429   */\n      add\n        /* \"#utility.yul\":5408:5445   */\n      mstore\n        /* \"#utility.yul\":5291:5452   */\n      pop\n      jump\t// out\n        /* \"#utility.yul\":5458:5824   */\n    tag_127:\n        /* \"#utility.yul\":5600:5603   */\n      0x00\n        /* \"#utility.yul\":5621:5688   */\n      tag_194\n        /* \"#utility.yul\":5685:5687   */\n      0x0b\n        /* \"#utility.yul\":5680:5683   */\n      dup4\n        /* \"#utility.yul\":5621:5688   */\n      tag_120\n      jump\t// in\n    tag_194:\n        /* \"#utility.yul\":5614:5688   */\n      swap2\n      pop\n        /* \"#utility.yul\":5697:5790   */\n      tag_195\n        /* \"#utility.yul\":5786:5789   */\n      dup3\n        /* \"#utility.yul\":5697:5790   */\n      tag_126\n      jump\t// in\n    tag_195:\n        /* \"#utility.yul\":5815:5817   */\n      0x20\n        /* \"#utility.yul\":5810:5813   */\n      dup3\n        /* \"#utility.yul\":5806:5818   */\n      add\n        /* \"#utility.yul\":5799:5818   */\n      swap1\n      pop\n        /* \"#utility.yul\":5458:5824   */\n      swap2\n      swap1\n      pop\n      jump\t// out\n        /* \"#utility.yul\":5830:6249   */\n    tag_63:\n        /* \"#utility.yul\":5996:6000   */\n      0x00\n        /* \"#utility.yul\":6034:6036   */\n      0x20\n        /* \"#utility.yul\":6023:6032   */\n      dup3\n        /* \"#utility.yul\":6019:6037   */\n      add\n        /* \"#utility.yul\":6011:6037   */\n      swap1\n      pop\n        /* \"#utility.yul\":6083:6092   */\n      dup2\n        /* \"#utility.yul\":6077:6081   */\n      dup2\n        /* \"#utility.yul\":6073:6093   */\n      sub\n        /* \"#utility.yul\":6069:6070   */\n      0x00\n        /* \"#utility.yul\":6058:6067   */\n      dup4\n        /* \"#utility.yul\":6054:6071   */\n      add\n        /* \"#utility.yul\":6047:6094   */\n      mstore\n        /* \"#utility.yul\":6111:6242   */\n      tag_197\n        /* \"#utility.yul\":6237:6241   */\n      dup2\n        /* \"#utility.yul\":6111:6242   */\n      tag_127\n      jump\t// in\n    tag_197:\n        /* \"#utility.yul\":6103:6242   */\n      swap1\n      pop\n        /* \"#utility.yul\":5830:6249   */\n      swap2\n      swap1\n      pop\n      jump\t// out\n        /* \"#utility.yul\":6255:6435   */\n    tag_69:\n        /* \"#utility.yul\":6303:6380   */\n      0x4e487b7100000000000000000000000000000000000000000000000000000000\n        /* \"#utility.yul\":6300:6301   */\n      0x00\n        /* \"#utility.yul\":6293:6381   */\n      mstore\n        /* \"#utility.yul\":6400:6404   */\n      0x32\n        /* \"#utility.yul\":6397:6398   */\n      0x04\n        /* \"#utility.yul\":6390:6405   */\n      mstore\n        /* \"#utility.yul\":6424:6428   */\n      0x24\n        /* \"#utility.yul\":6421:6422   */\n      0x00\n        /* \"#utility.yul\":6414:6429   */\n      revert\n        /* \"#utility.yul\":6441:6621   */\n    tag_73:\n        /* \"#utility.yul\":6489:6566   */\n      0x4e487b7100000000000000000000000000000000000000000000000000000000\n        /* \"#utility.yul\":6486:6487   */\n      0x00\n        /* \"#utility.yul\":6479:6567   */\n      mstore\n        /* \"#utility.yul\":6586:6590   */\n      0x41\n        /* \"#utility.yul\":6583:6584   */\n      0x04\n        /* \"#utility.yul\":6576:6591   */\n      mstore\n        /* \"#utility.yul\":6610:6614   */\n      0x24\n        /* \"#utility.yul\":6607:6608   */\n      0x00\n        /* \"#utility.yul\":6600:6615   */\n      revert\n        /* \"#utility.yul\":6627:6807   */\n    tag_128:\n        /* \"#utility.yul\":6675:6752   */\n      0x4e487b7100000000000000000000000000000000000000000000000000000000\n        /* \"#utility.yul\":6672:6673   */\n      0x00\n        /* \"#utility.yul\":6665:6753   */\n      mstore\n        /* \"#utility.yul\":6772:6776   */\n      0x11\n        /* \"#utility.yul\":6769:6770   */\n      0x04\n        /* \"#utility.yul\":6762:6777   */\n      mstore\n        /* \"#utility.yul\":6796:6800   */\n      0x24\n        /* \"#utility.yul\":6793:6794   */\n      0x00\n        /* \"#utility.yul\":6786:6801   */\n      revert\n        /* \"#utility.yul\":6813:7223   */\n    tag_80:\n        /* \"#utility.yul\":6853:6860   */\n      0x00\n        /* \"#utility.yul\":6876:6896   */\n      tag_202\n        /* \"#utility.yul\":6894:6895   */\n      dup3\n        /* \"#utility.yul\":6876:6896   */\n      tag_107\n      jump\t// in\n    tag_202:\n        /* \"#utility.yul\":6871:6896   */\n      swap2\n      pop\n        /* \"#utility.yul\":6910:6930   */\n      tag_203\n        /* \"#utility.yul\":6928:6929   */\n      dup4\n        /* \"#utility.yul\":6910:6930   */\n      tag_107\n      jump\t// in\n    tag_203:\n        /* \"#utility.yul\":6905:6930   */\n      swap3\n      pop\n        /* \"#utility.yul\":6965:6966   */\n      dup3\n        /* \"#utility.yul\":6962:6963   */\n      dup3\n        /* \"#utility.yul\":6958:6967   */\n      mul\n        /* \"#utility.yul\":6987:7017   */\n      tag_204\n        /* \"#utility.yul\":7005:7016   */\n      dup2\n        /* \"#utility.yul\":6987:7017   */\n      tag_107\n      jump\t// in\n    tag_204:\n        /* \"#utility.yul\":6976:7017   */\n      swap2\n      pop\n        /* \"#utility.yul\":7166:7167   */\n      dup3\n        /* \"#utility.yul\":7157:7164   */\n      dup3\n        /* \"#utility.yul\":7153:7168   */\n      div\n        /* \"#utility.yul\":7150:7151   */\n      dup5\n        /* \"#utility.yul\":7147:7169   */\n      eq\n        /* \"#utility.yul\":7127:7128   */\n      dup4\n        /* \"#utility.yul\":7120:7129   */\n      iszero\n        /* \"#utility.yul\":7100:7183   */\n      or\n        /* \"#utility.yul\":7077:7216   */\n      tag_205\n      jumpi\n        /* \"#utility.yul\":7196:7214   */\n      tag_206\n      tag_128\n      jump\t// in\n    tag_206:\n        /* \"#utility.yul\":7077:7216   */\n    tag_205:\n        /* \"#utility.yul\":6861:7223   */\n      pop\n        /* \"#utility.yul\":6813:7223   */\n      swap3\n      swap2\n      pop\n      pop\n      jump\t// out\n        /* \"#utility.yul\":7229:7409   */\n    tag_129:\n        /* \"#utility.yul\":7277:7354   */\n      0x4e487b7100000000000000000000000000000000000000000000000000000000\n        /* \"#utility.yul\":7274:7275   */\n      0x00\n        /* \"#utility.yul\":7267:7355   */\n      mstore\n        /* \"#utility.yul\":7374:7378   */\n      0x12\n        /* \"#utility.yul\":7371:7372   */\n      0x04\n        /* \"#utility.yul\":7364:7379   */\n      mstore\n        /* \"#utility.yul\":7398:7402   */\n      0x24\n        /* \"#utility.yul\":7395:7396   */\n      0x00\n        /* \"#utility.yul\":7388:7403   */\n      revert\n        /* \"#utility.yul\":7415:7600   */\n    tag_82:\n        /* \"#utility.yul\":7455:7456   */\n      0x00\n        /* \"#utility.yul\":7472:7492   */\n      tag_209\n        /* \"#utility.yul\":7490:7491   */\n      dup3\n        /* \"#utility.yul\":7472:7492   */\n      tag_107\n      jump\t// in\n    tag_209:\n        /* \"#utility.yul\":7467:7492   */\n      swap2\n      pop\n        /* \"#utility.yul\":7506:7526   */\n      tag_210\n        /* \"#utility.yul\":7524:7525   */\n      dup4\n        /* \"#utility.yul\":7506:7526   */\n      tag_107\n      jump\t// in\n    tag_210:\n        /* \"#utility.yul\":7501:7526   */\n      swap3\n      pop\n        /* \"#utility.yul\":7545:7546   */\n      dup3\n        /* \"#utility.yul\":7535:7570   */\n      tag_211\n      jumpi\n        /* \"#utility.yul\":7550:7568   */\n      tag_212\n      tag_129\n      jump\t// in\n    tag_212:\n        /* \"#utility.yul\":7535:7570   */\n    tag_211:\n        /* \"#utility.yul\":7592:7593   */\n      dup3\n        /* \"#utility.yul\":7589:7590   */\n      dup3\n        /* \"#utility.yul\":7585:7594   */\n      div\n        /* \"#utility.yul\":7580:7594   */\n      swap1\n      pop\n        /* \"#utility.yul\":7415:7600   */\n      swap3\n      swap2\n      pop\n      pop\n      jump\t// out\n        /* \"#utility.yul\":7606:7711   */\n    tag_130:\n        /* \"#utility.yul\":7642:7649   */\n      0x00\n        /* \"#utility.yul\":7682:7704   */\n      0xffffffffffffffffffff\n        /* \"#utility.yul\":7675:7680   */\n      dup3\n        /* \"#utility.yul\":7671:7705   */\n      and\n        /* \"#utility.yul\":7660:7705   */\n      swap1\n      pop\n        /* \"#utility.yul\":7606:7711   */\n      swap2\n      swap1\n      pop\n      jump\t// out\n        /* \"#utility.yul\":7717:7837   */\n    tag_131:\n        /* \"#utility.yul\":7789:7812   */\n      tag_215\n        /* \"#utility.yul\":7806:7811   */\n      dup2\n        /* \"#utility.yul\":7789:7812   */\n      tag_130\n      jump\t// in\n    tag_215:\n        /* \"#utility.yul\":7782:7787   */\n      dup2\n        /* \"#utility.yul\":7779:7813   */\n      eq\n        /* \"#utility.yul\":7769:7831   */\n      tag_216\n      jumpi\n        /* \"#utility.yul\":7827:7828   */\n      0x00\n        /* \"#utility.yul\":7824:7825   */\n      dup1\n        /* \"#utility.yul\":7817:7829   */\n      revert\n        /* \"#utility.yul\":7769:7831   */\n    tag_216:\n        /* \"#utility.yul\":7717:7837   */\n      pop\n      jump\t// out\n        /* \"#utility.yul\":7843:7984   */\n    tag_132:\n        /* \"#utility.yul\":7899:7904   */\n      0x00\n        /* \"#utility.yul\":7930:7936   */\n      dup2\n        /* \"#utility.yul\":7924:7937   */\n      mload\n        /* \"#utility.yul\":7915:7937   */\n      swap1\n      pop\n        /* \"#utility.yul\":7946:7978   */\n      tag_218\n        /* \"#utility.yul\":7972:7977   */\n      dup2\n        /* \"#utility.yul\":7946:7978   */\n      tag_131\n      jump\t// in\n    tag_218:\n        /* \"#utility.yul\":7843:7984   */\n      swap3\n      swap2\n      pop\n      pop\n      jump\t// out\n        /* \"#utility.yul\":7990:8066   */\n    tag_133:\n        /* \"#utility.yul\":8026:8033   */\n      0x00\n        /* \"#utility.yul\":8055:8060   */\n      dup2\n        /* \"#utility.yul\":8044:8060   */\n      swap1\n      pop\n        /* \"#utility.yul\":7990:8066   */\n      swap2\n      swap1\n      pop\n      jump\t// out\n        /* \"#utility.yul\":8072:8192   */\n    tag_134:\n        /* \"#utility.yul\":8144:8167   */\n      tag_221\n        /* \"#utility.yul\":8161:8166   */\n      dup2\n        /* \"#utility.yul\":8144:8167   */\n      tag_133\n      jump\t// in\n    tag_221:\n        /* \"#utility.yul\":8137:8142   */\n      dup2\n        /* \"#utility.yul\":8134:8168   */\n      eq\n        /* \"#utility.yul\":8124:8186   */\n      tag_222\n      jumpi\n        /* \"#utility.yul\":8182:8183   */\n      0x00\n        /* \"#utility.yul\":8179:8180   */\n      dup1\n        /* \"#utility.yul\":8172:8184   */\n      revert\n        /* \"#utility.yul\":8124:8186   */\n    tag_222:\n        /* \"#utility.yul\":8072:8192   */\n      pop\n      jump\t// out\n        /* \"#utility.yul\":8198:8339   */\n    tag_135:\n        /* \"#utility.yul\":8254:8259   */\n      0x00\n        /* \"#utility.yul\":8285:8291   */\n      dup2\n        /* \"#utility.yul\":8279:8292   */\n      mload\n        /* \"#utility.yul\":8270:8292   */\n      swap1\n      pop\n        /* \"#utility.yul\":8301:8333   */\n      tag_224\n        /* \"#utility.yul\":8327:8332   */\n      dup2\n        /* \"#utility.yul\":8301:8333   */\n      tag_134\n      jump\t// in\n    tag_224:\n        /* \"#utility.yul\":8198:8339   */\n      swap3\n      swap2\n      pop\n      pop\n      jump\t// out\n        /* \"#utility.yul\":8345:9316   */\n    tag_87:\n        /* \"#utility.yul\":8448:8454   */\n      0x00\n        /* \"#utility.yul\":8456:8462   */\n      dup1\n        /* \"#utility.yul\":8464:8470   */\n      0x00\n        /* \"#utility.yul\":8472:8478   */\n      dup1\n        /* \"#utility.yul\":8480:8486   */\n      0x00\n        /* \"#utility.yul\":8529:8532   */\n      0xa0\n        /* \"#utility.yul\":8517:8526   */\n      dup7\n        /* \"#utility.yul\":8508:8515   */\n      dup9\n        /* \"#utility.yul\":8504:8527   */\n      sub\n        /* \"#utility.yul\":8500:8533   */\n      slt\n        /* \"#utility.yul\":8497:8617   */\n      iszero\n      tag_226\n      jumpi\n        /* \"#utility.yul\":8536:8615   */\n      tag_227\n      tag_110\n      jump\t// in\n    tag_227:\n        /* \"#utility.yul\":8497:8617   */\n    tag_226:\n        /* \"#utility.yul\":8656:8657   */\n      0x00\n        /* \"#utility.yul\":8681:8744   */\n      tag_228\n        /* \"#utility.yul\":8736:8743   */\n      dup9\n        /* \"#utility.yul\":8727:8733   */\n      dup3\n        /* \"#utility.yul\":8716:8725   */\n      dup10\n        /* \"#utility.yul\":8712:8734   */\n      add\n        /* \"#utility.yul\":8681:8744   */\n      tag_132\n      jump\t// in\n    tag_228:\n        /* \"#utility.yul\":8671:8744   */\n      swap6\n      pop\n        /* \"#utility.yul\":8627:8754   */\n      pop\n        /* \"#utility.yul\":8793:8795   */\n      0x20\n        /* \"#utility.yul\":8819:8882   */\n      tag_229\n        /* \"#utility.yul\":8874:8881   */\n      dup9\n        /* \"#utility.yul\":8865:8871   */\n      dup3\n        /* \"#utility.yul\":8854:8863   */\n      dup10\n        /* \"#utility.yul\":8850:8872   */\n      add\n        /* \"#utility.yul\":8819:8882   */\n      tag_135\n      jump\t// in\n    tag_229:\n        /* \"#utility.yul\":8809:8882   */\n      swap5\n      pop\n        /* \"#utility.yul\":8764:8892   */\n      pop\n        /* \"#utility.yul\":8931:8933   */\n      0x40\n        /* \"#utility.yul\":8957:9021   */\n      tag_230\n        /* \"#utility.yul\":9013:9020   */\n      dup9\n        /* \"#utility.yul\":9004:9010   */\n      dup3\n        /* \"#utility.yul\":8993:9002   */\n      dup10\n        /* \"#utility.yul\":8989:9011   */\n      add\n        /* \"#utility.yul\":8957:9021   */\n      tag_119\n      jump\t// in\n    tag_230:\n        /* \"#utility.yul\":8947:9021   */\n      swap4\n      pop\n        /* \"#utility.yul\":8902:9031   */\n      pop\n        /* \"#utility.yul\":9070:9072   */\n      0x60\n        /* \"#utility.yul\":9096:9160   */\n      tag_231\n        /* \"#utility.yul\":9152:9159   */\n      dup9\n        /* \"#utility.yul\":9143:9149   */\n      dup3\n        /* \"#utility.yul\":9132:9141   */\n      dup10\n        /* \"#utility.yul\":9128:9150   */\n      add\n        /* \"#utility.yul\":9096:9160   */\n      tag_119\n      jump\t// in\n    tag_231:\n        /* \"#utility.yul\":9086:9160   */\n      swap3\n      pop\n        /* \"#utility.yul\":9041:9170   */\n      pop\n        /* \"#utility.yul\":9209:9212   */\n      0x80\n        /* \"#utility.yul\":9236:9299   */\n      tag_232\n        /* \"#utility.yul\":9291:9298   */\n      dup9\n        /* \"#utility.yul\":9282:9288   */\n      dup3\n        /* \"#utility.yul\":9271:9280   */\n      dup10\n        /* \"#utility.yul\":9267:9289   */\n      add\n        /* \"#utility.yul\":9236:9299   */\n      tag_132\n      jump\t// in\n    tag_232:\n        /* \"#utility.yul\":9226:9299   */\n      swap2\n      pop\n        /* \"#utility.yul\":9180:9309   */\n      pop\n        /* \"#utility.yul\":8345:9316   */\n      swap3\n      swap6\n      pop\n      swap3\n      swap6\n      swap1\n      swap4\n      pop\n      jump\t// out\n        /* \"#utility.yul\":9322:9878   */\n    tag_89:\n        /* \"#utility.yul\":9361:9368   */\n      0x00\n        /* \"#utility.yul\":9384:9403   */\n      tag_234\n        /* \"#utility.yul\":9401:9402   */\n      dup3\n        /* \"#utility.yul\":9384:9403   */\n      tag_133\n      jump\t// in\n    tag_234:\n        /* \"#utility.yul\":9379:9403   */\n      swap2\n      pop\n        /* \"#utility.yul\":9417:9436   */\n      tag_235\n        /* \"#utility.yul\":9434:9435   */\n      dup4\n        /* \"#utility.yul\":9417:9436   */\n      tag_133\n      jump\t// in\n    tag_235:\n        /* \"#utility.yul\":9412:9436   */\n      swap3\n      pop\n        /* \"#utility.yul\":9471:9472   */\n      dup3\n        /* \"#utility.yul\":9468:9469   */\n      dup3\n        /* \"#utility.yul\":9464:9473   */\n      mul\n        /* \"#utility.yul\":9493:9522   */\n      tag_236\n        /* \"#utility.yul\":9510:9521   */\n      dup2\n        /* \"#utility.yul\":9493:9522   */\n      tag_133\n      jump\t// in\n    tag_236:\n        /* \"#utility.yul\":9482:9522   */\n      swap2\n      pop\n        /* \"#utility.yul\":9580:9646   */\n      0x8000000000000000000000000000000000000000000000000000000000000000\n        /* \"#utility.yul\":9577:9578   */\n      dup5\n        /* \"#utility.yul\":9574:9647   */\n      eq\n        /* \"#utility.yul\":9570:9571   */\n      0x00\n        /* \"#utility.yul\":9567:9568   */\n      dup5\n        /* \"#utility.yul\":9563:9572   */\n      slt\n        /* \"#utility.yul\":9559:9648   */\n      and\n        /* \"#utility.yul\":9556:9671   */\n      iszero\n      tag_237\n      jumpi\n        /* \"#utility.yul\":9651:9669   */\n      tag_238\n      tag_128\n      jump\t// in\n    tag_238:\n        /* \"#utility.yul\":9556:9671   */\n    tag_237:\n        /* \"#utility.yul\":9821:9822   */\n      dup3\n        /* \"#utility.yul\":9812:9819   */\n      dup3\n        /* \"#utility.yul\":9807:9823   */\n      sdiv\n        /* \"#utility.yul\":9804:9805   */\n      dup5\n        /* \"#utility.yul\":9801:9824   */\n      eq\n        /* \"#utility.yul\":9781:9782   */\n      dup4\n        /* \"#utility.yul\":9774:9783   */\n      iszero\n        /* \"#utility.yul\":9754:9838   */\n      or\n        /* \"#utility.yul\":9731:9871   */\n      tag_239\n      jumpi\n        /* \"#utility.yul\":9851:9869   */\n      tag_240\n      tag_128\n      jump\t// in\n    tag_240:\n        /* \"#utility.yul\":9731:9871   */\n    tag_239:\n        /* \"#utility.yul\":9369:9878   */\n      pop\n        /* \"#utility.yul\":9322:9878   */\n      swap3\n      swap2\n      pop\n      pop\n      jump\t// out\n        /* \"#utility.yul\":9884:10061   */\n    tag_136:\n        /* \"#utility.yul\":10024:10053   */\n      0x596f75206e65656420746f207370656e64206d6f726520455448210000000000\n        /* \"#utility.yul\":10020:10021   */\n      0x00\n        /* \"#utility.yul\":10012:10018   */\n      dup3\n        /* \"#utility.yul\":10008:10022   */\n      add\n        /* \"#utility.yul\":10001:10054   */\n      mstore\n        /* \"#utility.yul\":9884:10061   */\n      pop\n      jump\t// out\n        /* \"#utility.yul\":10067:10433   */\n    tag_137:\n        /* \"#utility.yul\":10209:10212   */\n      0x00\n        /* \"#utility.yul\":10230:10297   */\n      tag_243\n        /* \"#utility.yul\":10294:10296   */\n      0x1b\n        /* \"#utility.yul\":10289:10292   */\n      dup4\n        /* \"#utility.yul\":10230:10297   */\n      tag_120\n      jump\t// in\n    tag_243:\n        /* \"#utility.yul\":10223:10297   */\n      swap2\n      pop\n        /* \"#utility.yul\":10306:10399   */\n      tag_244\n        /* \"#utility.yul\":10395:10398   */\n      dup3\n        /* \"#utility.yul\":10306:10399   */\n      tag_136\n      jump\t// in\n    tag_244:\n        /* \"#utility.yul\":10424:10426   */\n      0x20\n        /* \"#utility.yul\":10419:10422   */\n      dup3\n        /* \"#utility.yul\":10415:10427   */\n      add\n        /* \"#utility.yul\":10408:10427   */\n      swap1\n      pop\n        /* \"#utility.yul\":10067:10433   */\n      swap2\n      swap1\n      pop\n      jump\t// out\n        /* \"#utility.yul\":10439:10858   */\n    tag_94:\n        /* \"#utility.yul\":10605:10609   */\n      0x00\n        /* \"#utility.yul\":10643:10645   */\n      0x20\n        /* \"#utility.yul\":10632:10641   */\n      dup3\n        /* \"#utility.yul\":10628:10646   */\n      add\n        /* \"#utility.yul\":10620:10646   */\n      swap1\n      pop\n        /* \"#utility.yul\":10692:10701   */\n      dup2\n        /* \"#utility.yul\":10686:10690   */\n      dup2\n        /* \"#utility.yul\":10682:10702   */\n      sub\n        /* \"#utility.yul\":10678:10679   */\n      0x00\n        /* \"#utility.yul\":10667:10676   */\n      dup4\n        /* \"#utility.yul\":10663:10680   */\n      add\n        /* \"#utility.yul\":10656:10703   */\n      mstore\n        /* \"#utility.yul\":10720:10851   */\n      tag_246\n        /* \"#utility.yul\":10846:10850   */\n      dup2\n        /* \"#utility.yul\":10720:10851   */\n      tag_137\n      jump\t// in\n    tag_246:\n        /* \"#utility.yul\":10712:10851   */\n      swap1\n      pop\n        /* \"#utility.yul\":10439:10858   */\n      swap2\n      swap1\n      pop\n      jump\t// out\n        /* \"#utility.yul\":10864:11055   */\n    tag_96:\n        /* \"#utility.yul\":10904:10907   */\n      0x00\n        /* \"#utility.yul\":10923:10943   */\n      tag_248\n        /* \"#utility.yul\":10941:10942   */\n      dup3\n        /* \"#utility.yul\":10923:10943   */\n      tag_107\n      jump\t// in\n    tag_248:\n        /* \"#utility.yul\":10918:10943   */\n      swap2\n      pop\n        /* \"#utility.yul\":10957:10977   */\n      tag_249\n        /* \"#utility.yul\":10975:10976   */\n      dup4\n        /* \"#utility.yul\":10957:10977   */\n      tag_107\n      jump\t// in\n    tag_249:\n        /* \"#utility.yul\":10952:10977   */\n      swap3\n      pop\n        /* \"#utility.yul\":11000:11001   */\n      dup3\n        /* \"#utility.yul\":10997:10998   */\n      dup3\n        /* \"#utility.yul\":10993:11002   */\n      add\n        /* \"#utility.yul\":10986:11002   */\n      swap1\n      pop\n        /* \"#utility.yul\":11021:11024   */\n      dup1\n        /* \"#utility.yul\":11018:11019   */\n      dup3\n        /* \"#utility.yul\":11015:11025   */\n      gt\n        /* \"#utility.yul\":11012:11048   */\n      iszero\n      tag_250\n      jumpi\n        /* \"#utility.yul\":11028:11046   */\n      tag_251\n      tag_128\n      jump\t// in\n    tag_251:\n        /* \"#utility.yul\":11012:11048   */\n    tag_250:\n        /* \"#utility.yul\":10864:11055   */\n      swap3\n      swap2\n      pop\n      pop\n      jump\t// out\n\n    auxdata: 0xa26469706673582212201b29efb45d725ca2a441a55a717eafd82411c4043c4bd59037e90b6358759e0764736f6c634300081a0033\n}\n",
				"bytecode": {
					"linkReferences": {},
					"object": "6080604052348015600e575f80fd5b503360025f6101000a81548173ffffffffffffffffffffffffffffffffffffffff021916908373ffffffffffffffffffffffffffffffffffffffff160217905550610d738061005c5f395ff3fe60806040526004361061007a575f3560e01c80638da5cb5b1161004d5780638da5cb5b1461012a57806398d5fdca14610154578063b60d42881461017e578063dc0d3dff146101885761007a565b80630d8e6e2c1461007e5780633ccfd60b146100a85780633e47d6f3146100b25780636e5b6b28146100ee575b5f80fd5b348015610089575f80fd5b506100926101c4565b60405161009f919061079f565b60405180910390f35b6100b0610250565b005b3480156100bd575f80fd5b506100d860048036038101906100d39190610816565b610487565b6040516100e5919061079f565b60405180910390f35b3480156100f9575f80fd5b50610114600480360381019061010f919061086b565b61049b565b604051610121919061079f565b60405180910390f35b348015610135575f80fd5b5061013e6104d3565b60405161014b91906108a5565b60405180910390f35b34801561015f575f80fd5b506101686104f8565b604051610175919061079f565b60405180910390f35b61018661059d565b005b348015610193575f80fd5b506101ae60048036038101906101a9919061086b565b6106aa565b6040516101bb91906108a5565b60405180910390f35b5f8073d4a33860578de61dbabdc8bfdb98fd742fa7028e90508073ffffffffffffffffffffffffffffffffffffffff166354fd4d506040518163ffffffff1660e01b8152600401602060405180830381865afa158015610226573d5f803e3d5ffd5b505050506040513d601f19601f8201168201806040525081019061024a91906108d2565b91505090565b60025f9054906101000a900473ffffffffffffffffffffffffffffffffffffffff1673ffffffffffffffffffffffffffffffffffffffff163373ffffffffffffffffffffffffffffffffffffffff16146102df576040517f08c379a00000000000000000000000000000000000000000000000000000000081526004016102d690610957565b60405180910390fd5b5f3373ffffffffffffffffffffffffffffffffffffffff1647604051610304906109a2565b5f6040518083038185875af1925050503d805f811461033e576040519150601f19603f3d011682016040523d82523d5f602084013e610343565b606091505b5050905080610387576040517f08c379a000000000000000000000000000000000000000000000000000000000815260040161037e90610a00565b60405180910390fd5b5f5b600180549050811015610424575f600182815481106103ab576103aa610a1e565b5b905f5260205f20015f9054906101000a900473ffffffffffffffffffffffffffffffffffffffff1690505f805f8373ffffffffffffffffffffffffffffffffffffffff1673ffffffffffffffffffffffffffffffffffffffff1681526020019081526020015f2081905550508080600101915050610389565b505f67ffffffffffffffff81111561043f5761043e610a4b565b5b60405190808252806020026020018201604052801561046d5781602001602082028036833780820191505090505b50600190805190602001906104839291906106e5565b5050565b5f602052805f5260405f205f915090505481565b5f806104a56104f8565b90505f670de0b6b3a764000084836104bd9190610aa5565b6104c79190610b13565b90508092505050919050565b60025f9054906101000a900473ffffffffffffffffffffffffffffffffffffffff1681565b5f8073d4a33860578de61dbabdc8bfdb98fd742fa7028e90505f8173ffffffffffffffffffffffffffffffffffffffff1663feaf968c6040518163ffffffff1660e01b815260040160a060405180830381865afa15801561055b573d5f803e3d5ffd5b505050506040513d601f19601f8201168201806040525081019061057f9190610bb5565b5050509150506402540be400816105969190610c2c565b9250505090565b5f6802b5e3af16b18800009050806105b43461049b565b10156105f5576040517f08c379a00000000000000000000000000000000000000000000000000000000081526004016105ec90610cec565b60405180910390fd5b345f803373ffffffffffffffffffffffffffffffffffffffff1673ffffffffffffffffffffffffffffffffffffffff1681526020019081526020015f205f8282546106409190610d0a565b92505081905550600133908060018154018082558091505060019003905f5260205f20015f9091909190916101000a81548173ffffffffffffffffffffffffffffffffffffffff021916908373ffffffffffffffffffffffffffffffffffffffff16021790555050565b600181815481106106b9575f80fd5b905f5260205f20015f915054906101000a900473ffffffffffffffffffffffffffffffffffffffff1681565b828054828255905f5260205f2090810192821561075b579160200282015b8281111561075a578251825f6101000a81548173ffffffffffffffffffffffffffffffffffffffff021916908373ffffffffffffffffffffffffffffffffffffffff16021790555091602001919060010190610703565b5b509050610768919061076c565b5090565b5b80821115610783575f815f90555060010161076d565b5090565b5f819050919050565b61079981610787565b82525050565b5f6020820190506107b25f830184610790565b92915050565b5f80fd5b5f73ffffffffffffffffffffffffffffffffffffffff82169050919050565b5f6107e5826107bc565b9050919050565b6107f5816107db565b81146107ff575f80fd5b50565b5f81359050610810816107ec565b92915050565b5f6020828403121561082b5761082a6107b8565b5b5f61083884828501610802565b91505092915050565b61084a81610787565b8114610854575f80fd5b50565b5f8135905061086581610841565b92915050565b5f602082840312156108805761087f6107b8565b5b5f61088d84828501610857565b91505092915050565b61089f816107db565b82525050565b5f6020820190506108b85f830184610896565b92915050565b5f815190506108cc81610841565b92915050565b5f602082840312156108e7576108e66107b8565b5b5f6108f4848285016108be565b91505092915050565b5f82825260208201905092915050565b7f53656e646572206973206e6f7420746865206f776e65722100000000000000005f82015250565b5f6109416018836108fd565b915061094c8261090d565b602082019050919050565b5f6020820190508181035f83015261096e81610935565b9050919050565b5f81905092915050565b50565b5f61098d5f83610975565b91506109988261097f565b5f82019050919050565b5f6109ac82610982565b9150819050919050565b7f43616c6c206661696c65640000000000000000000000000000000000000000005f82015250565b5f6109ea600b836108fd565b91506109f5826109b6565b602082019050919050565b5f6020820190508181035f830152610a17816109de565b9050919050565b7f4e487b71000000000000000000000000000000000000000000000000000000005f52603260045260245ffd5b7f4e487b71000000000000000000000000000000000000000000000000000000005f52604160045260245ffd5b7f4e487b71000000000000000000000000000000000000000000000000000000005f52601160045260245ffd5b5f610aaf82610787565b9150610aba83610787565b9250828202610ac881610787565b91508282048414831517610adf57610ade610a78565b5b5092915050565b7f4e487b71000000000000000000000000000000000000000000000000000000005f52601260045260245ffd5b5f610b1d82610787565b9150610b2883610787565b925082610b3857610b37610ae6565b5b828204905092915050565b5f69ffffffffffffffffffff82169050919050565b610b6181610b43565b8114610b6b575f80fd5b50565b5f81519050610b7c81610b58565b92915050565b5f819050919050565b610b9481610b82565b8114610b9e575f80fd5b50565b5f81519050610baf81610b8b565b92915050565b5f805f805f60a08688031215610bce57610bcd6107b8565b5b5f610bdb88828901610b6e565b9550506020610bec88828901610ba1565b9450506040610bfd888289016108be565b9350506060610c0e888289016108be565b9250506080610c1f88828901610b6e565b9150509295509295909350565b5f610c3682610b82565b9150610c4183610b82565b9250828202610c4f81610b82565b91507f800000000000000000000000000000000000000000000000000000000000000084145f84121615610c8657610c85610a78565b5b8282058414831517610c9b57610c9a610a78565b5b5092915050565b7f596f75206e65656420746f207370656e64206d6f7265204554482100000000005f82015250565b5f610cd6601b836108fd565b9150610ce182610ca2565b602082019050919050565b5f6020820190508181035f830152610d0381610cca565b9050919050565b5f610d1482610787565b9150610d1f83610787565b9250828201905080821115610d3757610d36610a78565b5b9291505056fea26469706673582212201b29efb45d725ca2a441a55a717eafd82411c4043c4bd59037e90b6358759e0764736f6c634300081a0033",
					"opcodes": "PUSH1 0x80 PUSH1 0x40 MSTORE CALLVALUE DUP1 ISZERO PUSH1 0xE JUMPI PUSH0 DUP1 REVERT JUMPDEST POP CALLER PUSH1 0x2 PUSH0 PUSH2 0x100 EXP DUP2 SLOAD DUP2 PUSH20 0xFFFFFFFFFFFFFFFFFFFFFFFFFFFFFFFFFFFFFFFF MUL NOT AND SWAP1 DUP4 PUSH20 0xFFFFFFFFFFFFFFFFFFFFFFFFFFFFFFFFFFFFFFFF AND MUL OR SWAP1 SSTORE POP PUSH2 0xD73 DUP1 PUSH2 0x5C PUSH0 CODECOPY PUSH0 RETURN INVALID PUSH1 0x80 PUSH1 0x40 MSTORE PUSH1 0x4 CALLDATASIZE LT PUSH2 0x7A JUMPI PUSH0 CALLDATALOAD PUSH1 0xE0 SHR DUP1 PUSH4 0x8DA5CB5B GT PUSH2 0x4D JUMPI DUP1 PUSH4 0x8DA5CB5B EQ PUSH2 0x12A JUMPI DUP1 PUSH4 0x98D5FDCA EQ PUSH2 0x154 JUMPI DUP1 PUSH4 0xB60D4288 EQ PUSH2 0x17E JUMPI DUP1 PUSH4 0xDC0D3DFF EQ PUSH2 0x188 JUMPI PUSH2 0x7A JUMP JUMPDEST DUP1 PUSH4 0xD8E6E2C EQ PUSH2 0x7E JUMPI DUP1 PUSH4 0x3CCFD60B EQ PUSH2 0xA8 JUMPI DUP1 PUSH4 0x3E47D6F3 EQ PUSH2 0xB2 JUMPI DUP1 PUSH4 0x6E5B6B28 EQ PUSH2 0xEE JUMPI JUMPDEST PUSH0 DUP1 REVERT JUMPDEST CALLVALUE DUP1 ISZERO PUSH2 0x89 JUMPI PUSH0 DUP1 REVERT JUMPDEST POP PUSH2 0x92 PUSH2 0x1C4 JUMP JUMPDEST PUSH1 0x40 MLOAD PUSH2 0x9F SWAP2 SWAP1 PUSH2 0x79F JUMP JUMPDEST PUSH1 0x40 MLOAD DUP1 SWAP2 SUB SWAP1 RETURN JUMPDEST PUSH2 0xB0 PUSH2 0x250 JUMP JUMPDEST STOP JUMPDEST CALLVALUE DUP1 ISZERO PUSH2 0xBD JUMPI PUSH0 DUP1 REVERT JUMPDEST POP PUSH2 0xD8 PUSH1 0x4 DUP1 CALLDATASIZE SUB DUP2 ADD SWAP1 PUSH2 0xD3 SWAP2 SWAP1 PUSH2 0x816 JUMP JUMPDEST PUSH2 0x487 JUMP JUMPDEST PUSH1 0x40 MLOAD PUSH2 0xE5 SWAP2 SWAP1 PUSH2 0x79F JUMP JUMPDEST PUSH1 0x40 MLOAD DUP1 SWAP2 SUB SWAP1 RETURN JUMPDEST CALLVALUE DUP1 ISZERO PUSH2 0xF9 JUMPI PUSH0 DUP1 REVERT JUMPDEST POP PUSH2 0x114 PUSH1 0x4 DUP1 CALLDATASIZE SUB DUP2 ADD SWAP1 PUSH2 0x10F SWAP2 SWAP1 PUSH2 0x86B JUMP JUMPDEST PUSH2 0x49B JUMP JUMPDEST PUSH1 0x40 MLOAD PUSH2 0x121 SWAP2 SWAP1 PUSH2 0x79F JUMP JUMPDEST PUSH1 0x40 MLOAD DUP1 SWAP2 SUB SWAP1 RETURN JUMPDEST CALLVALUE DUP1 ISZERO PUSH2 0x135 JUMPI PUSH0 DUP1 REVERT JUMPDEST POP PUSH2 0x13E PUSH2 0x4D3 JUMP JUMPDEST PUSH1 0x40 MLOAD PUSH2 0x14B SWAP2 SWAP1 PUSH2 0x8A5 JUMP JUMPDEST PUSH1 0x40 MLOAD DUP1 SWAP2 SUB SWAP1 RETURN JUMPDEST CALLVALUE DUP1 ISZERO PUSH2 0x15F JUMPI PUSH0 DUP1 REVERT JUMPDEST POP PUSH2 0x168 PUSH2 0x4F8 JUMP JUMPDEST PUSH1 0x40 MLOAD PUSH2 0x175 SWAP2 SWAP1 PUSH2 0x79F JUMP JUMPDEST PUSH1 0x40 MLOAD DUP1 SWAP2 SUB SWAP1 RETURN JUMPDEST PUSH2 0x186 PUSH2 0x59D JUMP JUMPDEST STOP JUMPDEST CALLVALUE DUP1 ISZERO PUSH2 0x193 JUMPI PUSH0 DUP1 REVERT JUMPDEST POP PUSH2 0x1AE PUSH1 0x4 DUP1 CALLDATASIZE SUB DUP2 ADD SWAP1 PUSH2 0x1A9 SWAP2 SWAP1 PUSH2 0x86B JUMP JUMPDEST PUSH2 0x6AA JUMP JUMPDEST PUSH1 0x40 MLOAD PUSH2 0x1BB SWAP2 SWAP1 PUSH2 0x8A5 JUMP JUMPDEST PUSH1 0x40 MLOAD DUP1 SWAP2 SUB SWAP1 RETURN JUMPDEST PUSH0 DUP1 PUSH20 0xD4A33860578DE61DBABDC8BFDB98FD742FA7028E SWAP1 POP DUP1 PUSH20 0xFFFFFFFFFFFFFFFFFFFFFFFFFFFFFFFFFFFFFFFF AND PUSH4 0x54FD4D50 PUSH1 0x40 MLOAD DUP2 PUSH4 0xFFFFFFFF AND PUSH1 0xE0 SHL DUP2 MSTORE PUSH1 0x4 ADD PUSH1 0x20 PUSH1 0x40 MLOAD DUP1 DUP4 SUB DUP2 DUP7 GAS STATICCALL ISZERO DUP1 ISZERO PUSH2 0x226 JUMPI RETURNDATASIZE PUSH0 DUP1 RETURNDATACOPY RETURNDATASIZE PUSH0 REVERT JUMPDEST POP POP POP POP PUSH1 0x40 MLOAD RETURNDATASIZE PUSH1 0x1F NOT PUSH1 0x1F DUP3 ADD AND DUP3 ADD DUP1 PUSH1 0x40 MSTORE POP DUP2 ADD SWAP1 PUSH2 0x24A SWAP2 SWAP1 PUSH2 0x8D2 JUMP JUMPDEST SWAP2 POP POP SWAP1 JUMP JUMPDEST PUSH1 0x2 PUSH0 SWAP1 SLOAD SWAP1 PUSH2 0x100 EXP SWAP1 DIV PUSH20 0xFFFFFFFFFFFFFFFFFFFFFFFFFFFFFFFFFFFFFFFF AND PUSH20 0xFFFFFFFFFFFFFFFFFFFFFFFFFFFFFFFFFFFFFFFF AND CALLER PUSH20 0xFFFFFFFFFFFFFFFFFFFFFFFFFFFFFFFFFFFFFFFF AND EQ PUSH2 0x2DF JUMPI PUSH1 0x40 MLOAD PUSH32 0x8C379A000000000000000000000000000000000000000000000000000000000 DUP2 MSTORE PUSH1 0x4 ADD PUSH2 0x2D6 SWAP1 PUSH2 0x957 JUMP JUMPDEST PUSH1 0x40 MLOAD DUP1 SWAP2 SUB SWAP1 REVERT JUMPDEST PUSH0 CALLER PUSH20 0xFFFFFFFFFFFFFFFFFFFFFFFFFFFFFFFFFFFFFFFF AND SELFBALANCE PUSH1 0x40 MLOAD PUSH2 0x304 SWAP1 PUSH2 0x9A2 JUMP JUMPDEST PUSH0 PUSH1 0x40 MLOAD DUP1 DUP4 SUB DUP2 DUP6 DUP8 GAS CALL SWAP3 POP POP POP RETURNDATASIZE DUP1 PUSH0 DUP2 EQ PUSH2 0x33E JUMPI PUSH1 0x40 MLOAD SWAP2 POP PUSH1 0x1F NOT PUSH1 0x3F RETURNDATASIZE ADD AND DUP3 ADD PUSH1 0x40 MSTORE RETURNDATASIZE DUP3 MSTORE RETURNDATASIZE PUSH0 PUSH1 0x20 DUP5 ADD RETURNDATACOPY PUSH2 0x343 JUMP JUMPDEST PUSH1 0x60 SWAP2 POP JUMPDEST POP POP SWAP1 POP DUP1 PUSH2 0x387 JUMPI PUSH1 0x40 MLOAD PUSH32 0x8C379A000000000000000000000000000000000000000000000000000000000 DUP2 MSTORE PUSH1 0x4 ADD PUSH2 0x37E SWAP1 PUSH2 0xA00 JUMP JUMPDEST PUSH1 0x40 MLOAD DUP1 SWAP2 SUB SWAP1 REVERT JUMPDEST PUSH0 JUMPDEST PUSH1 0x1 DUP1 SLOAD SWAP1 POP DUP2 LT ISZERO PUSH2 0x424 JUMPI PUSH0 PUSH1 0x1 DUP3 DUP2 SLOAD DUP2 LT PUSH2 0x3AB JUMPI PUSH2 0x3AA PUSH2 0xA1E JUMP JUMPDEST JUMPDEST SWAP1 PUSH0 MSTORE PUSH1 0x20 PUSH0 KECCAK256 ADD PUSH0 SWAP1 SLOAD SWAP1 PUSH2 0x100 EXP SWAP1 DIV PUSH20 0xFFFFFFFFFFFFFFFFFFFFFFFFFFFFFFFFFFFFFFFF AND SWAP1 POP PUSH0 DUP1 PUSH0 DUP4 PUSH20 0xFFFFFFFFFFFFFFFFFFFFFFFFFFFFFFFFFFFFFFFF AND PUSH20 0xFFFFFFFFFFFFFFFFFFFFFFFFFFFFFFFFFFFFFFFF AND DUP2 MSTORE PUSH1 0x20 ADD SWAP1 DUP2 MSTORE PUSH1 0x20 ADD PUSH0 KECCAK256 DUP2 SWAP1 SSTORE POP POP DUP1 DUP1 PUSH1 0x1 ADD SWAP2 POP POP PUSH2 0x389 JUMP JUMPDEST POP PUSH0 PUSH8 0xFFFFFFFFFFFFFFFF DUP2 GT ISZERO PUSH2 0x43F JUMPI PUSH2 0x43E PUSH2 0xA4B JUMP JUMPDEST JUMPDEST PUSH1 0x40 MLOAD SWAP1 DUP1 DUP3 MSTORE DUP1 PUSH1 0x20 MUL PUSH1 0x20 ADD DUP3 ADD PUSH1 0x40 MSTORE DUP1 ISZERO PUSH2 0x46D JUMPI DUP2 PUSH1 0x20 ADD PUSH1 0x20 DUP3 MUL DUP1 CALLDATASIZE DUP4 CALLDATACOPY DUP1 DUP3 ADD SWAP2 POP POP SWAP1 POP JUMPDEST POP PUSH1 0x1 SWAP1 DUP1 MLOAD SWAP1 PUSH1 0x20 ADD SWAP1 PUSH2 0x483 SWAP3 SWAP2 SWAP1 PUSH2 0x6E5 JUMP JUMPDEST POP POP JUMP JUMPDEST PUSH0 PUSH1 0x20 MSTORE DUP1 PUSH0 MSTORE PUSH1 0x40 PUSH0 KECCAK256 PUSH0 SWAP2 POP SWAP1 POP SLOAD DUP2 JUMP JUMPDEST PUSH0 DUP1 PUSH2 0x4A5 PUSH2 0x4F8 JUMP JUMPDEST SWAP1 POP PUSH0 PUSH8 0xDE0B6B3A7640000 DUP5 DUP4 PUSH2 0x4BD SWAP2 SWAP1 PUSH2 0xAA5 JUMP JUMPDEST PUSH2 0x4C7 SWAP2 SWAP1 PUSH2 0xB13 JUMP JUMPDEST SWAP1 POP DUP1 SWAP3 POP POP POP SWAP2 SWAP1 POP JUMP JUMPDEST PUSH1 0x2 PUSH0 SWAP1 SLOAD SWAP1 PUSH2 0x100 EXP SWAP1 DIV PUSH20 0xFFFFFFFFFFFFFFFFFFFFFFFFFFFFFFFFFFFFFFFF AND DUP2 JUMP JUMPDEST PUSH0 DUP1 PUSH20 0xD4A33860578DE61DBABDC8BFDB98FD742FA7028E SWAP1 POP PUSH0 DUP2 PUSH20 0xFFFFFFFFFFFFFFFFFFFFFFFFFFFFFFFFFFFFFFFF AND PUSH4 0xFEAF968C PUSH1 0x40 MLOAD DUP2 PUSH4 0xFFFFFFFF AND PUSH1 0xE0 SHL DUP2 MSTORE PUSH1 0x4 ADD PUSH1 0xA0 PUSH1 0x40 MLOAD DUP1 DUP4 SUB DUP2 DUP7 GAS STATICCALL ISZERO DUP1 ISZERO PUSH2 0x55B JUMPI RETURNDATASIZE PUSH0 DUP1 RETURNDATACOPY RETURNDATASIZE PUSH0 REVERT JUMPDEST POP POP POP POP PUSH1 0x40 MLOAD RETURNDATASIZE PUSH1 0x1F NOT PUSH1 0x1F DUP3 ADD AND DUP3 ADD DUP1 PUSH1 0x40 MSTORE POP DUP2 ADD SWAP1 PUSH2 0x57F SWAP2 SWAP1 PUSH2 0xBB5 JUMP JUMPDEST POP POP POP SWAP2 POP POP PUSH5 0x2540BE400 DUP2 PUSH2 0x596 SWAP2 SWAP1 PUSH2 0xC2C JUMP JUMPDEST SWAP3 POP POP POP SWAP1 JUMP JUMPDEST PUSH0 PUSH9 0x2B5E3AF16B1880000 SWAP1 POP DUP1 PUSH2 0x5B4 CALLVALUE PUSH2 0x49B JUMP JUMPDEST LT ISZERO PUSH2 0x5F5 JUMPI PUSH1 0x40 MLOAD PUSH32 0x8C379A000000000000000000000000000000000000000000000000000000000 DUP2 MSTORE PUSH1 0x4 ADD PUSH2 0x5EC SWAP1 PUSH2 0xCEC JUMP JUMPDEST PUSH1 0x40 MLOAD DUP1 SWAP2 SUB SWAP1 REVERT JUMPDEST CALLVALUE PUSH0 DUP1 CALLER PUSH20 0xFFFFFFFFFFFFFFFFFFFFFFFFFFFFFFFFFFFFFFFF AND PUSH20 0xFFFFFFFFFFFFFFFFFFFFFFFFFFFFFFFFFFFFFFFF AND DUP2 MSTORE PUSH1 0x20 ADD SWAP1 DUP2 MSTORE PUSH1 0x20 ADD PUSH0 KECCAK256 PUSH0 DUP3 DUP3 SLOAD PUSH2 0x640 SWAP2 SWAP1 PUSH2 0xD0A JUMP JUMPDEST SWAP3 POP POP DUP2 SWAP1 SSTORE POP PUSH1 0x1 CALLER SWAP1 DUP1 PUSH1 0x1 DUP2 SLOAD ADD DUP1 DUP3 SSTORE DUP1 SWAP2 POP POP PUSH1 0x1 SWAP1 SUB SWAP1 PUSH0 MSTORE PUSH1 0x20 PUSH0 KECCAK256 ADD PUSH0 SWAP1 SWAP2 SWAP1 SWAP2 SWAP1 SWAP2 PUSH2 0x100 EXP DUP2 SLOAD DUP2 PUSH20 0xFFFFFFFFFFFFFFFFFFFFFFFFFFFFFFFFFFFFFFFF MUL NOT AND SWAP1 DUP4 PUSH20 0xFFFFFFFFFFFFFFFFFFFFFFFFFFFFFFFFFFFFFFFF AND MUL OR SWAP1 SSTORE POP POP JUMP JUMPDEST PUSH1 0x1 DUP2 DUP2 SLOAD DUP2 LT PUSH2 0x6B9 JUMPI PUSH0 DUP1 REVERT JUMPDEST SWAP1 PUSH0 MSTORE PUSH1 0x20 PUSH0 KECCAK256 ADD PUSH0 SWAP2 POP SLOAD SWAP1 PUSH2 0x100 EXP SWAP1 DIV PUSH20 0xFFFFFFFFFFFFFFFFFFFFFFFFFFFFFFFFFFFFFFFF AND DUP2 JUMP JUMPDEST DUP3 DUP1 SLOAD DUP3 DUP3 SSTORE SWAP1 PUSH0 MSTORE PUSH1 0x20 PUSH0 KECCAK256 SWAP1 DUP2 ADD SWAP3 DUP3 ISZERO PUSH2 0x75B JUMPI SWAP2 PUSH1 0x20 MUL DUP3 ADD JUMPDEST DUP3 DUP2 GT ISZERO PUSH2 0x75A JUMPI DUP3 MLOAD DUP3 PUSH0 PUSH2 0x100 EXP DUP2 SLOAD DUP2 PUSH20 0xFFFFFFFFFFFFFFFFFFFFFFFFFFFFFFFFFFFFFFFF MUL NOT AND SWAP1 DUP4 PUSH20 0xFFFFFFFFFFFFFFFFFFFFFFFFFFFFFFFFFFFFFFFF AND MUL OR SWAP1 SSTORE POP SWAP2 PUSH1 0x20 ADD SWAP2 SWAP1 PUSH1 0x1 ADD SWAP1 PUSH2 0x703 JUMP JUMPDEST JUMPDEST POP SWAP1 POP PUSH2 0x768 SWAP2 SWAP1 PUSH2 0x76C JUMP JUMPDEST POP SWAP1 JUMP JUMPDEST JUMPDEST DUP1 DUP3 GT ISZERO PUSH2 0x783 JUMPI PUSH0 DUP2 PUSH0 SWAP1 SSTORE POP PUSH1 0x1 ADD PUSH2 0x76D JUMP JUMPDEST POP SWAP1 JUMP JUMPDEST PUSH0 DUP2 SWAP1 POP SWAP2 SWAP1 POP JUMP JUMPDEST PUSH2 0x799 DUP2 PUSH2 0x787 JUMP JUMPDEST DUP3 MSTORE POP POP JUMP JUMPDEST PUSH0 PUSH1 0x20 DUP3 ADD SWAP1 POP PUSH2 0x7B2 PUSH0 DUP4 ADD DUP5 PUSH2 0x790 JUMP JUMPDEST SWAP3 SWAP2 POP POP JUMP JUMPDEST PUSH0 DUP1 REVERT JUMPDEST PUSH0 PUSH20 0xFFFFFFFFFFFFFFFFFFFFFFFFFFFFFFFFFFFFFFFF DUP3 AND SWAP1 POP SWAP2 SWAP1 POP JUMP JUMPDEST PUSH0 PUSH2 0x7E5 DUP3 PUSH2 0x7BC JUMP JUMPDEST SWAP1 POP SWAP2 SWAP1 POP JUMP JUMPDEST PUSH2 0x7F5 DUP2 PUSH2 0x7DB JUMP JUMPDEST DUP2 EQ PUSH2 0x7FF JUMPI PUSH0 DUP1 REVERT JUMPDEST POP JUMP JUMPDEST PUSH0 DUP2 CALLDATALOAD SWAP1 POP PUSH2 0x810 DUP2 PUSH2 0x7EC JUMP JUMPDEST SWAP3 SWAP2 POP POP JUMP JUMPDEST PUSH0 PUSH1 0x20 DUP3 DUP5 SUB SLT ISZERO PUSH2 0x82B JUMPI PUSH2 0x82A PUSH2 0x7B8 JUMP JUMPDEST JUMPDEST PUSH0 PUSH2 0x838 DUP5 DUP3 DUP6 ADD PUSH2 0x802 JUMP JUMPDEST SWAP2 POP POP SWAP3 SWAP2 POP POP JUMP JUMPDEST PUSH2 0x84A DUP2 PUSH2 0x787 JUMP JUMPDEST DUP2 EQ PUSH2 0x854 JUMPI PUSH0 DUP1 REVERT JUMPDEST POP JUMP JUMPDEST PUSH0 DUP2 CALLDATALOAD SWAP1 POP PUSH2 0x865 DUP2 PUSH2 0x841 JUMP JUMPDEST SWAP3 SWAP2 POP POP JUMP JUMPDEST PUSH0 PUSH1 0x20 DUP3 DUP5 SUB SLT ISZERO PUSH2 0x880 JUMPI PUSH2 0x87F PUSH2 0x7B8 JUMP JUMPDEST JUMPDEST PUSH0 PUSH2 0x88D DUP5 DUP3 DUP6 ADD PUSH2 0x857 JUMP JUMPDEST SWAP2 POP POP SWAP3 SWAP2 POP POP JUMP JUMPDEST PUSH2 0x89F DUP2 PUSH2 0x7DB JUMP JUMPDEST DUP3 MSTORE POP POP JUMP JUMPDEST PUSH0 PUSH1 0x20 DUP3 ADD SWAP1 POP PUSH2 0x8B8 PUSH0 DUP4 ADD DUP5 PUSH2 0x896 JUMP JUMPDEST SWAP3 SWAP2 POP POP JUMP JUMPDEST PUSH0 DUP2 MLOAD SWAP1 POP PUSH2 0x8CC DUP2 PUSH2 0x841 JUMP JUMPDEST SWAP3 SWAP2 POP POP JUMP JUMPDEST PUSH0 PUSH1 0x20 DUP3 DUP5 SUB SLT ISZERO PUSH2 0x8E7 JUMPI PUSH2 0x8E6 PUSH2 0x7B8 JUMP JUMPDEST JUMPDEST PUSH0 PUSH2 0x8F4 DUP5 DUP3 DUP6 ADD PUSH2 0x8BE JUMP JUMPDEST SWAP2 POP POP SWAP3 SWAP2 POP POP JUMP JUMPDEST PUSH0 DUP3 DUP3 MSTORE PUSH1 0x20 DUP3 ADD SWAP1 POP SWAP3 SWAP2 POP POP JUMP JUMPDEST PUSH32 0x53656E646572206973206E6F7420746865206F776E6572210000000000000000 PUSH0 DUP3 ADD MSTORE POP JUMP JUMPDEST PUSH0 PUSH2 0x941 PUSH1 0x18 DUP4 PUSH2 0x8FD JUMP JUMPDEST SWAP2 POP PUSH2 0x94C DUP3 PUSH2 0x90D JUMP JUMPDEST PUSH1 0x20 DUP3 ADD SWAP1 POP SWAP2 SWAP1 POP JUMP JUMPDEST PUSH0 PUSH1 0x20 DUP3 ADD SWAP1 POP DUP2 DUP2 SUB PUSH0 DUP4 ADD MSTORE PUSH2 0x96E DUP2 PUSH2 0x935 JUMP JUMPDEST SWAP1 POP SWAP2 SWAP1 POP JUMP JUMPDEST PUSH0 DUP2 SWAP1 POP SWAP3 SWAP2 POP POP JUMP JUMPDEST POP JUMP JUMPDEST PUSH0 PUSH2 0x98D PUSH0 DUP4 PUSH2 0x975 JUMP JUMPDEST SWAP2 POP PUSH2 0x998 DUP3 PUSH2 0x97F JUMP JUMPDEST PUSH0 DUP3 ADD SWAP1 POP SWAP2 SWAP1 POP JUMP JUMPDEST PUSH0 PUSH2 0x9AC DUP3 PUSH2 0x982 JUMP JUMPDEST SWAP2 POP DUP2 SWAP1 POP SWAP2 SWAP1 POP JUMP JUMPDEST PUSH32 0x43616C6C206661696C6564000000000000000000000000000000000000000000 PUSH0 DUP3 ADD MSTORE POP JUMP JUMPDEST PUSH0 PUSH2 0x9EA PUSH1 0xB DUP4 PUSH2 0x8FD JUMP JUMPDEST SWAP2 POP PUSH2 0x9F5 DUP3 PUSH2 0x9B6 JUMP JUMPDEST PUSH1 0x20 DUP3 ADD SWAP1 POP SWAP2 SWAP1 POP JUMP JUMPDEST PUSH0 PUSH1 0x20 DUP3 ADD SWAP1 POP DUP2 DUP2 SUB PUSH0 DUP4 ADD MSTORE PUSH2 0xA17 DUP2 PUSH2 0x9DE JUMP JUMPDEST SWAP1 POP SWAP2 SWAP1 POP JUMP JUMPDEST PUSH32 0x4E487B7100000000000000000000000000000000000000000000000000000000 PUSH0 MSTORE PUSH1 0x32 PUSH1 0x4 MSTORE PUSH1 0x24 PUSH0 REVERT JUMPDEST PUSH32 0x4E487B7100000000000000000000000000000000000000000000000000000000 PUSH0 MSTORE PUSH1 0x41 PUSH1 0x4 MSTORE PUSH1 0x24 PUSH0 REVERT JUMPDEST PUSH32 0x4E487B7100000000000000000000000000000000000000000000000000000000 PUSH0 MSTORE PUSH1 0x11 PUSH1 0x4 MSTORE PUSH1 0x24 PUSH0 REVERT JUMPDEST PUSH0 PUSH2 0xAAF DUP3 PUSH2 0x787 JUMP JUMPDEST SWAP2 POP PUSH2 0xABA DUP4 PUSH2 0x787 JUMP JUMPDEST SWAP3 POP DUP3 DUP3 MUL PUSH2 0xAC8 DUP2 PUSH2 0x787 JUMP JUMPDEST SWAP2 POP DUP3 DUP3 DIV DUP5 EQ DUP4 ISZERO OR PUSH2 0xADF JUMPI PUSH2 0xADE PUSH2 0xA78 JUMP JUMPDEST JUMPDEST POP SWAP3 SWAP2 POP POP JUMP JUMPDEST PUSH32 0x4E487B7100000000000000000000000000000000000000000000000000000000 PUSH0 MSTORE PUSH1 0x12 PUSH1 0x4 MSTORE PUSH1 0x24 PUSH0 REVERT JUMPDEST PUSH0 PUSH2 0xB1D DUP3 PUSH2 0x787 JUMP JUMPDEST SWAP2 POP PUSH2 0xB28 DUP4 PUSH2 0x787 JUMP JUMPDEST SWAP3 POP DUP3 PUSH2 0xB38 JUMPI PUSH2 0xB37 PUSH2 0xAE6 JUMP JUMPDEST JUMPDEST DUP3 DUP3 DIV SWAP1 POP SWAP3 SWAP2 POP POP JUMP JUMPDEST PUSH0 PUSH10 0xFFFFFFFFFFFFFFFFFFFF DUP3 AND SWAP1 POP SWAP2 SWAP1 POP JUMP JUMPDEST PUSH2 0xB61 DUP2 PUSH2 0xB43 JUMP JUMPDEST DUP2 EQ PUSH2 0xB6B JUMPI PUSH0 DUP1 REVERT JUMPDEST POP JUMP JUMPDEST PUSH0 DUP2 MLOAD SWAP1 POP PUSH2 0xB7C DUP2 PUSH2 0xB58 JUMP JUMPDEST SWAP3 SWAP2 POP POP JUMP JUMPDEST PUSH0 DUP2 SWAP1 POP SWAP2 SWAP1 POP JUMP JUMPDEST PUSH2 0xB94 DUP2 PUSH2 0xB82 JUMP JUMPDEST DUP2 EQ PUSH2 0xB9E JUMPI PUSH0 DUP1 REVERT JUMPDEST POP JUMP JUMPDEST PUSH0 DUP2 MLOAD SWAP1 POP PUSH2 0xBAF DUP2 PUSH2 0xB8B JUMP JUMPDEST SWAP3 SWAP2 POP POP JUMP JUMPDEST PUSH0 DUP1 PUSH0 DUP1 PUSH0 PUSH1 0xA0 DUP7 DUP9 SUB SLT ISZERO PUSH2 0xBCE JUMPI PUSH2 0xBCD PUSH2 0x7B8 JUMP JUMPDEST JUMPDEST PUSH0 PUSH2 0xBDB DUP9 DUP3 DUP10 ADD PUSH2 0xB6E JUMP JUMPDEST SWAP6 POP POP PUSH1 0x20 PUSH2 0xBEC DUP9 DUP3 DUP10 ADD PUSH2 0xBA1 JUMP JUMPDEST SWAP5 POP POP PUSH1 0x40 PUSH2 0xBFD DUP9 DUP3 DUP10 ADD PUSH2 0x8BE JUMP JUMPDEST SWAP4 POP POP PUSH1 0x60 PUSH2 0xC0E DUP9 DUP3 DUP10 ADD PUSH2 0x8BE JUMP JUMPDEST SWAP3 POP POP PUSH1 0x80 PUSH2 0xC1F DUP9 DUP3 DUP10 ADD PUSH2 0xB6E JUMP JUMPDEST SWAP2 POP POP SWAP3 SWAP6 POP SWAP3 SWAP6 SWAP1 SWAP4 POP JUMP JUMPDEST PUSH0 PUSH2 0xC36 DUP3 PUSH2 0xB82 JUMP JUMPDEST SWAP2 POP PUSH2 0xC41 DUP4 PUSH2 0xB82 JUMP JUMPDEST SWAP3 POP DUP3 DUP3 MUL PUSH2 0xC4F DUP2 PUSH2 0xB82 JUMP JUMPDEST SWAP2 POP PUSH32 0x8000000000000000000000000000000000000000000000000000000000000000 DUP5 EQ PUSH0 DUP5 SLT AND ISZERO PUSH2 0xC86 JUMPI PUSH2 0xC85 PUSH2 0xA78 JUMP JUMPDEST JUMPDEST DUP3 DUP3 SDIV DUP5 EQ DUP4 ISZERO OR PUSH2 0xC9B JUMPI PUSH2 0xC9A PUSH2 0xA78 JUMP JUMPDEST JUMPDEST POP SWAP3 SWAP2 POP POP JUMP JUMPDEST PUSH32 0x596F75206E65656420746F207370656E64206D6F726520455448210000000000 PUSH0 DUP3 ADD MSTORE POP JUMP JUMPDEST PUSH0 PUSH2 0xCD6 PUSH1 0x1B DUP4 PUSH2 0x8FD JUMP JUMPDEST SWAP2 POP PUSH2 0xCE1 DUP3 PUSH2 0xCA2 JUMP JUMPDEST PUSH1 0x20 DUP3 ADD SWAP1 POP SWAP2 SWAP1 POP JUMP JUMPDEST PUSH0 PUSH1 0x20 DUP3 ADD SWAP1 POP DUP2 DUP2 SUB PUSH0 DUP4 ADD MSTORE PUSH2 0xD03 DUP2 PUSH2 0xCCA JUMP JUMPDEST SWAP1 POP SWAP2 SWAP1 POP JUMP JUMPDEST PUSH0 PUSH2 0xD14 DUP3 PUSH2 0x787 JUMP JUMPDEST SWAP2 POP PUSH2 0xD1F DUP4 PUSH2 0x787 JUMP JUMPDEST SWAP3 POP DUP3 DUP3 ADD SWAP1 POP DUP1 DUP3 GT ISZERO PUSH2 0xD37 JUMPI PUSH2 0xD36 PUSH2 0xA78 JUMP JUMPDEST JUMPDEST SWAP3 SWAP2 POP POP JUMP INVALID LOG2 PUSH5 0x6970667358 0x22 SLT KECCAK256 SHL 0x29 0xEF 0xB4 TSTORE PUSH19 0x5CA2A441A55A717EAFD82411C4043C4BD59037 0xE9 SIGNEXTEND PUSH4 0x58759E07 PUSH5 0x736F6C6343 STOP ADDMOD BYTE STOP CALLER "
				},
				"gasEstimates": {
					"creation": {
						"codeDepositCost": "688600",
						"executionCost": "24984",
						"totalCost": "713584"
					},
					"external": {
						"addressToAmountFunded(address)": "2846",
						"fund()": "infinite",
						"funders(uint256)": "5010",
						"getConversionRate(uint256)": "infinite",
						"getPrice()": "infinite",
						"getVersion()": "infinite",
						"owner()": "2508",
						"withdraw()": "infinite"
					}
				},
				"methodIdentifiers": {
					"addressToAmountFunded(address)": "3e47d6f3",
					"fund()": "b60d4288",
					"funders(uint256)": "dc0d3dff",
					"getConversionRate(uint256)": "6e5b6b28",
					"getPrice()": "98d5fdca",
					"getVersion()": "0d8e6e2c",
					"owner()": "8da5cb5b",
					"withdraw()": "3ccfd60b"
				}
			},
			"storageLayout": {
				"storage": [
					{
						"astId": 52,
						"contract": "contracts/FundMe.sol:FundMe",
						"label": "addressToAmountFunded",
						"offset": 0,
						"slot": "0",
						"type": "t_mapping(t_address,t_uint256)"
					},
					{
						"astId": 55,
						"contract": "contracts/FundMe.sol:FundMe",
						"label": "funders",
						"offset": 0,
						"slot": "1",
						"type": "t_array(t_address)dyn_storage"
					},
					{
						"astId": 57,
						"contract": "contracts/FundMe.sol:FundMe",
						"label": "owner",
						"offset": 0,
						"slot": "2",
						"type": "t_address"
					}
				],
				"types": {
					"t_address": {
						"encoding": "inplace",
						"label": "address",
						"numberOfBytes": "20"
					},
					"t_array(t_address)dyn_storage": {
						"base": "t_address",
						"encoding": "dynamic_array",
						"label": "address[]",
						"numberOfBytes": "32"
					},
					"t_mapping(t_address,t_uint256)": {
						"encoding": "mapping",
						"key": "t_address",
						"label": "mapping(address => uint256)",
						"numberOfBytes": "32",
						"value": "t_uint256"
					},
					"t_uint256": {
						"encoding": "inplace",
						"label": "uint256",
						"numberOfBytes": "32"
					}
				}
			},
			"userdoc": {
				"kind": "user",
				"methods": {},
				"version": 1
			}
		}
	}
}